{"abi":[{"type":"function","name":"aggregatorProgramHash","inputs":[],"outputs":[{"name":"","type":"uint256","internalType":"uint256"}],"stateMutability":"view"},{"type":"function","name":"cancelL1ToL2Message","inputs":[{"name":"toAddress","type":"uint256","internalType":"uint256"},{"name":"selector","type":"uint256","internalType":"uint256"},{"name":"payload","type":"uint256[]","internalType":"uint256[]"},{"name":"nonce","type":"uint256","internalType":"uint256"}],"outputs":[{"name":"","type":"bytes32","internalType":"bytes32"}],"stateMutability":"nonpayable"},{"type":"function","name":"configHash","inputs":[],"outputs":[{"name":"","type":"uint256","internalType":"uint256"}],"stateMutability":"view"},{"type":"function","name":"consumeMessageFromL2","inputs":[{"name":"fromAddress","type":"uint256","internalType":"uint256"},{"name":"payload","type":"uint256[]","internalType":"uint256[]"}],"outputs":[{"name":"","type":"bytes32","internalType":"bytes32"}],"stateMutability":"nonpayable"},{"type":"function","name":"finalize","inputs":[],"outputs":[],"stateMutability":"nonpayable"},{"type":"function","name":"getMaxL1MsgFee","inputs":[],"outputs":[{"name":"","type":"uint256","internalType":"uint256"}],"stateMutability":"pure"},{"type":"function","name":"identify","inputs":[],"outputs":[{"name":"","type":"string","internalType":"string"}],"stateMutability":"pure"},{"type":"function","name":"initialize","inputs":[{"name":"data","type":"bytes","internalType":"bytes"}],"outputs":[],"stateMutability":"nonpayable"},{"type":"function","name":"isFinalized","inputs":[],"outputs":[{"name":"","type":"bool","internalType":"bool"}],"stateMutability":"view"},{"type":"function","name":"isFrozen","inputs":[],"outputs":[{"name":"","type":"bool","internalType":"bool"}],"stateMutability":"view"},{"type":"function","name":"isOperator","inputs":[{"name":"user","type":"address","internalType":"address"}],"outputs":[{"name":"","type":"bool","internalType":"bool"}],"stateMutability":"view"},{"type":"function","name":"l1ToL2MessageCancellations","inputs":[{"name":"msgHash","type":"bytes32","internalType":"bytes32"}],"outputs":[{"name":"","type":"uint256","internalType":"uint256"}],"stateMutability":"view"},{"type":"function","name":"l1ToL2MessageNonce","inputs":[],"outputs":[{"name":"","type":"uint256","internalType":"uint256"}],"stateMutability":"view"},{"type":"function","name":"l1ToL2Messages","inputs":[{"name":"msgHash","type":"bytes32","internalType":"bytes32"}],"outputs":[{"name":"","type":"uint256","internalType":"uint256"}],"stateMutability":"view"},{"type":"function","name":"l1ToL2MsgHash","inputs":[{"name":"fromAddress","type":"address","internalType":"address"},{"name":"toAddress","type":"uint256","internalType":"uint256"},{"name":"selector","type":"uint256","internalType":"uint256"},{"name":"payload","type":"uint256[]","internalType":"uint256[]"},{"name":"nonce","type":"uint256","internalType":"uint256"}],"outputs":[{"name":"","type":"bytes32","internalType":"bytes32"}],"stateMutability":"pure"},{"type":"function","name":"l2ToL1Messages","inputs":[{"name":"msgHash","type":"bytes32","internalType":"bytes32"}],"outputs":[{"name":"","type":"uint256","internalType":"uint256"}],"stateMutability":"view"},{"type":"function","name":"l2ToL1MsgHash","inputs":[{"name":"fromAddress","type":"uint256","internalType":"uint256"},{"name":"toAddress","type":"address","internalType":"address"},{"name":"payload","type":"uint256[]","internalType":"uint256[]"}],"outputs":[{"name":"","type":"bytes32","internalType":"bytes32"}],"stateMutability":"pure"},{"type":"function","name":"messageCancellationDelay","inputs":[],"outputs":[{"name":"","type":"uint256","internalType":"uint256"}],"stateMutability":"view"},{"type":"function","name":"programHash","inputs":[],"outputs":[{"name":"","type":"uint256","internalType":"uint256"}],"stateMutability":"view"},{"type":"function","name":"registerOperator","inputs":[{"name":"newOperator","type":"address","internalType":"address"}],"outputs":[],"stateMutability":"nonpayable"},{"type":"function","name":"sendMessageToL2","inputs":[{"name":"toAddress","type":"uint256","internalType":"uint256"},{"name":"selector","type":"uint256","internalType":"uint256"},{"name":"payload","type":"uint256[]","internalType":"uint256[]"}],"outputs":[{"name":"","type":"bytes32","internalType":"bytes32"},{"name":"","type":"uint256","internalType":"uint256"}],"stateMutability":"payable"},{"type":"function","name":"setAggregatorProgramHash","inputs":[{"name":"newAggregatorProgramHash","type":"uint256","internalType":"uint256"}],"outputs":[],"stateMutability":"nonpayable"},{"type":"function","name":"setConfigHash","inputs":[{"name":"newConfigHash","type":"uint256","internalType":"uint256"}],"outputs":[],"stateMutability":"nonpayable"},{"type":"function","name":"setMessageCancellationDelay","inputs":[{"name":"delayInSeconds","type":"uint256","internalType":"uint256"}],"outputs":[],"stateMutability":"nonpayable"},{"type":"function","name":"setProgramHash","inputs":[{"name":"newProgramHash","type":"uint256","internalType":"uint256"}],"outputs":[],"stateMutability":"nonpayable"},{"type":"function","name":"starknetAcceptGovernance","inputs":[],"outputs":[],"stateMutability":"nonpayable"},{"type":"function","name":"starknetCancelNomination","inputs":[],"outputs":[],"stateMutability":"nonpayable"},{"type":"function","name":"starknetIsGovernor","inputs":[{"name":"user","type":"address","internalType":"address"}],"outputs":[{"name":"","type":"bool","internalType":"bool"}],"stateMutability":"view"},{"type":"function","name":"starknetNominateNewGovernor","inputs":[{"name":"newGovernor","type":"address","internalType":"address"}],"outputs":[],"stateMutability":"nonpayable"},{"type":"function","name":"starknetRemoveGovernor","inputs":[{"name":"governorForRemoval","type":"address","internalType":"address"}],"outputs":[],"stateMutability":"nonpayable"},{"type":"function","name":"startL1ToL2MessageCancellation","inputs":[{"name":"toAddress","type":"uint256","internalType":"uint256"},{"name":"selector","type":"uint256","internalType":"uint256"},{"name":"payload","type":"uint256[]","internalType":"uint256[]"},{"name":"nonce","type":"uint256","internalType":"uint256"}],"outputs":[{"name":"","type":"bytes32","internalType":"bytes32"}],"stateMutability":"nonpayable"},{"type":"function","name":"stateBlockHash","inputs":[],"outputs":[{"name":"","type":"uint256","internalType":"uint256"}],"stateMutability":"view"},{"type":"function","name":"stateBlockNumber","inputs":[],"outputs":[{"name":"","type":"int256","internalType":"int256"}],"stateMutability":"view"},{"type":"function","name":"stateRoot","inputs":[],"outputs":[{"name":"","type":"uint256","internalType":"uint256"}],"stateMutability":"view"},{"type":"function","name":"unregisterOperator","inputs":[{"name":"removedOperator","type":"address","internalType":"address"}],"outputs":[],"stateMutability":"nonpayable"},{"type":"function","name":"updateState","inputs":[{"name":"programOutput","type":"uint256[]","internalType":"uint256[]"},{"name":"onchainDataHash","type":"uint256","internalType":"uint256"},{"name":"onchainDataSize","type":"uint256","internalType":"uint256"}],"outputs":[],"stateMutability":"nonpayable"},{"type":"function","name":"updateStateKzgDA","inputs":[{"name":"programOutput","type":"uint256[]","internalType":"uint256[]"},{"name":"kzgProofs","type":"bytes[]","internalType":"bytes[]"}],"outputs":[],"stateMutability":"nonpayable"},{"type":"event","name":"AggregatorProgramHashChanged","inputs":[{"name":"changedBy","type":"address","indexed":true,"internalType":"address"},{"name":"oldAggregatorProgramHash","type":"uint256","indexed":false,"internalType":"uint256"},{"name":"newAggregatorProgramHash","type":"uint256","indexed":false,"internalType":"uint256"}],"anonymous":false},{"type":"event","name":"ConfigHashChanged","inputs":[{"name":"changedBy","type":"address","indexed":true,"internalType":"address"},{"name":"oldConfigHash","type":"uint256","indexed":false,"internalType":"uint256"},{"name":"newConfigHash","type":"uint256","indexed":false,"internalType":"uint256"}],"anonymous":false},{"type":"event","name":"ConsumedMessageToL1","inputs":[{"name":"fromAddress","type":"uint256","indexed":true,"internalType":"uint256"},{"name":"toAddress","type":"address","indexed":true,"internalType":"address"},{"name":"payload","type":"uint256[]","indexed":false,"internalType":"uint256[]"}],"anonymous":false},{"type":"event","name":"ConsumedMessageToL2","inputs":[{"name":"fromAddress","type":"address","indexed":true,"internalType":"address"},{"name":"toAddress","type":"uint256","indexed":true,"internalType":"uint256"},{"name":"selector","type":"uint256","indexed":true,"internalType":"uint256"},{"name":"payload","type":"uint256[]","indexed":false,"internalType":"uint256[]"},{"name":"nonce","type":"uint256","indexed":false,"internalType":"uint256"}],"anonymous":false},{"type":"event","name":"Finalized","inputs":[],"anonymous":false},{"type":"event","name":"LogMessageToL1","inputs":[{"name":"fromAddress","type":"uint256","indexed":true,"internalType":"uint256"},{"name":"toAddress","type":"address","indexed":true,"internalType":"address"},{"name":"payload","type":"uint256[]","indexed":false,"internalType":"uint256[]"}],"anonymous":false},{"type":"event","name":"LogMessageToL2","inputs":[{"name":"fromAddress","type":"address","indexed":true,"internalType":"address"},{"name":"toAddress","type":"uint256","indexed":true,"internalType":"uint256"},{"name":"selector","type":"uint256","indexed":true,"internalType":"uint256"},{"name":"payload","type":"uint256[]","indexed":false,"internalType":"uint256[]"},{"name":"nonce","type":"uint256","indexed":false,"internalType":"uint256"},{"name":"fee","type":"uint256","indexed":false,"internalType":"uint256"}],"anonymous":false},{"type":"event","name":"LogNewGovernorAccepted","inputs":[{"name":"acceptedGovernor","type":"address","indexed":false,"internalType":"address"}],"anonymous":false},{"type":"event","name":"LogNominatedGovernor","inputs":[{"name":"nominatedGovernor","type":"address","indexed":false,"internalType":"address"}],"anonymous":false},{"type":"event","name":"LogNominationCancelled","inputs":[],"anonymous":false},{"type":"event","name":"LogOperatorAdded","inputs":[{"name":"operator","type":"address","indexed":false,"internalType":"address"}],"anonymous":false},{"type":"event","name":"LogOperatorRemoved","inputs":[{"name":"operator","type":"address","indexed":false,"internalType":"address"}],"anonymous":false},{"type":"event","name":"LogRemovedGovernor","inputs":[{"name":"removedGovernor","type":"address","indexed":false,"internalType":"address"}],"anonymous":false},{"type":"event","name":"LogStateTransitionFact","inputs":[{"name":"stateTransitionFact","type":"bytes32","indexed":false,"internalType":"bytes32"}],"anonymous":false},{"type":"event","name":"LogStateUpdate","inputs":[{"name":"globalRoot","type":"uint256","indexed":false,"internalType":"uint256"},{"name":"blockNumber","type":"int256","indexed":false,"internalType":"int256"},{"name":"blockHash","type":"uint256","indexed":false,"internalType":"uint256"}],"anonymous":false},{"type":"event","name":"MessageToL2Canceled","inputs":[{"name":"fromAddress","type":"address","indexed":true,"internalType":"address"},{"name":"toAddress","type":"uint256","indexed":true,"internalType":"uint256"},{"name":"selector","type":"uint256","indexed":true,"internalType":"uint256"},{"name":"payload","type":"uint256[]","indexed":false,"internalType":"uint256[]"},{"name":"nonce","type":"uint256","indexed":false,"internalType":"uint256"}],"anonymous":false},{"type":"event","name":"MessageToL2CancellationStarted","inputs":[{"name":"fromAddress","type":"address","indexed":true,"internalType":"address"},{"name":"toAddress","type":"uint256","indexed":true,"internalType":"uint256"},{"name":"selector","type":"uint256","indexed":true,"internalType":"uint256"},{"name":"payload","type":"uint256[]","indexed":false,"internalType":"uint256[]"},{"name":"nonce","type":"uint256","indexed":false,"internalType":"uint256"}],"anonymous":false},{"type":"event","name":"ProgramHashChanged","inputs":[{"name":"changedBy","type":"address","indexed":true,"internalType":"address"},{"name":"oldProgramHash","type":"uint256","indexed":false,"internalType":"uint256"},{"name":"newProgramHash","type":"uint256","indexed":false,"internalType":"uint256"}],"anonymous":false}],"bytecode":{"object":"0x60a0604052348015600e575f5ffd5b503073ffffffffffffffffffffffffffffffffffffffff1660808173ffffffffffffffffffffffffffffffffffffffff1681525050608051616a4461005b5f395f610dd90152616a445ff3fe608060405260043610610219575f3560e01c80637a98660b1161012257806396115bc2116100aa578063e1f1176d1161006e578063e1f1176d146107dc578063e37fec2514610806578063e87e73321461081c578063eb27feeb14610844578063eeb728661461086e57610219565b806396115bc2146106d85780639be446bf14610700578063a46efaf31461073c578063b64b673714610778578063c99d397f146107b457610219565b80638d4e4083116100f15780638d4e40831461061e5780639020429c1461064857806391a66a2614610670578063946be3ed146106985780639588eca2146106ae57610219565b80637a98660b146105665780638303bd8a146105a257806384f921cd146105cc5780638a9bf090146105f457610219565b80633e3aa6c5116101a557806354eccba41161017457806354eccba4146104605780636170ff1b1461048a5780636d70f7ae146104c6578063775526411461050257806377c7d7a91461052a57610219565b80633e3aa6c5146103c9578063439fab91146103fa5780634bb278f314610422578063507ee5281461043857610219565b806335befa5d116101ec57806335befa5d146102e95780633682a45014610313578063382d83e31461033b5780633d07b336146103655780633d8a5df81461038d57610219565b8063018cccdf1461021d57806301a01590146102475780632c9dd5c01461028357806333eeb147146102bf575b5f5ffd5b348015610228575f5ffd5b50610231610898565b60405161023e919061407e565b60405180910390f35b348015610252575f5ffd5b5061026d60048036038101906102689190614102565b6108dc565b60405161027a9190614147565b60405180910390f35b34801561028e575f5ffd5b506102a960048036038101906102a491906141eb565b6108ed565b6040516102b69190614260565b60405180910390f35b3480156102ca575f5ffd5b506102d36109e0565b6040516102e09190614147565b60405180910390f35b3480156102f4575f5ffd5b506102fd6109e7565b60405161030a9190614291565b60405180910390f35b34801561031e575f5ffd5b5061033960048036038101906103349190614102565b6109f9565b005b348015610346575f5ffd5b5061034f610ae4565b60405161035c919061407e565b60405180910390f35b348015610370575f5ffd5b5061038b600480360381019061038691906142aa565b610af6565b005b348015610398575f5ffd5b506103b360048036038101906103ae91906142d5565b610be9565b6040516103c09190614260565b60405180910390f35b6103e360048036038101906103de9190614346565b610c3c565b6040516103f19291906143b7565b60405180910390f35b348015610405575f5ffd5b50610420600480360381019061041b9190614433565b610dc0565b005b34801561042d575f5ffd5b50610436610fe1565b005b348015610443575f5ffd5b5061045e600480360381019061045991906144d3565b6110c2565b005b34801561046b575f5ffd5b50610474611221565b604051610481919061407e565b60405180910390f35b348015610495575f5ffd5b506104b060048036038101906104ab9190614551565b611230565b6040516104bd9190614260565b60405180910390f35b3480156104d1575f5ffd5b506104ec60048036038101906104e79190614102565b611418565b6040516104f99190614147565b60405180910390f35b34801561050d575f5ffd5b50610528600480360381019061052391906145d5565b611470565b005b348015610535575f5ffd5b50610550600480360381019061054b9190614670565b6115c6565b60405161055d919061407e565b60405180910390f35b348015610571575f5ffd5b5061058c60048036038101906105879190614551565b6115e6565b6040516105999190614260565b60405180910390f35b3480156105ad575f5ffd5b506105b66116d3565b6040516105c3919061407e565b60405180910390f35b3480156105d7575f5ffd5b506105f260048036038101906105ed9190614102565b6116fa565b005b3480156105ff575f5ffd5b50610608611706565b604051610615919061407e565b60405180910390f35b348015610629575f5ffd5b5061063261172d565b60405161063f9190614147565b60405180910390f35b348015610653575f5ffd5b5061066e600480360381019061066991906142aa565b611754565b005b34801561067b575f5ffd5b5061069660048036038101906106919190614102565b611847565b005b3480156106a3575f5ffd5b506106ac611853565b005b3480156106b9575f5ffd5b506106c261185d565b6040516106cf919061407e565b60405180910390f35b3480156106e3575f5ffd5b506106fe60048036038101906106f99190614102565b61186e565b005b34801561070b575f5ffd5b5061072660048036038101906107219190614670565b611959565b604051610733919061407e565b60405180910390f35b348015610747575f5ffd5b50610762600480360381019061075d9190614670565b611979565b60405161076f919061407e565b60405180910390f35b348015610783575f5ffd5b5061079e6004803603810190610799919061469b565b611999565b6040516107ab9190614260565b60405180910390f35b3480156107bf575f5ffd5b506107da60048036038101906107d591906142aa565b6119f2565b005b3480156107e7575f5ffd5b506107f0611a8e565b6040516107fd919061407e565b60405180910390f35b348015610811575f5ffd5b5061081a611ab5565b005b348015610827575f5ffd5b50610842600480360381019061083d91906142aa565b611abf565b005b34801561084f575f5ffd5b50610858611bb2565b604051610865919061407e565b60405180910390f35b348015610879575f5ffd5b50610882611bd9565b60405161088f91906147a1565b60405180910390f35b5f6108d76040518060400160405280602081526020017f535441524b4e45545f312e305f4d5347494e475f4c31544f4c325f4e4f4e4345815250611c16565b905090565b5f6108e682611c4b565b9050919050565b5f5f6108fb85338686610be9565b90505f610906611caa565b5f8381526020019081526020015f205411610956576040517f08c379a000000000000000000000000000000000000000000000000000000000815260040161094d9061480b565b60405180910390fd5b3373ffffffffffffffffffffffffffffffffffffffff16857f7a06c571aa77f34d9706c51e5d8122b5595aebeaa34233bfe866f22befb973b1868660405161099f9291906148a1565b60405180910390a360016109b1611caa565b5f8381526020019081526020015f205f8282546109ce91906148f0565b92505081905550809150509392505050565b5f5f905090565b5f6109f0611cd1565b60010154905090565b610a0233611c4b565b610a41576040517f08c379a0000000000000000000000000000000000000000000000000000000008152600401610a389061496d565b60405180910390fd5b610a4a81611418565b610ae1576001610a58611d1b565b5f8373ffffffffffffffffffffffffffffffffffffffff1673ffffffffffffffffffffffffffffffffffffffff1681526020019081526020015f205f6101000a81548160ff0219169083151502179055507f50a18c352ee1c02ffe058e15c2eb6e58be387c81e73cc1e17035286e54c19a5781604051610ad8919061499a565b60405180910390a15b50565b5f610aed611cd1565b60020154905090565b610afe61172d565b15610b3e576040517f08c379a0000000000000000000000000000000000000000000000000000000008152600401610b35906149fd565b60405180910390fd5b610b4733611c4b565b610b86576040517f08c379a0000000000000000000000000000000000000000000000000000000008152600401610b7d9061496d565b60405180910390fd5b3373ffffffffffffffffffffffffffffffffffffffff167f393c6beb5756a944b2967f15f31ff671e312e945d7a84fd3bdcfd6b408b2dc79610bc6611a8e565b83604051610bd5929190614a1b565b60405180910390a2610be681611d42565b50565b5f848473ffffffffffffffffffffffffffffffffffffffff16848490508585604051602001610c1c959493929190614ac7565b604051602081830303815290604052805190602001209050949350505050565b5f5f5f3411610c80576040517f08c379a0000000000000000000000000000000000000000000000000000000008152600401610c7790614b82565b60405180910390fd5b610c88611221565b341115610cca576040517f08c379a0000000000000000000000000000000000000000000000000000000008152600401610cc190614bea565b60405180910390fd5b5f610cd3610898565b9050610d206040518060400160405280602081526020017f535441524b4e45545f312e305f4d5347494e475f4c31544f4c325f4e4f4e4345815250600183610d1b9190614c08565b611d67565b85873373ffffffffffffffffffffffffffffffffffffffff167fdb80dd488acf86d17c747445b0eabb5d57c541d3bd7b6b87af987858e5066b2b88888634604051610d6e9493929190614c3b565b60405180910390a45f610d85338989898987611999565b9050600134610d949190614c08565b610d9c611d99565b5f8381526020019081526020015f2081905550808293509350505094509492505050565b3073ffffffffffffffffffffffffffffffffffffffff167f000000000000000000000000000000000000000000000000000000000000000073ffffffffffffffffffffffffffffffffffffffff1603610e4e576040517f08c379a0000000000000000000000000000000000000000000000000000000008152600401610e4590614cc3565b60405180910390fd5b5f610e57611dc0565b6020610e639190614ce1565b90505f602082610e739190614c08565b905080848490501015610ebb576040517f08c379a0000000000000000000000000000000000000000000000000000000008152600401610eb290614d6c565b60405180910390fd5b5f848484908492610ece93929190614d92565b810190610edb9190614e07565b9050365f86865f908792610ef193929190614d92565b91509150610eff8282611dc7565b365f888887908092610f1393929190614d92565b915091505f73ffffffffffffffffffffffffffffffffffffffff168573ffffffffffffffffffffffffffffffffffffffff1614610f6157610f55858383611dcb565b50505050505050610fdd565b610f69611f9b565b15610fb8575f8282905014610fb3576040517f08c379a0000000000000000000000000000000000000000000000000000000008152600401610faa90614e7c565b60405180910390fd5b610fd5565b610fc28282611fac565b610fcc828261205c565b610fd46120cd565b5b505050505050505b5050565b610fea33611c4b565b611029576040517f08c379a00000000000000000000000000000000000000000000000000000000081526004016110209061496d565b60405180910390fd5b61103161172d565b15611071576040517f08c379a0000000000000000000000000000000000000000000000000000000008152600401611068906149fd565b60405180910390fd5b6110946040518060600160405280603181526020016169de603191396001612153565b7f6823b073d48d6e3a7d385eeb601452d680e74bb46afe3255a7d778f3a9b1768160405160405180910390a1565b6110cb33611418565b61110a576040517f08c379a000000000000000000000000000000000000000000000000000000000815260040161110190614ee4565b60405180910390fd5b600a8484905011611150576040517f08c379a000000000000000000000000000000000000000000000000000000000815260040161114790614f4c565b60405180910390fd5b61116c848461115d611cd1565b6121859092919063ffffffff16565b60018484600881811061118257611181614f6a565b5b90506020020135146111c9576040517f08c379a00000000000000000000000000000000000000000000000000000000081526004016111c090614fe1565b60405180910390fd5b6111e68484600a9080926111df93929190614fff565b8484612243565b5f6111f185856128ee565b90506111fe858583612920565b61121a858561120b611cd1565b612cd29092919063ffffffff16565b5050505050565b5f670de0b6b3a7640000905090565b5f84863373ffffffffffffffffffffffffffffffffffffffff167f8abd2ec2e0a10c82f5b60ea00455fa96c41fd144f225fcc52b8d83d94f803ed887878760405161127d93929190615039565b60405180910390a45f611294338888888888611999565b90505f61129f611d99565b5f8381526020019081526020015f205490505f81036112f3576040517f08c379a00000000000000000000000000000000000000000000000000000000081526004016112ea906150b3565b60405180910390fd5b5f6112fc612d37565b5f8481526020019081526020015f205490505f8103611350576040517f08c379a000000000000000000000000000000000000000000000000000000000815260040161134790615141565b60405180910390fd5b5f6113596116d3565b826113649190614c08565b9050818110156113a9576040517f08c379a00000000000000000000000000000000000000000000000000000000081526004016113a0906151a9565b60405180910390fd5b804210156113ec576040517f08c379a00000000000000000000000000000000000000000000000000000000081526004016113e390615237565b60405180910390fd5b5f6113f5611d99565b5f8681526020019081526020015f20819055508394505050505095945050505050565b5f611421611d1b565b5f8373ffffffffffffffffffffffffffffffffffffffff1673ffffffffffffffffffffffffffffffffffffffff1681526020019081526020015f205f9054906101000a900460ff169050919050565b61147933611418565b6114b8576040517f08c379a00000000000000000000000000000000000000000000000000000000081526004016114af90614ee4565b60405180910390fd5b600a84849050116114fe576040517f08c379a00000000000000000000000000000000000000000000000000000000081526004016114f590614f4c565b60405180910390fd5b61151a848461150b611cd1565b6121859092919063ffffffff16565b5f8484600881811061152f5761152e614f6a565b5b9050602002013514611576576040517f08c379a000000000000000000000000000000000000000000000000000000000815260040161156d90614fe1565b60405180910390fd5b5f6115968585604051806040016040528087815260200186815250612d5e565b90506115a3858583612920565b6115bf85856115b0611cd1565b612cd29092919063ffffffff16565b5050505050565b5f6115cf611d99565b5f8381526020019081526020015f20549050919050565b5f84863373ffffffffffffffffffffffffffffffffffffffff167f2e00dccd686fd6823ec7dc3e125582aa82881b6ff5f6b5a73856e1ea8338a3be87878760405161163393929190615039565b60405180910390a45f61164a338888888888611999565b90505f611655611d99565b5f8381526020019081526020015f205490505f81116116a9576040517f08c379a00000000000000000000000000000000000000000000000000000000081526004016116a0906150b3565b60405180910390fd5b426116b2612d37565b5f8481526020019081526020015f2081905550819250505095945050505050565b5f6116f56040518060600160405280602d8152602001616947602d9139611c16565b905090565b61170381612dd2565b50565b5f61172860405180606001604052806023815260200161692460239139611c16565b905090565b5f61174f6040518060600160405280603181526020016169de60319139612f6b565b905090565b61175c61172d565b1561179c576040517f08c379a0000000000000000000000000000000000000000000000000000000008152600401611793906149fd565b60405180910390fd5b6117a533611c4b565b6117e4576040517f08c379a00000000000000000000000000000000000000000000000000000000081526004016117db9061496d565b60405180910390fd5b3373ffffffffffffffffffffffffffffffffffffffff167f07688623ef226ae0c2f88d3fdc7f6bb41427c804bcec3f36699b07148e3f5340611824611bb2565b83604051611833929190614a1b565b60405180910390a261184481612fa0565b50565b61185081612fc5565b50565b61185b6131dd565b565b5f611866611cd1565b5f0154905090565b61187733611c4b565b6118b6576040517f08c379a00000000000000000000000000000000000000000000000000000000081526004016118ad9061496d565b60405180910390fd5b6118bf81611418565b15611956575f6118cd611d1b565b5f8373ffffffffffffffffffffffffffffffffffffffff1673ffffffffffffffffffffffffffffffffffffffff1681526020019081526020015f205f6101000a81548160ff0219169083151502179055507fec5f6c3a91a1efb1f9a308bb33c6e9e66bf9090fad0732f127dfdbf516d0625d8160405161194d919061499a565b60405180910390a15b50565b5f611962612d37565b5f8381526020019081526020015f20549050919050565b5f611982611caa565b5f8381526020019081526020015f20549050919050565b5f8673ffffffffffffffffffffffffffffffffffffffff168683878787905088886040516020016119d09796959493929190615255565b6040516020818303038152906040528051906020012090509695505050505050565b6119fa61172d565b15611a3a576040517f08c379a0000000000000000000000000000000000000000000000000000000008152600401611a31906149fd565b60405180910390fd5b611a4333611c4b565b611a82576040517f08c379a0000000000000000000000000000000000000000000000000000000008152600401611a799061496d565b60405180910390fd5b611a8b816132c7565b50565b5f611ab060405180606001604052806021815260200161697460219139611c16565b905090565b611abd6132ec565b565b611ac761172d565b15611b07576040517f08c379a0000000000000000000000000000000000000000000000000000000008152600401611afe906149fd565b60405180910390fd5b611b1033611c4b565b611b4f576040517f08c379a0000000000000000000000000000000000000000000000000000000008152600401611b469061496d565b60405180910390fd5b3373ffffffffffffffffffffffffffffffffffffffff167f600a61c1b32ac42fb2fe76e8fc7582a98106668fc16dcd85567cd3937363e49b611b8f611706565b83604051611b9e929190614a1b565b60405180910390a2611baf81613407565b50565b5f611bd46040518060600160405280602e81526020016168f6602e9139611c16565b905090565b60606040518060400160405280601981526020017f537461726b576172655f537461726b6e65745f323032345f3900000000000000815250905090565b5f5f82604051602001611c2991906152fc565b6040516020818303038152906040528051906020012090508054915050919050565b5f5f611c5561342c565b9050805f015f8473ffffffffffffffffffffffffffffffffffffffff1673ffffffffffffffffffffffffffffffffffffffff1681526020019081526020015f205f9054906101000a900460ff16915050919050565b5f611ccc60405180606001604052806023815260200161699560239139613493565b905090565b5f5f6040518060600160405280602781526020016168cf60279139604051602001611cfc91906152fc565b6040516020818303038152906040528051906020012090508091505090565b5f611d3d604051806060016040528060288152602001616877602891396134c7565b905090565b611d646040518060600160405280602181526020016169746021913982611d67565b50565b5f82604051602001611d7991906152fc565b604051602081830303815290604052805190602001209050818155505050565b5f611dbb6040518060600160405280602681526020016169b860269139613493565b905090565b5f5f905090565b5050565b611dea8373ffffffffffffffffffffffffffffffffffffffff166134fb565b611e29576040517f08c379a0000000000000000000000000000000000000000000000000000000008152600401611e209061535c565b60405180910390fd5b5f5f8473ffffffffffffffffffffffffffffffffffffffff1663439fab9160e01b8585604051602401611e5d9291906153c4565b604051602081830303815290604052907bffffffffffffffffffffffffffffffffffffffffffffffffffffffff19166020820180517bffffffffffffffffffffffffffffffffffffffffffffffffffffffff8381831617835250505050604051611ec7919061542a565b5f60405180830381855af49150503d805f8114611eff576040519150601f19603f3d011682016040523d82523d5f602084013e611f04565b606091505b5091509150818190611f4c576040517f08c379a0000000000000000000000000000000000000000000000000000000008152600401611f4391906147a1565b60405180910390fd5b505f8151148190611f93576040517f08c379a0000000000000000000000000000000000000000000000000000000008152600401611f8a91906147a1565b60405180910390fd5b505050505050565b5f5f611fa5611706565b1415905090565b60e08282905014611ff2576040517f08c379a0000000000000000000000000000000000000000000000000000000008152600401611fe99061548a565b60405180910390fd5b5f82825f9060209261200693929190614d92565b81019061201391906142aa565b90505f8103612057576040517f08c379a000000000000000000000000000000000000000000000000000000000815260040161204e906154f2565b60405180910390fd5b505050565b5f5f5f5f5f86868101906120709190615617565b9450945094509450945061208385613407565b61208c84612fa0565b6120958361350c565b6120af816120a1611cd1565b61353190919063ffffffff16565b6120b882611d42565b6120c4620697806132c7565b50505050505050565b5f6120d661342c565b90508060010160149054906101000a900460ff161561212a576040517f08c379a0000000000000000000000000000000000000000000000000000000008152600401612121906156d8565b60405180910390fd5b60018160010160146101000a81548160ff0219169083151502179055506121503361355a565b50565b5f8260405160200161216591906152fc565b604051602081830303815290604052805190602001209050818155505050565b5f7fffffffffffffffffffffffffffffffffffffffffffffffffffffffffffffffff8460010154036121d9577f080000000000001100000000000000000000000000000000000000000000000090506121e1565b836001015490505b80838360028181106121f6576121f5614f6a565b5b905060200201351461223d576040517f08c379a000000000000000000000000000000000000000000000000000000000815260040161223490615740565b60405180910390fd5b50505050565b600284849050101561228a576040517f08c379a0000000000000000000000000000000000000000000000000000000008152600401612281906157a8565b60405180910390fd5b5f84845f81811061229e5761229d614f6a565b5b905060200201355f1b90505f858560018181106122be576122bd614f6a565b5b9050602002013590505f8160026122d59190614ce1565b60026122e19190614c08565b9050818585905014612328576040517f08c379a000000000000000000000000000000000000000000000000000000000815260040161231f90615810565b60405180910390fd5b8160026123359190614ce1565b816123409190614c08565b878790501015612385576040517f08c379a000000000000000000000000000000000000000000000000000000000815260040161237c906157a8565b60405180910390fd5b5f5f90505b828110156128e4575f814990505f5f1b81036123db576040517f08c379a00000000000000000000000000000000000000000000000000000000081526004016123d290615878565b60405180910390fd5b600160f81b7effffffffffffffffffffffffffffffffffffffffffffffffffffffffffffff1916815f6020811061241557612414614f6a565b5b1a60f81b7effffffffffffffffffffffffffffffffffffffffffffffffffffffffffffff19161461247b576040517f08c379a0000000000000000000000000000000000000000000000000000000008152600401612472906158e0565b60405180910390fd5b60605f8a8a85600261248d9190614ce1565b60026124999190614c08565b8181106124a9576124a8614f6a565b5b9050602002013590505f8b8b60018760026124c49190614ce1565b60026124d09190614c08565b6124da9190614c08565b8181106124ea576124e9614f6a565b5b90506020020135905077ffffffffffffffffffffffffffffffffffffffffffffffff8016821115612550576040517f08c379a000000000000000000000000000000000000000000000000000000000815260040161254790615948565b60405180910390fd5b77ffffffffffffffffffffffffffffffffffffffffffffffff80168111156125ad576040517f08c379a00000000000000000000000000000000000000000000000000000000081526004016125a490615948565b60405180910390fd5b80826040516020016125c09291906159bd565b604051602081830303815290604052925050505f5f8b8b8660026125e49190614ce1565b886125ef9190614c08565b8181106125ff576125fe614f6a565b5b9050602002013590505f8c8c600188600261261a9190614ce1565b8a6126259190614c08565b61262f9190614c08565b81811061263f5761263e614f6a565b5b9050602002013590506fffffffffffffffffffffffffffffffff801682111561269d576040517f08c379a000000000000000000000000000000000000000000000000000000000815260040161269490615a32565b60405180910390fd5b6fffffffffffffffffffffffffffffffff80168111156126f2576040517f08c379a00000000000000000000000000000000000000000000000000000000081526004016126e990615a32565b60405180910390fd5b81608082901b6127029190614c08565b5f1b92505050603089898681811061271d5761271c614f6a565b5b905060200281019061272f9190615a5c565b905014612771576040517f08c379a000000000000000000000000000000000000000000000000000000000815260040161276890615b08565b60405180910390fd5b5f5f600a73ffffffffffffffffffffffffffffffffffffffff16858a85878f8f8c8181106127a2576127a1614f6a565b5b90506020028101906127b49190615a5c565b6040516020016127c996959493929190615b6a565b6040516020818303038152906040526040516127e5919061542a565b5f60405180830381855afa9150503d805f811461281d576040519150601f19603f3d011682016040523d82523d5f602084013e612822565b606091505b509150915081612867576040517f08c379a000000000000000000000000000000000000000000000000000000000815260040161285e90615c32565b60405180910390fd5b7fb2157d3a40131b14c4c675335465dffde802f0ce5218ad012284d7f275d1b37c5f1b8180519060200120146128d2576040517f08c379a00000000000000000000000000000000000000000000000000000000081526004016128c990615cc0565b60405180910390fd5b5050505050808060010191505061238a565b5050505050505050565b5f8282604051602001612902929190615cde565b60405160208183030381529060405280519060200120905092915050565b61292a838361363f565b612932611a8e565b8383600781811061294657612945614f6a565b5b905060200201351461298d576040517f08c379a000000000000000000000000000000000000000000000000000000000815260040161298490615d40565b60405180910390fd5b5f838360098181106129a2576129a1614f6a565b5b90506020020135146129e9576040517f08c379a00000000000000000000000000000000000000000000000000000000081526004016129e090615da8565b60405180910390fd5b5f5f848460068181106129ff576129fe614f6a565b5b9050602002013514612a7d57612a13611706565b84846006818110612a2757612a26614f6a565b5b9050602002013514612a6e576040517f08c379a0000000000000000000000000000000000000000000000000000000008152600401612a6590615e36565b60405180910390fd5b612a76611bb2565b9050612a88565b612a85611706565b90505b5f8183604051602001612a9c929190615e54565b604051602081830303815290604052805190602001209050612abc6136d8565b73ffffffffffffffffffffffffffffffffffffffff16636a938567826040518263ffffffff1660e01b8152600401612af49190614260565b602060405180830381865afa158015612b0f573d5f5f3e3d5ffd5b505050506040513d601f19601f82011682018060405250810190612b339190615ea5565b612b72576040517f08c379a0000000000000000000000000000000000000000000000000000000008152600401612b6990615f1a565b60405180910390fd5b7f9866f8ddfe70bb512b2f2b28b49d4017c43f7ba775f1a20c61c13eea8cdac11183604051612ba19190614260565b60405180910390a1612bc58585612bb6611cd1565b6136ff9092919063ffffffff16565b5f612bd08686613871565b9050612bf66001878784908092612be993929190614fff565b612bf1611caa565b613917565b81612c019190614c08565b9050612c265f878784908092612c1993929190614fff565b612c21611d99565b613917565b81612c319190614c08565b9050858590508114612c78576040517f08c379a0000000000000000000000000000000000000000000000000000000008152600401612c6f90615f82565b60405180910390fd5b5f612c81611cd1565b90507fd342ddf7a308dec111745b00315c14b7efb2bdae570a6856e088ed0c65a3576c815f015482600101548360020154604051612cc193929190615fa0565b60405180910390a150505050505050565b81816003818110612ce657612ce5614f6a565b5b90506020020135836001015414612d32576040517f08c379a0000000000000000000000000000000000000000000000000000000008152600401612d299061601f565b60405180910390fd5b505050565b5f612d5960405180606001604052806030815260200161689f60309139613493565b905090565b5f5f8484905090505f612d7186866128ee565b90505f8183865f0151876020015186612d8a9190614c08565b604051602001612d9d949392919061603d565b6040516020818303038152906040528051906020012090506001815f1c612dc49190614c08565b5f1b93505050509392505050565b612ddb33611c4b565b612e1a576040517f08c379a0000000000000000000000000000000000000000000000000000000008152600401612e119061496d565b60405180910390fd5b8073ffffffffffffffffffffffffffffffffffffffff163373ffffffffffffffffffffffffffffffffffffffff1603612e88576040517f08c379a0000000000000000000000000000000000000000000000000000000008152600401612e7f906160d4565b60405180910390fd5b5f612e9161342c565b9050612e9c82611c4b565b612edb576040517f08c379a0000000000000000000000000000000000000000000000000000000008152600401612ed29061613c565b60405180910390fd5b5f815f015f8473ffffffffffffffffffffffffffffffffffffffff1673ffffffffffffffffffffffffffffffffffffffff1681526020019081526020015f205f6101000a81548160ff0219169083151502179055507fd75f94825e770b8b512be8e74759e252ad00e102e38f50cce2f7c6f868a2959982604051612f5f919061499a565b60405180910390a15050565b5f5f82604051602001612f7e91906152fc565b6040516020818303038152906040528051906020012090508054915050919050565b612fc26040518060600160405280602e81526020016168f6602e913982611d67565b50565b612fce33611c4b565b61300d576040517f08c379a00000000000000000000000000000000000000000000000000000000081526004016130049061496d565b60405180910390fd5b5f61301661342c565b90505f73ffffffffffffffffffffffffffffffffffffffff168273ffffffffffffffffffffffffffffffffffffffff1603613086576040517f08c379a000000000000000000000000000000000000000000000000000000000815260040161307d906161a4565b60405180910390fd5b61308f82611c4b565b156130cf576040517f08c379a00000000000000000000000000000000000000000000000000000000081526004016130c69061620c565b60405180910390fd5b5f73ffffffffffffffffffffffffffffffffffffffff16816001015f9054906101000a900473ffffffffffffffffffffffffffffffffffffffff1673ffffffffffffffffffffffffffffffffffffffff1614613160576040517f08c379a000000000000000000000000000000000000000000000000000000000815260040161315790616274565b60405180910390fd5b81816001015f6101000a81548173ffffffffffffffffffffffffffffffffffffffff021916908373ffffffffffffffffffffffffffffffffffffffff1602179055507f6166272c8d3f5f579082f2827532732f97195007983bb5b83ac12c56700b01a6826040516131d1919061499a565b60405180910390a15050565b5f6131e661342c565b9050806001015f9054906101000a900473ffffffffffffffffffffffffffffffffffffffff1673ffffffffffffffffffffffffffffffffffffffff163373ffffffffffffffffffffffffffffffffffffffff1614613279576040517f08c379a0000000000000000000000000000000000000000000000000000000008152600401613270906162dc565b60405180910390fd5b6132823361355a565b5f816001015f6101000a81548173ffffffffffffffffffffffffffffffffffffffff021916908373ffffffffffffffffffffffffffffffffffffffff16021790555050565b6132e96040518060600160405280602d8152602001616947602d913982611d67565b50565b6132f533611c4b565b613334576040517f08c379a000000000000000000000000000000000000000000000000000000000815260040161332b9061496d565b60405180910390fd5b5f61333d61342c565b90505f73ffffffffffffffffffffffffffffffffffffffff16816001015f9054906101000a900473ffffffffffffffffffffffffffffffffffffffff1673ffffffffffffffffffffffffffffffffffffffff1614613404575f816001015f6101000a81548173ffffffffffffffffffffffffffffffffffffffff021916908373ffffffffffffffffffffffffffffffffffffffff1602179055507f7a8dc7dd7fffb43c4807438fa62729225156941e641fd877938f4edade3429f560405160405180910390a15b50565b6134296040518060600160405280602381526020016169246023913982611d67565b50565b5f5f6040518060400160405280601c81526020017f535441524b4e45545f312e305f474f5645524e414e43455f494e464f0000000081525060405160200161347491906152fc565b6040516020818303038152906040528051906020012090508091505090565b5f5f826040516020016134a691906152fc565b60405160208183030381529060405280519060200120905080915050919050565b5f5f826040516020016134da91906152fc565b60405160208183030381529060405280519060200120905080915050919050565b5f5f823b90505f8111915050919050565b61352e6040518060600160405280602281526020016168556022913982613f09565b50565b805f0151825f018190555080602001518260010181905550806040015182600201819055505050565b61356381611c4b565b156135a3576040517f08c379a000000000000000000000000000000000000000000000000000000000815260040161359a9061620c565b60405180910390fd5b5f6135ac61342c565b90506001815f015f8473ffffffffffffffffffffffffffffffffffffffff1673ffffffffffffffffffffffffffffffffffffffff1681526020019081526020015f205f6101000a81548160ff0219169083151502179055507fcfb473e6c03f9a29ddaf990e736fa3de5188a0bd85d684f5b6e164ebfbfff5d282604051613633919061499a565b60405180910390a15050565b5f600190507f0800000000000011000000000000000000000000000000000000000000000001602083028401845b818110156136905782813510613685575f9350613690565b60208101905061366d565b505050806136d3576040517f08c379a00000000000000000000000000000000000000000000000000000000081526004016136ca9061636a565b60405180910390fd5b505050565b5f6136fa60405180606001604052806022815260200161685560229139613f8d565b905090565b61370a838383612185565b5f8282600381811061371f5761371e614f6a565b5b9050602002013590508360010154811361376e576040517f08c379a0000000000000000000000000000000000000000000000000000000008152600401613765906163d2565b60405180910390fd5b8084600101819055508360020154838360048181106137905761378f614f6a565b5b90506020020135146137d7576040517f08c379a00000000000000000000000000000000000000000000000000000000081526004016137ce9061643a565b60405180910390fd5b828260058181106137eb576137ea614f6a565b5b905060200201358460020181905550365f6138068585613fc2565b915091506138148282613fed565b865f015414613858576040517f08c379a000000000000000000000000000000000000000000000000000000000815260040161384f906164a2565b60405180910390fd5b6138628282614010565b865f0181905550505050505050565b5f5f8383600881811061388757613886614f6a565b5b905060200201350361389c57600a9050613911565b5f83836001600a6138ad9190614c08565b8181106138bd576138bc614f6a565b5b9050602002013590508060026138d39190614ce1565b8160026138e09190614ce1565b600180600a6138ef9190614c08565b6138f99190614c08565b6139039190614c08565b61390d9190614c08565b9150505b92915050565b5f5f84845f81811061392c5761392b614f6a565b5b9050602002013590506340000000811061397b576040517f08c379a00000000000000000000000000000000000000000000000000000000081526004016139729061650a565b60405180910390fd5b5f600190505f828261398d9190614c08565b90505f8861399c57600461399f565b60025b90505f5f90505b82841015613e05575f82856139bb9190614c08565b9050898990508110613a02576040517f08c379a00000000000000000000000000000000000000000000000000000000081526004016139f990616572565b60405180910390fd5b5f8a8a83818110613a1657613a15614f6a565b5b90506020020135905063400000008110613a65576040517f08c379a0000000000000000000000000000000000000000000000000000000008152600401613a5c906165da565b60405180910390fd5b5f81600184613a749190614c08565b613a7e9190614c08565b90508b8b9050811115613ac6576040517f08c379a0000000000000000000000000000000000000000000000000000000008152600401613abd90616642565b60405180910390fd5b8c15613beb575f8c8c89908492613adf93929190614fff565b604051602001613af0929190616660565b6040516020818303038152906040528051906020012090508c8c60018a613b179190614c08565b818110613b2757613b26614f6a565b5b9050602002013573ffffffffffffffffffffffffffffffffffffffff168d8d5f8b613b529190614c08565b818110613b6257613b61614f6a565b5b905060200201357f4264ac208b5fde633ccdd42e0f12c3d6d443a4f3779bbf886925b94665b63a228f8f60038d613b999190614c08565b908792613ba893929190614fff565b604051613bb69291906148a1565b60405180910390a360018b5f8381526020019081526020015f205f828254613bde9190614c08565b9250508190555050613dfa565b5f8c8c89908492613bfe93929190614fff565b604051602001613c0f929190616660565b6040516020818303038152906040528051906020012090505f8b5f8381526020019081526020015f205490505f8111613c7d576040517f08c379a0000000000000000000000000000000000000000000000000000000008152600401613c749061480b565b60405180910390fd5b600181613c8a91906148f0565b86613c959190614c08565b95505f8c5f8481526020019081526020015f208190555050505f8c8c60028a613cbe9190614c08565b818110613cce57613ccd614f6a565b5b9050602002013590505f8d8d60058b613ce79190614c08565b908592613cf693929190614fff565b808060200260200160405190810160405280939291908181526020018383602002808284375f81840152601f19601f8201169050808301925050505050505090508d8d60038b613d469190614c08565b818110613d5657613d55614f6a565b5b905060200201358e8e60018c613d6c9190614c08565b818110613d7c57613d7b614f6a565b5b905060200201358f8f5f8d613d919190614c08565b818110613da157613da0614f6a565b5b9050602002013573ffffffffffffffffffffffffffffffffffffffff167f9592d37825c744e33fa80c469683bbd04d336241bb600b574758efd182abe26a8486604051613def92919061671f565b60405180910390a450505b8096505050506139a6565b828414613e47576040517f08c379a0000000000000000000000000000000000000000000000000000000008152600401613e3e9061650a565b60405180910390fd5b5f811115613ef9575f3373ffffffffffffffffffffffffffffffffffffffff1682604051613e7490616770565b5f6040518083038185875af1925050503d805f8114613eae576040519150601f19603f3d011682016040523d82523d5f602084013e613eb3565b606091505b5050905080613ef7576040517f08c379a0000000000000000000000000000000000000000000000000000000008152600401613eee906167ce565b60405180910390fd5b505b8395505050505050949350505050565b5f73ffffffffffffffffffffffffffffffffffffffff16613f2983613f8d565b73ffffffffffffffffffffffffffffffffffffffff1614613f7f576040517f08c379a0000000000000000000000000000000000000000000000000000000008152600401613f7690616836565b60405180910390fd5b613f898282614034565b5050565b5f5f82604051602001613fa091906152fc565b6040516020818303038152906040528051906020012090508054915050919050565b365f83835f9060025f613fd59190614c08565b92613fe293929190614fff565b915091509250929050565b5f82825f81811061400157614000614f6a565b5b90506020020135905092915050565b5f8282600181811061402557614024614f6a565b5b90506020020135905092915050565b5f8260405160200161404691906152fc565b604051602081830303815290604052805190602001209050818155505050565b5f819050919050565b61407881614066565b82525050565b5f6020820190506140915f83018461406f565b92915050565b5f604051905090565b5f5ffd5b5f5ffd5b5f73ffffffffffffffffffffffffffffffffffffffff82169050919050565b5f6140d1826140a8565b9050919050565b6140e1816140c7565b81146140eb575f5ffd5b50565b5f813590506140fc816140d8565b92915050565b5f60208284031215614117576141166140a0565b5b5f614124848285016140ee565b91505092915050565b5f8115159050919050565b6141418161412d565b82525050565b5f60208201905061415a5f830184614138565b92915050565b61416981614066565b8114614173575f5ffd5b50565b5f8135905061418481614160565b92915050565b5f5ffd5b5f5ffd5b5f5ffd5b5f5f83601f8401126141ab576141aa61418a565b5b8235905067ffffffffffffffff8111156141c8576141c761418e565b5b6020830191508360208202830111156141e4576141e3614192565b5b9250929050565b5f5f5f60408486031215614202576142016140a0565b5b5f61420f86828701614176565b935050602084013567ffffffffffffffff8111156142305761422f6140a4565b5b61423c86828701614196565b92509250509250925092565b5f819050919050565b61425a81614248565b82525050565b5f6020820190506142735f830184614251565b92915050565b5f819050919050565b61428b81614279565b82525050565b5f6020820190506142a45f830184614282565b92915050565b5f602082840312156142bf576142be6140a0565b5b5f6142cc84828501614176565b91505092915050565b5f5f5f5f606085870312156142ed576142ec6140a0565b5b5f6142fa87828801614176565b945050602061430b878288016140ee565b935050604085013567ffffffffffffffff81111561432c5761432b6140a4565b5b61433887828801614196565b925092505092959194509250565b5f5f5f5f6060858703121561435e5761435d6140a0565b5b5f61436b87828801614176565b945050602061437c87828801614176565b935050604085013567ffffffffffffffff81111561439d5761439c6140a4565b5b6143a987828801614196565b925092505092959194509250565b5f6040820190506143ca5f830185614251565b6143d7602083018461406f565b9392505050565b5f5f83601f8401126143f3576143f261418a565b5b8235905067ffffffffffffffff8111156144105761440f61418e565b5b60208301915083600182028301111561442c5761442b614192565b5b9250929050565b5f5f60208385031215614449576144486140a0565b5b5f83013567ffffffffffffffff811115614466576144656140a4565b5b614472858286016143de565b92509250509250929050565b5f5f83601f8401126144935761449261418a565b5b8235905067ffffffffffffffff8111156144b0576144af61418e565b5b6020830191508360208202830111156144cc576144cb614192565b5b9250929050565b5f5f5f5f604085870312156144eb576144ea6140a0565b5b5f85013567ffffffffffffffff811115614508576145076140a4565b5b61451487828801614196565b9450945050602085013567ffffffffffffffff811115614537576145366140a4565b5b6145438782880161447e565b925092505092959194509250565b5f5f5f5f5f6080868803121561456a576145696140a0565b5b5f61457788828901614176565b955050602061458888828901614176565b945050604086013567ffffffffffffffff8111156145a9576145a86140a4565b5b6145b588828901614196565b935093505060606145c888828901614176565b9150509295509295909350565b5f5f5f5f606085870312156145ed576145ec6140a0565b5b5f85013567ffffffffffffffff81111561460a576146096140a4565b5b61461687828801614196565b9450945050602061462987828801614176565b925050604061463a87828801614176565b91505092959194509250565b61464f81614248565b8114614659575f5ffd5b50565b5f8135905061466a81614646565b92915050565b5f60208284031215614685576146846140a0565b5b5f6146928482850161465c565b91505092915050565b5f5f5f5f5f5f60a087890312156146b5576146b46140a0565b5b5f6146c289828a016140ee565b96505060206146d389828a01614176565b95505060406146e489828a01614176565b945050606087013567ffffffffffffffff811115614705576147046140a4565b5b61471189828a01614196565b9350935050608061472489828a01614176565b9150509295509295509295565b5f81519050919050565b5f82825260208201905092915050565b8281835e5f83830152505050565b5f601f19601f8301169050919050565b5f61477382614731565b61477d818561473b565b935061478d81856020860161474b565b61479681614759565b840191505092915050565b5f6020820190508181035f8301526147b98184614769565b905092915050565b7f494e56414c49445f4d4553534147455f544f5f434f4e53554d450000000000005f82015250565b5f6147f5601a8361473b565b9150614800826147c1565b602082019050919050565b5f6020820190508181035f830152614822816147e9565b9050919050565b5f82825260208201905092915050565b5f5ffd5b82818337505050565b5f6148518385614829565b93507f07ffffffffffffffffffffffffffffffffffffffffffffffffffffffffffffff83111561488457614883614839565b5b60208302925061489583858461483d565b82840190509392505050565b5f6020820190508181035f8301526148ba818486614846565b90509392505050565b7f4e487b71000000000000000000000000000000000000000000000000000000005f52601160045260245ffd5b5f6148fa82614066565b915061490583614066565b925082820390508181111561491d5761491c6148c3565b5b92915050565b7f4f4e4c595f474f5645524e414e434500000000000000000000000000000000005f82015250565b5f614957600f8361473b565b915061496282614923565b602082019050919050565b5f6020820190508181035f8301526149848161494b565b9050919050565b614994816140c7565b82525050565b5f6020820190506149ad5f83018461498b565b92915050565b7f46494e414c495a454400000000000000000000000000000000000000000000005f82015250565b5f6149e760098361473b565b91506149f2826149b3565b602082019050919050565b5f6020820190508181035f830152614a14816149db565b9050919050565b5f604082019050614a2e5f83018561406f565b614a3b602083018461406f565b9392505050565b5f819050919050565b614a5c614a5782614066565b614a42565b82525050565b5f81905092915050565b5f614a778385614a62565b93507f07ffffffffffffffffffffffffffffffffffffffffffffffffffffffffffffff831115614aaa57614aa9614839565b5b602083029250614abb83858461483d565b82840190509392505050565b5f614ad28288614a4b565b602082019150614ae28287614a4b565b602082019150614af28286614a4b565b602082019150614b03828486614a6c565b91508190509695505050505050565b7f4c315f4d53475f4645455f4d5553545f42455f475245415445525f5448414e5f5f8201527f3000000000000000000000000000000000000000000000000000000000000000602082015250565b5f614b6c60218361473b565b9150614b7782614b12565b604082019050919050565b5f6020820190508181035f830152614b9981614b60565b9050919050565b7f4d41585f4c315f4d53475f4645455f45584345454445440000000000000000005f82015250565b5f614bd460178361473b565b9150614bdf82614ba0565b602082019050919050565b5f6020820190508181035f830152614c0181614bc8565b9050919050565b5f614c1282614066565b9150614c1d83614066565b9250828201905080821115614c3557614c346148c3565b5b92915050565b5f6060820190508181035f830152614c54818688614846565b9050614c63602083018561406f565b614c70604083018461406f565b95945050505050565b7f4449524543545f43414c4c5f444953414c4c4f574544000000000000000000005f82015250565b5f614cad60168361473b565b9150614cb882614c79565b602082019050919050565b5f6020820190508181035f830152614cda81614ca1565b9050919050565b5f614ceb82614066565b9150614cf683614066565b9250828202614d0481614066565b91508282048414831517614d1b57614d1a6148c3565b5b5092915050565b7f494e49545f444154415f544f4f5f534d414c4c000000000000000000000000005f82015250565b5f614d5660138361473b565b9150614d6182614d22565b602082019050919050565b5f6020820190508181035f830152614d8381614d4a565b9050919050565b5f5ffd5b5f5ffd5b5f5f85851115614da557614da4614d8a565b5b83861115614db657614db5614d8e565b5b6001850283019150848603905094509492505050565b5f614dd6826140a8565b9050919050565b614de681614dcc565b8114614df0575f5ffd5b50565b5f81359050614e0181614ddd565b92915050565b5f60208284031215614e1c57614e1b6140a0565b5b5f614e2984828501614df3565b91505092915050565b7f554e45585045435445445f494e49545f444154410000000000000000000000005f82015250565b5f614e6660148361473b565b9150614e7182614e32565b602082019050919050565b5f6020820190508181035f830152614e9381614e5a565b9050919050565b7f4f4e4c595f4f50455241544f52000000000000000000000000000000000000005f82015250565b5f614ece600d8361473b565b9150614ed982614e9a565b602082019050919050565b5f6020820190508181035f830152614efb81614ec2565b9050919050565b7f535441524b4e45545f4f55545055545f544f4f5f53484f5254000000000000005f82015250565b5f614f3660198361473b565b9150614f4182614f02565b602082019050919050565b5f6020820190508181035f830152614f6381614f2a565b9050919050565b7f4e487b71000000000000000000000000000000000000000000000000000000005f52603260045260245ffd5b7f554e45585045435445445f4b5a475f44415f464c4147000000000000000000005f82015250565b5f614fcb60168361473b565b9150614fd682614f97565b602082019050919050565b5f6020820190508181035f830152614ff881614fbf565b9050919050565b5f5f8585111561501257615011614d8a565b5b8386111561502357615022614d8e565b5b6020850283019150848603905094509492505050565b5f6040820190508181035f830152615052818587614846565b9050615061602083018461406f565b949350505050565b7f4e4f5f4d4553534147455f544f5f43414e43454c0000000000000000000000005f82015250565b5f61509d60148361473b565b91506150a882615069565b602082019050919050565b5f6020820190508181035f8301526150ca81615091565b9050919050565b7f4d4553534147455f43414e43454c4c4154494f4e5f4e4f545f524551554553545f8201527f4544000000000000000000000000000000000000000000000000000000000000602082015250565b5f61512b60228361473b565b9150615136826150d1565b604082019050919050565b5f6020820190508181035f8301526151588161511f565b9050919050565b7f43414e43454c5f414c4c4f5745445f54494d455f4f564552464c4f57000000005f82015250565b5f615193601c8361473b565b915061519e8261515f565b602082019050919050565b5f6020820190508181035f8301526151c081615187565b9050919050565b7f4d4553534147455f43414e43454c4c4154494f4e5f4e4f545f414c4c4f5745445f8201527f5f59455400000000000000000000000000000000000000000000000000000000602082015250565b5f61522160248361473b565b915061522c826151c7565b604082019050919050565b5f6020820190508181035f83015261524e81615215565b9050919050565b5f615260828a614a4b565b6020820191506152708289614a4b565b6020820191506152808288614a4b565b6020820191506152908287614a4b565b6020820191506152a08286614a4b565b6020820191506152b1828486614a6c565b915081905098975050505050505050565b5f81905092915050565b5f6152d682614731565b6152e081856152c2565b93506152f081856020860161474b565b80840191505092915050565b5f61530782846152cc565b915081905092915050565b7f4549435f4e4f545f415f434f4e545241435400000000000000000000000000005f82015250565b5f61534660128361473b565b915061535182615312565b602082019050919050565b5f6020820190508181035f8301526153738161533a565b9050919050565b5f82825260208201905092915050565b828183375f83830152505050565b5f6153a3838561537a565b93506153b083858461538a565b6153b983614759565b840190509392505050565b5f6020820190508181035f8301526153dd818486615398565b90509392505050565b5f81519050919050565b5f81905092915050565b5f615404826153e6565b61540e81856153f0565b935061541e81856020860161474b565b80840191505092915050565b5f61543582846153fa565b915081905092915050565b7f494c4c4547414c5f494e49545f444154415f53495a45000000000000000000005f82015250565b5f61547460168361473b565b915061547f82615440565b602082019050919050565b5f6020820190508181035f8301526154a181615468565b9050919050565b7f4241445f494e495449414c495a4154494f4e00000000000000000000000000005f82015250565b5f6154dc60128361473b565b91506154e7826154a8565b602082019050919050565b5f6020820190508181035f830152615509816154d0565b9050919050565b5f5ffd5b7f4e487b71000000000000000000000000000000000000000000000000000000005f52604160045260245ffd5b61554a82614759565b810181811067ffffffffffffffff8211171561556957615568615514565b5b80604052505050565b5f61557b614097565b90506155878282615541565b919050565b61559581614279565b811461559f575f5ffd5b50565b5f813590506155b08161558c565b92915050565b5f606082840312156155cb576155ca615510565b5b6155d56060615572565b90505f6155e484828501614176565b5f8301525060206155f7848285016155a2565b602083015250604061560b84828501614176565b60408301525092915050565b5f5f5f5f5f60e086880312156156305761562f6140a0565b5b5f61563d88828901614176565b955050602061564e88828901614176565b945050604061565f88828901614df3565b935050606061567088828901614176565b9250506080615681888289016155b6565b9150509295509295909350565b7f414c52454144595f494e495449414c495a4544000000000000000000000000005f82015250565b5f6156c260138361473b565b91506156cd8261568e565b602082019050919050565b5f6020820190508181035f8301526156ef816156b6565b9050919050565b7f494e56414c49445f505245565f424c4f434b5f4e554d424552000000000000005f82015250565b5f61572a60198361473b565b9150615735826156f6565b602082019050919050565b5f6020820190508181035f8301526157578161571e565b9050919050565b7f4b5a475f5345474d454e545f544f4f5f53484f525400000000000000000000005f82015250565b5f61579260158361473b565b915061579d8261575e565b602082019050919050565b5f6020820190508181035f8301526157bf81615786565b9050919050565b7f494e56414c49445f4e554d4245525f4f465f4b5a475f50524f4f4653000000005f82015250565b5f6157fa601c8361473b565b9150615805826157c6565b602082019050919050565b5f6020820190508181035f830152615827816157ee565b9050919050565b7f494e56414c49445f424c4f425f494e44455800000000000000000000000000005f82015250565b5f61586260128361473b565b915061586d8261582e565b602082019050919050565b5f6020820190508181035f83015261588f81615856565b9050919050565b7f554e45585045435445445f424c4f425f484153485f56455253494f4e000000005f82015250565b5f6158ca601c8361473b565b91506158d582615896565b602082019050919050565b5f6020820190508181035f8301526158f7816158be565b9050919050565b7f494e56414c49445f4b5a475f434f4d4d49544d454e54000000000000000000005f82015250565b5f61593260168361473b565b915061593d826158fe565b602082019050919050565b5f6020820190508181035f83015261595f81615926565b9050919050565b5f77ffffffffffffffffffffffffffffffffffffffffffffffff82169050919050565b5f8160401b9050919050565b5f61599f82615989565b9050919050565b6159b76159b282615966565b615995565b82525050565b5f6159c882856159a6565b6018820191506159d882846159a6565b6018820191508190509392505050565b7f494e56414c49445f595f56414c554500000000000000000000000000000000005f82015250565b5f615a1c600f8361473b565b9150615a27826159e8565b602082019050919050565b5f6020820190508181035f830152615a4981615a10565b9050919050565b5f5ffd5b5f5ffd5b5f5ffd5b5f5f83356001602003843603038112615a7857615a77615a50565b5b80840192508235915067ffffffffffffffff821115615a9a57615a99615a54565b5b602083019250600182023603831315615ab657615ab5615a58565b5b509250929050565b7f494e56414c49445f4b5a475f50524f4f465f53495a45000000000000000000005f82015250565b5f615af260168361473b565b9150615afd82615abe565b602082019050919050565b5f6020820190508181035f830152615b1f81615ae6565b9050919050565b5f819050919050565b615b40615b3b82614248565b615b26565b82525050565b5f615b5183856153f0565b9350615b5e83858461538a565b82840190509392505050565b5f615b758289615b2f565b602082019150615b858288615b2f565b602082019150615b958287615b2f565b602082019150615ba582866153fa565b9150615bb2828486615b46565b9150819050979650505050505050565b7f504f494e545f4556414c554154494f4e5f505245434f4d50494c455f43414c4c5f8201527f5f4641494c454400000000000000000000000000000000000000000000000000602082015250565b5f615c1c60278361473b565b9150615c2782615bc2565b604082019050919050565b5f6020820190508181035f830152615c4981615c10565b9050919050565b7f554e45585045435445445f504f494e545f4556414c554154494f4e5f505245435f8201527f4f4d50494c455f4f555450555400000000000000000000000000000000000000602082015250565b5f615caa602d8361473b565b9150615cb582615c50565b604082019050919050565b5f6020820190508181035f830152615cd781615c9e565b9050919050565b5f615cea828486614a6c565b91508190509392505050565b7f494e56414c49445f434f4e4649475f48415348000000000000000000000000005f82015250565b5f615d2a60138361473b565b9150615d3582615cf6565b602082019050919050565b5f6020820190508181035f830152615d5781615d1e565b9050919050565b7f46554c4c5f4f55545055545f4e4f545f535550504f52544544000000000000005f82015250565b5f615d9260198361473b565b9150615d9d82615d5e565b602082019050919050565b5f6020820190508181035f830152615dbf81615d86565b9050919050565b7f41474752454741544f525f4d4f44455f494e56414c49445f4f535f50524f47525f8201527f414d5f4841534800000000000000000000000000000000000000000000000000602082015250565b5f615e2060278361473b565b9150615e2b82615dc6565b604082019050919050565b5f6020820190508181035f830152615e4d81615e14565b9050919050565b5f604082019050615e675f83018561406f565b615e746020830184614251565b9392505050565b615e848161412d565b8114615e8e575f5ffd5b50565b5f81519050615e9f81615e7b565b92915050565b5f60208284031215615eba57615eb96140a0565b5b5f615ec784828501615e91565b91505092915050565b7f4e4f5f53544154455f5452414e534954494f4e5f50524f4f46000000000000005f82015250565b5f615f0460198361473b565b9150615f0f82615ed0565b602082019050919050565b5f6020820190508181035f830152615f3181615ef8565b9050919050565b7f535441524b4e45545f4f55545055545f544f4f5f4c4f4e4700000000000000005f82015250565b5f615f6c60188361473b565b9150615f7782615f38565b602082019050919050565b5f6020820190508181035f830152615f9981615f60565b9050919050565b5f606082019050615fb35f83018661406f565b615fc06020830185614282565b615fcd604083018461406f565b949350505050565b7f5245454e5452414e43595f4641494c55524500000000000000000000000000005f82015250565b5f61600960128361473b565b915061601482615fd5565b602082019050919050565b5f6020820190508181035f83015261603681615ffd565b9050919050565b5f6160488287615b2f565b6020820191506160588286614a4b565b6020820191506160688285614a4b565b6020820191506160788284614a4b565b60208201915081905095945050505050565b7f474f5645524e4f525f53454c465f52454d4f56450000000000000000000000005f82015250565b5f6160be60148361473b565b91506160c98261608a565b602082019050919050565b5f6020820190508181035f8301526160eb816160b2565b9050919050565b7f4e4f545f474f5645524e4f5200000000000000000000000000000000000000005f82015250565b5f616126600c8361473b565b9150616131826160f2565b602082019050919050565b5f6020820190508181035f8301526161538161611a565b9050919050565b7f4241445f414444524553530000000000000000000000000000000000000000005f82015250565b5f61618e600b8361473b565b91506161998261615a565b602082019050919050565b5f6020820190508181035f8301526161bb81616182565b9050919050565b7f414c52454144595f474f5645524e4f52000000000000000000000000000000005f82015250565b5f6161f660108361473b565b9150616201826161c2565b602082019050919050565b5f6020820190508181035f830152616223816161ea565b9050919050565b7f4f544845525f43414e4449444154455f50454e44494e470000000000000000005f82015250565b5f61625e60178361473b565b91506162698261622a565b602082019050919050565b5f6020820190508181035f83015261628b81616252565b9050919050565b7f4f4e4c595f43414e4449444154455f474f5645524e4f520000000000000000005f82015250565b5f6162c660178361473b565b91506162d182616292565b602082019050919050565b5f6020820190508181035f8301526162f3816162ba565b9050919050565b7f50524f4752414d5f4f55545055545f56414c55455f4f55545f4f465f52414e475f8201527f4500000000000000000000000000000000000000000000000000000000000000602082015250565b5f61635460218361473b565b915061635f826162fa565b604082019050919050565b5f6020820190508181035f83015261638181616348565b9050919050565b7f494e56414c49445f4e45575f424c4f434b5f4e554d42455200000000000000005f82015250565b5f6163bc60188361473b565b91506163c782616388565b602082019050919050565b5f6020820190508181035f8301526163e9816163b0565b9050919050565b7f494e56414c49445f505245565f424c4f434b5f484153480000000000000000005f82015250565b5f61642460178361473b565b915061642f826163f0565b602082019050919050565b5f6020820190508181035f83015261645181616418565b9050919050565b7f494e56414c49445f50524556494f55535f524f4f5400000000000000000000005f82015250565b5f61648c60158361473b565b915061649782616458565b602082019050919050565b5f6020820190508181035f8301526164b981616480565b9050919050565b7f494e56414c49445f4d4553534147455f5345474d454e545f53495a45000000005f82015250565b5f6164f4601c8361473b565b91506164ff826164c0565b602082019050919050565b5f6020820190508181035f830152616521816164e8565b9050919050565b7f4d4553534147455f544f4f5f53484f52540000000000000000000000000000005f82015250565b5f61655c60118361473b565b915061656782616528565b602082019050919050565b5f6020820190508181035f83015261658981616550565b9050919050565b7f494e56414c49445f5041594c4f41445f4c454e475448000000000000000000005f82015250565b5f6165c460168361473b565b91506165cf82616590565b602082019050919050565b5f6020820190508181035f8301526165f1816165b8565b9050919050565b7f5452554e43415445445f4d4553534147455f5041594c4f4144000000000000005f82015250565b5f61662c60198361473b565b9150616637826165f8565b602082019050919050565b5f6020820190508181035f83015261665981616620565b9050919050565b5f61666c828486614a6c565b91508190509392505050565b5f81519050919050565b5f819050602082019050919050565b61669a81614066565b82525050565b5f6166ab8383616691565b60208301905092915050565b5f602082019050919050565b5f6166cd82616678565b6166d78185614829565b93506166e283616682565b805f5b838110156167125781516166f988826166a0565b9750616704836166b7565b9250506001810190506166e5565b5085935050505092915050565b5f6040820190508181035f83015261673781856166c3565b9050616746602083018461406f565b9392505050565b50565b5f61675b5f836153f0565b91506167668261674d565b5f82019050919050565b5f61677a82616750565b9150819050919050565b7f4554485f5452414e534645525f4641494c4544000000000000000000000000005f82015250565b5f6167b860138361473b565b91506167c382616784565b602082019050919050565b5f6020820190508181035f8301526167e5816167ac565b9050919050565b7f414c52454144595f5345540000000000000000000000000000000000000000005f82015250565b5f616820600b8361473b565b915061682b826167ec565b602082019050919050565b5f6020820190508181035f83015261684d81616814565b905091905056fe535441524b4e45545f312e305f494e49545f56455249464945525f41444452455353535441524b4e45545f312e305f524f4c45535f4f50455241544f52535f4d415050494e475f544147535441524b4e45545f312e305f4d5347494e475f4c31544f4c325f43414e43454c4c4154494f4e5f4d41505050494e47535441524b4e45545f312e305f494e49545f535441524b4e45545f53544154455f535452554354535441524b4e45545f312e305f494e49545f41474752454741544f525f50524f4752414d5f484153485f55494e54535441524b4e45545f312e305f494e49545f50524f4752414d5f484153485f55494e54535441524b4e45545f312e305f4d5347494e475f4c31544f4c325f43414e43454c4c4154494f4e5f44454c4159535441524b4e45545f312e305f535441524b4e45545f434f4e4649475f48415348535441524b4e45545f312e305f4d5347494e475f4c32544f4c315f4d41505050494e47535441524b4e45545f312e305f4d5347494e475f4c31544f4c325f4d41505050494e475f5632535441524b574152455f434f4e5452414354535f474f564552454e45445f46494e414c495a41424c455f312e305f544147a2646970667358221220f3237cb3ff3a9a8d7f5ab3212d723ffbf86394a460d93a95316b14a25014930b64736f6c634300081b0033","linkReferences":{}},"methodIdentifiers":{"aggregatorProgramHash()":"eb27feeb","cancelL1ToL2Message(uint256,uint256,uint256[],uint256)":"6170ff1b","configHash()":"e1f1176d","consumeMessageFromL2(uint256,uint256[])":"2c9dd5c0","finalize()":"4bb278f3","getMaxL1MsgFee()":"54eccba4","identify()":"eeb72866","initialize(bytes)":"439fab91","isFinalized()":"8d4e4083","isFrozen()":"33eeb147","isOperator(address)":"6d70f7ae","l1ToL2MessageCancellations(bytes32)":"9be446bf","l1ToL2MessageNonce()":"018cccdf","l1ToL2Messages(bytes32)":"77c7d7a9","l1ToL2MsgHash(address,uint256,uint256,uint256[],uint256)":"b64b6737","l2ToL1Messages(bytes32)":"a46efaf3","l2ToL1MsgHash(uint256,address,uint256[])":"3d8a5df8","messageCancellationDelay()":"8303bd8a","programHash()":"8a9bf090","registerOperator(address)":"3682a450","sendMessageToL2(uint256,uint256,uint256[])":"3e3aa6c5","setAggregatorProgramHash(uint256)":"9020429c","setConfigHash(uint256)":"3d07b336","setMessageCancellationDelay(uint256)":"c99d397f","setProgramHash(uint256)":"e87e7332","starknetAcceptGovernance()":"946be3ed","starknetCancelNomination()":"e37fec25","starknetIsGovernor(address)":"01a01590","starknetNominateNewGovernor(address)":"91a66a26","starknetRemoveGovernor(address)":"84f921cd","startL1ToL2MessageCancellation(uint256,uint256,uint256[],uint256)":"7a98660b","stateBlockHash()":"382d83e3","stateBlockNumber()":"35befa5d","stateRoot()":"9588eca2","unregisterOperator(address)":"96115bc2","updateState(uint256[],uint256,uint256)":"77552641","updateStateKzgDA(uint256[],bytes[])":"507ee528"},"id":16}