{
    "abi": [
        {
            "type": "function",
            "name": "aggregatorProgramHash",
            "inputs": [],
            "outputs": [
                {
                    "name": "",
                    "type": "uint256",
                    "internalType": "uint256"
                }
            ],
            "stateMutability": "view"
        },
        {
            "type": "function",
            "name": "cancelL1ToL2Message",
            "inputs": [
                {
                    "name": "toAddress",
                    "type": "uint256",
                    "internalType": "uint256"
                },
                {
                    "name": "selector",
                    "type": "uint256",
                    "internalType": "uint256"
                },
                {
                    "name": "payload",
                    "type": "uint256[]",
                    "internalType": "uint256[]"
                },
                {
                    "name": "nonce",
                    "type": "uint256",
                    "internalType": "uint256"
                }
            ],
            "outputs": [
                {
                    "name": "",
                    "type": "bytes32",
                    "internalType": "bytes32"
                }
            ],
            "stateMutability": "nonpayable"
        },
        {
            "type": "function",
            "name": "configHash",
            "inputs": [],
            "outputs": [
                {
                    "name": "",
                    "type": "uint256",
                    "internalType": "uint256"
                }
            ],
            "stateMutability": "view"
        },
        {
            "type": "function",
            "name": "consumeMessageFromL2",
            "inputs": [
                {
                    "name": "fromAddress",
                    "type": "uint256",
                    "internalType": "uint256"
                },
                {
                    "name": "payload",
                    "type": "uint256[]",
                    "internalType": "uint256[]"
                }
            ],
            "outputs": [
                {
                    "name": "",
                    "type": "bytes32",
                    "internalType": "bytes32"
                }
            ],
            "stateMutability": "nonpayable"
        },
        {
            "type": "function",
            "name": "finalize",
            "inputs": [],
            "outputs": [],
            "stateMutability": "nonpayable"
        },
        {
            "type": "function",
            "name": "getMaxL1MsgFee",
            "inputs": [],
            "outputs": [
                {
                    "name": "",
                    "type": "uint256",
                    "internalType": "uint256"
                }
            ],
            "stateMutability": "pure"
        },
        {
            "type": "function",
            "name": "identify",
            "inputs": [],
            "outputs": [
                {
                    "name": "",
                    "type": "string",
                    "internalType": "string"
                }
            ],
            "stateMutability": "pure"
        },
        {
            "type": "function",
            "name": "initialize",
            "inputs": [
                {
                    "name": "data",
                    "type": "bytes",
                    "internalType": "bytes"
                }
            ],
            "outputs": [],
            "stateMutability": "nonpayable"
        },
        {
            "type": "function",
            "name": "isFinalized",
            "inputs": [],
            "outputs": [
                {
                    "name": "",
                    "type": "bool",
                    "internalType": "bool"
                }
            ],
            "stateMutability": "view"
        },
        {
            "type": "function",
            "name": "isFrozen",
            "inputs": [],
            "outputs": [
                {
                    "name": "",
                    "type": "bool",
                    "internalType": "bool"
                }
            ],
            "stateMutability": "view"
        },
        {
            "type": "function",
            "name": "isOperator",
            "inputs": [
                {
                    "name": "user",
                    "type": "address",
                    "internalType": "address"
                }
            ],
            "outputs": [
                {
                    "name": "",
                    "type": "bool",
                    "internalType": "bool"
                }
            ],
            "stateMutability": "view"
        },
        {
            "type": "function",
            "name": "l1ToL2MessageCancellations",
            "inputs": [
                {
                    "name": "msgHash",
                    "type": "bytes32",
                    "internalType": "bytes32"
                }
            ],
            "outputs": [
                {
                    "name": "",
                    "type": "uint256",
                    "internalType": "uint256"
                }
            ],
            "stateMutability": "view"
        },
        {
            "type": "function",
            "name": "l1ToL2MessageNonce",
            "inputs": [],
            "outputs": [
                {
                    "name": "",
                    "type": "uint256",
                    "internalType": "uint256"
                }
            ],
            "stateMutability": "view"
        },
        {
            "type": "function",
            "name": "l1ToL2Messages",
            "inputs": [
                {
                    "name": "msgHash",
                    "type": "bytes32",
                    "internalType": "bytes32"
                }
            ],
            "outputs": [
                {
                    "name": "",
                    "type": "uint256",
                    "internalType": "uint256"
                }
            ],
            "stateMutability": "view"
        },
        {
            "type": "function",
            "name": "l1ToL2MsgHash",
            "inputs": [
                {
                    "name": "fromAddress",
                    "type": "address",
                    "internalType": "address"
                },
                {
                    "name": "toAddress",
                    "type": "uint256",
                    "internalType": "uint256"
                },
                {
                    "name": "selector",
                    "type": "uint256",
                    "internalType": "uint256"
                },
                {
                    "name": "payload",
                    "type": "uint256[]",
                    "internalType": "uint256[]"
                },
                {
                    "name": "nonce",
                    "type": "uint256",
                    "internalType": "uint256"
                }
            ],
            "outputs": [
                {
                    "name": "",
                    "type": "bytes32",
                    "internalType": "bytes32"
                }
            ],
            "stateMutability": "pure"
        },
        {
            "type": "function",
            "name": "l2ToL1Messages",
            "inputs": [
                {
                    "name": "msgHash",
                    "type": "bytes32",
                    "internalType": "bytes32"
                }
            ],
            "outputs": [
                {
                    "name": "",
                    "type": "uint256",
                    "internalType": "uint256"
                }
            ],
            "stateMutability": "view"
        },
        {
            "type": "function",
            "name": "l2ToL1MsgHash",
            "inputs": [
                {
                    "name": "fromAddress",
                    "type": "uint256",
                    "internalType": "uint256"
                },
                {
                    "name": "toAddress",
                    "type": "address",
                    "internalType": "address"
                },
                {
                    "name": "payload",
                    "type": "uint256[]",
                    "internalType": "uint256[]"
                }
            ],
            "outputs": [
                {
                    "name": "",
                    "type": "bytes32",
                    "internalType": "bytes32"
                }
            ],
            "stateMutability": "pure"
        },
        {
            "type": "function",
            "name": "messageCancellationDelay",
            "inputs": [],
            "outputs": [
                {
                    "name": "",
                    "type": "uint256",
                    "internalType": "uint256"
                }
            ],
            "stateMutability": "view"
        },
        {
            "type": "function",
            "name": "programHash",
            "inputs": [],
            "outputs": [
                {
                    "name": "",
                    "type": "uint256",
                    "internalType": "uint256"
                }
            ],
            "stateMutability": "view"
        },
        {
            "type": "function",
            "name": "registerOperator",
            "inputs": [
                {
                    "name": "newOperator",
                    "type": "address",
                    "internalType": "address"
                }
            ],
            "outputs": [],
            "stateMutability": "nonpayable"
        },
        {
            "type": "function",
            "name": "sendMessageToL2",
            "inputs": [
                {
                    "name": "toAddress",
                    "type": "uint256",
                    "internalType": "uint256"
                },
                {
                    "name": "selector",
                    "type": "uint256",
                    "internalType": "uint256"
                },
                {
                    "name": "payload",
                    "type": "uint256[]",
                    "internalType": "uint256[]"
                }
            ],
            "outputs": [
                {
                    "name": "",
                    "type": "bytes32",
                    "internalType": "bytes32"
                },
                {
                    "name": "",
                    "type": "uint256",
                    "internalType": "uint256"
                }
            ],
            "stateMutability": "payable"
        },
        {
            "type": "function",
            "name": "setAggregatorProgramHash",
            "inputs": [
                {
                    "name": "newAggregatorProgramHash",
                    "type": "uint256",
                    "internalType": "uint256"
                }
            ],
            "outputs": [],
            "stateMutability": "nonpayable"
        },
        {
            "type": "function",
            "name": "setConfigHash",
            "inputs": [
                {
                    "name": "newConfigHash",
                    "type": "uint256",
                    "internalType": "uint256"
                }
            ],
            "outputs": [],
            "stateMutability": "nonpayable"
        },
        {
            "type": "function",
            "name": "setMessageCancellationDelay",
            "inputs": [
                {
                    "name": "delayInSeconds",
                    "type": "uint256",
                    "internalType": "uint256"
                }
            ],
            "outputs": [],
            "stateMutability": "nonpayable"
        },
        {
            "type": "function",
            "name": "setProgramHash",
            "inputs": [
                {
                    "name": "newProgramHash",
                    "type": "uint256",
                    "internalType": "uint256"
                }
            ],
            "outputs": [],
            "stateMutability": "nonpayable"
        },
        {
            "type": "function",
            "name": "starknetAcceptGovernance",
            "inputs": [],
            "outputs": [],
            "stateMutability": "nonpayable"
        },
        {
            "type": "function",
            "name": "starknetCancelNomination",
            "inputs": [],
            "outputs": [],
            "stateMutability": "nonpayable"
        },
        {
            "type": "function",
            "name": "starknetIsGovernor",
            "inputs": [
                {
                    "name": "user",
                    "type": "address",
                    "internalType": "address"
                }
            ],
            "outputs": [
                {
                    "name": "",
                    "type": "bool",
                    "internalType": "bool"
                }
            ],
            "stateMutability": "view"
        },
        {
            "type": "function",
            "name": "starknetNominateNewGovernor",
            "inputs": [
                {
                    "name": "newGovernor",
                    "type": "address",
                    "internalType": "address"
                }
            ],
            "outputs": [],
            "stateMutability": "nonpayable"
        },
        {
            "type": "function",
            "name": "starknetRemoveGovernor",
            "inputs": [
                {
                    "name": "governorForRemoval",
                    "type": "address",
                    "internalType": "address"
                }
            ],
            "outputs": [],
            "stateMutability": "nonpayable"
        },
        {
            "type": "function",
            "name": "startL1ToL2MessageCancellation",
            "inputs": [
                {
                    "name": "toAddress",
                    "type": "uint256",
                    "internalType": "uint256"
                },
                {
                    "name": "selector",
                    "type": "uint256",
                    "internalType": "uint256"
                },
                {
                    "name": "payload",
                    "type": "uint256[]",
                    "internalType": "uint256[]"
                },
                {
                    "name": "nonce",
                    "type": "uint256",
                    "internalType": "uint256"
                }
            ],
            "outputs": [
                {
                    "name": "",
                    "type": "bytes32",
                    "internalType": "bytes32"
                }
            ],
            "stateMutability": "nonpayable"
        },
        {
            "type": "function",
            "name": "stateBlockHash",
            "inputs": [],
            "outputs": [
                {
                    "name": "",
                    "type": "uint256",
                    "internalType": "uint256"
                }
            ],
            "stateMutability": "view"
        },
        {
            "type": "function",
            "name": "stateBlockNumber",
            "inputs": [],
            "outputs": [
                {
                    "name": "",
                    "type": "int256",
                    "internalType": "int256"
                }
            ],
            "stateMutability": "view"
        },
        {
            "type": "function",
            "name": "stateRoot",
            "inputs": [],
            "outputs": [
                {
                    "name": "",
                    "type": "uint256",
                    "internalType": "uint256"
                }
            ],
            "stateMutability": "view"
        },
        {
            "type": "function",
            "name": "unregisterOperator",
            "inputs": [
                {
                    "name": "removedOperator",
                    "type": "address",
                    "internalType": "address"
                }
            ],
            "outputs": [],
            "stateMutability": "nonpayable"
        },
        {
            "type": "function",
            "name": "updateState",
            "inputs": [
                {
                    "name": "programOutput",
                    "type": "uint256[]",
                    "internalType": "uint256[]"
                },
                {
                    "name": "onchainDataHash",
                    "type": "uint256",
                    "internalType": "uint256"
                },
                {
                    "name": "onchainDataSize",
                    "type": "uint256",
                    "internalType": "uint256"
                }
            ],
            "outputs": [],
            "stateMutability": "nonpayable"
        },
        {
            "type": "function",
            "name": "updateStateKzgDA",
            "inputs": [
                {
                    "name": "programOutput",
                    "type": "uint256[]",
                    "internalType": "uint256[]"
                },
                {
                    "name": "kzgProofs",
                    "type": "bytes[]",
                    "internalType": "bytes[]"
                }
            ],
            "outputs": [],
            "stateMutability": "nonpayable"
        },
        {
            "type": "event",
            "name": "AggregatorProgramHashChanged",
            "inputs": [
                {
                    "name": "changedBy",
                    "type": "address",
                    "indexed": true,
                    "internalType": "address"
                },
                {
                    "name": "oldAggregatorProgramHash",
                    "type": "uint256",
                    "indexed": false,
                    "internalType": "uint256"
                },
                {
                    "name": "newAggregatorProgramHash",
                    "type": "uint256",
                    "indexed": false,
                    "internalType": "uint256"
                }
            ],
            "anonymous": false
        },
        {
            "type": "event",
            "name": "ConfigHashChanged",
            "inputs": [
                {
                    "name": "changedBy",
                    "type": "address",
                    "indexed": true,
                    "internalType": "address"
                },
                {
                    "name": "oldConfigHash",
                    "type": "uint256",
                    "indexed": false,
                    "internalType": "uint256"
                },
                {
                    "name": "newConfigHash",
                    "type": "uint256",
                    "indexed": false,
                    "internalType": "uint256"
                }
            ],
            "anonymous": false
        },
        {
            "type": "event",
            "name": "ConsumedMessageToL1",
            "inputs": [
                {
                    "name": "fromAddress",
                    "type": "uint256",
                    "indexed": true,
                    "internalType": "uint256"
                },
                {
                    "name": "toAddress",
                    "type": "address",
                    "indexed": true,
                    "internalType": "address"
                },
                {
                    "name": "payload",
                    "type": "uint256[]",
                    "indexed": false,
                    "internalType": "uint256[]"
                }
            ],
            "anonymous": false
        },
        {
            "type": "event",
            "name": "ConsumedMessageToL2",
            "inputs": [
                {
                    "name": "fromAddress",
                    "type": "address",
                    "indexed": true,
                    "internalType": "address"
                },
                {
                    "name": "toAddress",
                    "type": "uint256",
                    "indexed": true,
                    "internalType": "uint256"
                },
                {
                    "name": "selector",
                    "type": "uint256",
                    "indexed": true,
                    "internalType": "uint256"
                },
                {
                    "name": "payload",
                    "type": "uint256[]",
                    "indexed": false,
                    "internalType": "uint256[]"
                },
                {
                    "name": "nonce",
                    "type": "uint256",
                    "indexed": false,
                    "internalType": "uint256"
                }
            ],
            "anonymous": false
        },
        {
            "type": "event",
            "name": "Finalized",
            "inputs": [],
            "anonymous": false
        },
        {
            "type": "event",
            "name": "LogMessageToL1",
            "inputs": [
                {
                    "name": "fromAddress",
                    "type": "uint256",
                    "indexed": true,
                    "internalType": "uint256"
                },
                {
                    "name": "toAddress",
                    "type": "address",
                    "indexed": true,
                    "internalType": "address"
                },
                {
                    "name": "payload",
                    "type": "uint256[]",
                    "indexed": false,
                    "internalType": "uint256[]"
                }
            ],
            "anonymous": false
        },
        {
            "type": "event",
            "name": "LogMessageToL2",
            "inputs": [
                {
                    "name": "fromAddress",
                    "type": "address",
                    "indexed": true,
                    "internalType": "address"
                },
                {
                    "name": "toAddress",
                    "type": "uint256",
                    "indexed": true,
                    "internalType": "uint256"
                },
                {
                    "name": "selector",
                    "type": "uint256",
                    "indexed": true,
                    "internalType": "uint256"
                },
                {
                    "name": "payload",
                    "type": "uint256[]",
                    "indexed": false,
                    "internalType": "uint256[]"
                },
                {
                    "name": "nonce",
                    "type": "uint256",
                    "indexed": false,
                    "internalType": "uint256"
                },
                {
                    "name": "fee",
                    "type": "uint256",
                    "indexed": false,
                    "internalType": "uint256"
                }
            ],
            "anonymous": false
        },
        {
            "type": "event",
            "name": "LogNewGovernorAccepted",
            "inputs": [
                {
                    "name": "acceptedGovernor",
                    "type": "address",
                    "indexed": false,
                    "internalType": "address"
                }
            ],
            "anonymous": false
        },
        {
            "type": "event",
            "name": "LogNominatedGovernor",
            "inputs": [
                {
                    "name": "nominatedGovernor",
                    "type": "address",
                    "indexed": false,
                    "internalType": "address"
                }
            ],
            "anonymous": false
        },
        {
            "type": "event",
            "name": "LogNominationCancelled",
            "inputs": [],
            "anonymous": false
        },
        {
            "type": "event",
            "name": "LogOperatorAdded",
            "inputs": [
                {
                    "name": "operator",
                    "type": "address",
                    "indexed": false,
                    "internalType": "address"
                }
            ],
            "anonymous": false
        },
        {
            "type": "event",
            "name": "LogOperatorRemoved",
            "inputs": [
                {
                    "name": "operator",
                    "type": "address",
                    "indexed": false,
                    "internalType": "address"
                }
            ],
            "anonymous": false
        },
        {
            "type": "event",
            "name": "LogRemovedGovernor",
            "inputs": [
                {
                    "name": "removedGovernor",
                    "type": "address",
                    "indexed": false,
                    "internalType": "address"
                }
            ],
            "anonymous": false
        },
        {
            "type": "event",
            "name": "LogStateTransitionFact",
            "inputs": [
                {
                    "name": "stateTransitionFact",
                    "type": "bytes32",
                    "indexed": false,
                    "internalType": "bytes32"
                }
            ],
            "anonymous": false
        },
        {
            "type": "event",
            "name": "LogStateUpdate",
            "inputs": [
                {
                    "name": "globalRoot",
                    "type": "uint256",
                    "indexed": false,
                    "internalType": "uint256"
                },
                {
                    "name": "blockNumber",
                    "type": "int256",
                    "indexed": false,
                    "internalType": "int256"
                },
                {
                    "name": "blockHash",
                    "type": "uint256",
                    "indexed": false,
                    "internalType": "uint256"
                }
            ],
            "anonymous": false
        },
        {
            "type": "event",
            "name": "MessageToL2Canceled",
            "inputs": [
                {
                    "name": "fromAddress",
                    "type": "address",
                    "indexed": true,
                    "internalType": "address"
                },
                {
                    "name": "toAddress",
                    "type": "uint256",
                    "indexed": true,
                    "internalType": "uint256"
                },
                {
                    "name": "selector",
                    "type": "uint256",
                    "indexed": true,
                    "internalType": "uint256"
                },
                {
                    "name": "payload",
                    "type": "uint256[]",
                    "indexed": false,
                    "internalType": "uint256[]"
                },
                {
                    "name": "nonce",
                    "type": "uint256",
                    "indexed": false,
                    "internalType": "uint256"
                }
            ],
            "anonymous": false
        },
        {
            "type": "event",
            "name": "MessageToL2CancellationStarted",
            "inputs": [
                {
                    "name": "fromAddress",
                    "type": "address",
                    "indexed": true,
                    "internalType": "address"
                },
                {
                    "name": "toAddress",
                    "type": "uint256",
                    "indexed": true,
                    "internalType": "uint256"
                },
                {
                    "name": "selector",
                    "type": "uint256",
                    "indexed": true,
                    "internalType": "uint256"
                },
                {
                    "name": "payload",
                    "type": "uint256[]",
                    "indexed": false,
                    "internalType": "uint256[]"
                },
                {
                    "name": "nonce",
                    "type": "uint256",
                    "indexed": false,
                    "internalType": "uint256"
                }
            ],
            "anonymous": false
        },
        {
            "type": "event",
            "name": "ProgramHashChanged",
            "inputs": [
                {
                    "name": "changedBy",
                    "type": "address",
                    "indexed": true,
                    "internalType": "address"
                },
                {
                    "name": "oldProgramHash",
                    "type": "uint256",
                    "indexed": false,
                    "internalType": "uint256"
                },
                {
                    "name": "newProgramHash",
                    "type": "uint256",
                    "indexed": false,
                    "internalType": "uint256"
                }
            ],
            "anonymous": false
        }
    ],
    "bytecode": {
        "object": "0x60a0604052348015600e575f5ffd5b5030608052608051613de161002b5f395f610ac60152613de15ff3fe608060405260043610610212575f3560e01c80637a98660b1161011e57806396115bc2116100a8578063e1f1176d1161006d578063e1f1176d146105af578063e37fec25146105c3578063e87e7332146105d7578063eb27feeb146105f6578063eeb728661461060a575f5ffd5b806396115bc2146105145780639be446bf14610533578063a46efaf314610552578063b64b673714610571578063c99d397f14610590575f5ffd5b80638d4e4083116100ee5780638d4e40831461049a5780639020429c146104ae57806391a66a26146104cd578063946be3ed146104ec5780639588eca214610500575f5ffd5b80637a98660b146104345780638303bd8a1461045357806384f921cd146104675780638a9bf09014610486575f5ffd5b80633e3aa6c51161019f57806354eccba41161016f57806354eccba41461039e5780636170ff1b146103b85780636d70f7ae146103d757806377552641146103f657806377c7d7a914610415575f5ffd5b80633e3aa6c514610324578063439fab911461034c5780634bb278f31461036b578063507ee5281461037f575f5ffd5b806335befa5d116101e557806335befa5d1461029d5780633682a450146102b1578063382d83e3146102d25780633d07b336146102e65780633d8a5df814610305575f5ffd5b8063018cccdf1461021657806301a015901461023d5780632c9dd5c01461026c57806333eeb1471461028b575b5f5ffd5b348015610221575f5ffd5b5061022a610655565b6040519081526020015b60405180910390f35b348015610248575f5ffd5b5061025c6102573660046134ba565b610699565b6040519015158152602001610234565b348015610277575f5ffd5b5061022a61028636600461351c565b6106a9565b348015610296575f5ffd5b505f61025c565b3480156102a8575f5ffd5b5061022a61079c565b3480156102bc575f5ffd5b506102d06102cb3660046134ba565b6107ae565b005b3480156102dd575f5ffd5b5061022a610848565b3480156102f1575f5ffd5b506102d0610300366004613563565b61085a565b348015610310575f5ffd5b5061022a61031f36600461357a565b6108ee565b6103376103323660046135d1565b610932565b60408051928352602083019190915201610234565b348015610357575f5ffd5b506102d0610366366004613607565b610ac3565b348015610376575f5ffd5b506102d0610c73565b34801561038a575f5ffd5b506102d0610399366004613673565b610d0a565b3480156103a9575f5ffd5b50670de0b6b3a764000061022a565b3480156103c3575f5ffd5b5061022a6103d23660046136c5565b610e5b565b3480156103e2575f5ffd5b5061025c6103f13660046134ba565b61106f565b348015610401575f5ffd5b506102d061041036600461371a565b611099565b348015610420575f5ffd5b5061022a61042f366004613563565b6111b8565b34801561043f575f5ffd5b5061022a61044e3660046136c5565b6111d1565b34801561045e575f5ffd5b5061022a6112ab565b348015610472575f5ffd5b506102d06104813660046134ba565b6112cd565b348015610491575f5ffd5b5061022a6112d6565b3480156104a5575f5ffd5b5061025c6112f8565b3480156104b9575f5ffd5b506102d06104c8366004613563565b61131a565b3480156104d8575f5ffd5b506102d06104e73660046134ba565b6113ae565b3480156104f7575f5ffd5b506102d06113b7565b34801561050b575f5ffd5b5061022a6113c1565b34801561051f575f5ffd5b506102d061052e3660046134ba565b6113d0565b34801561053e575f5ffd5b5061022a61054d366004613563565b611462565b34801561055d575f5ffd5b5061022a61056c366004613563565b61146b565b34801561057c575f5ffd5b5061022a61058b366004613766565b611474565b34801561059b575f5ffd5b506102d06105aa366004613563565b6114be565b3480156105ba575f5ffd5b5061022a611511565b3480156105ce575f5ffd5b506102d0611533565b3480156105e2575f5ffd5b506102d06105f1366004613563565b61153b565b348015610601575f5ffd5b5061022a6115cf565b348015610615575f5ffd5b50604080518082018252601981527f537461726b576172655f537461726b6e65745f323032345f39000000000000006020820152905161023491906137d2565b5f6106946040518060400160405280602081526020017f535441524b4e45545f312e305f4d5347494e475f4c31544f4c325f4e4f4e43458152506115ed565b905090565b5f6106a382611620565b92915050565b5f5f6106b7853386866108ee565b90505f6106c261164c565b5f8381526020919091526040902054116107235760405162461bcd60e51b815260206004820152601a60248201527f494e56414c49445f4d4553534147455f544f5f434f4e53554d4500000000000060448201526064015b60405180910390fd5b336001600160a01b0316857f7a06c571aa77f34d9706c51e5d8122b5595aebeaa34233bfe866f22befb973b1868660405161075f929190613837565b60405180910390a3600161077161164c565b5f8381526020019081526020015f205f82825461078e919061385e565b909155509095945050505050565b5f6107a561166e565b60010154905090565b6107b733611620565b6107d35760405162461bcd60e51b815260040161071a90613871565b6107dc8161106f565b6108455760016107ea6116b7565b6001600160a01b0383165f8181526020928352604090819020805460ff19169415159490941790935591519182527f50a18c352ee1c02ffe058e15c2eb6e58be387c81e73cc1e17035286e54c19a5791015b60405180910390a15b50565b5f61085161166e565b60020154905090565b6108626112f8565b1561087f5760405162461bcd60e51b815260040161071a9061389a565b61088833611620565b6108a45760405162461bcd60e51b815260040161071a90613871565b337f393c6beb5756a944b2967f15f31ff671e312e945d7a84fd3bdcfd6b408b2dc796108ce611511565b60408051918252602082018590520160405180910390a2610845816116d9565b6040515f906109129086906001600160a01b038716908590879082906020016138e4565b604051602081830303815290604052805190602001209050949350505050565b5f5f5f341161098d5760405162461bcd60e51b815260206004820152602160248201527f4c315f4d53475f4645455f4d5553545f42455f475245415445525f5448414e5f6044820152600360fc1b606482015260840161071a565b670de0b6b3a76400003411156109e55760405162461bcd60e51b815260206004820152601760248201527f4d41585f4c315f4d53475f4645455f4558434545444544000000000000000000604482015260640161071a565b5f6109ee610655565b9050610a3b6040518060400160405280602081526020017f535441524b4e45545f312e305f4d5347494e475f4c31544f4c325f4e4f4e4345815250826001610a369190613902565b6116f7565b8587336001600160a01b03167fdb80dd488acf86d17c747445b0eabb5d57c541d3bd7b6b87af987858e5066b2b88888634604051610a7c9493929190613915565b60405180910390a45f610a93338989898987611474565b9050610aa0346001613902565b610aa8611729565b5f838152602091909152604090205597909650945050505050565b307f00000000000000000000000000000000000000000000000000000000000000006001600160a01b031603610b345760405162461bcd60e51b81526020600482015260166024820152751112549150d517d0d0531317d11254d0531313d5d15160521b604482015260640161071a565b5f610b4081602061393b565b90505f610b4e826020613902565b905080831015610b965760405162461bcd60e51b81526020600482015260136024820152721253925517d110551057d513d3d7d4d3505313606a1b604482015260640161071a565b5f610ba382848688613952565b810190610bb091906134ba565b9050365f610bc08582888a613952565b91509150365f610bd28887818c613952565b90925090506001600160a01b03851615610bfc57610bf185838361174b565b505050505050505050565b610c04611889565b15610c53578015610c4e5760405162461bcd60e51b8152602060048201526014602482015273554e45585045435445445f494e49545f4441544160601b604482015260640161071a565b610bf1565b610c5d8282611899565b610c678282611948565b610bf16119c3565b5050565b610c7c33611620565b610c985760405162461bcd60e51b815260040161071a90613871565b610ca06112f8565b15610cbd5760405162461bcd60e51b815260040161071a9061389a565b610ce0604051806060016040528060318152602001613d7b6031913960016116f7565b6040517f6823b073d48d6e3a7d385eeb601452d680e74bb46afe3255a7d778f3a9b17681905f90a1565b610d133361106f565b610d4f5760405162461bcd60e51b815260206004820152600d60248201526c27a7262cafa7a822a920aa27a960991b604482015260640161071a565b600a8311610d9b5760405162461bcd60e51b815260206004820152601960248201527814d5105492d3915517d3d55514155517d513d3d7d4d213d495603a1b604482015260640161071a565b610daf8484610da861166e565b9190611a3f565b83836008818110610dc257610dc2613979565b90506020020135600114610e115760405162461bcd60e51b8152602060048201526016602482015275554e45585045435445445f4b5a475f44415f464c414760501b604482015260640161071a565b610e28610e2184600a818861398d565b8484611ad3565b5f610e33858561213d565b9050610e4085858361216f565b610e548585610e4d61166e565b919061253a565b5050505050565b5f8486336001600160a01b03167f8abd2ec2e0a10c82f5b60ea00455fa96c41fd144f225fcc52b8d83d94f803ed8878787604051610e9b939291906139b8565b60405180910390a45f610eb2338888888888611474565b90505f610ebd611729565b5f83815260209190915260408120549150819003610f145760405162461bcd60e51b81526020600482015260146024820152731393d7d35154d4d051d157d513d7d0d05390d15360621b604482015260640161071a565b5f610f1d61259b565b5f84815260209190915260408120549150819003610f885760405162461bcd60e51b815260206004820152602260248201527f4d4553534147455f43414e43454c4c4154494f4e5f4e4f545f52455155455354604482015261115160f21b606482015260840161071a565b5f610f916112ab565b610f9b9083613902565b905081811015610fed5760405162461bcd60e51b815260206004820152601c60248201527f43414e43454c5f414c4c4f5745445f54494d455f4f564552464c4f5700000000604482015260640161071a565b804210156110495760405162461bcd60e51b8152602060048201526024808201527f4d4553534147455f43414e43454c4c4154494f4e5f4e4f545f414c4c4f57454460448201526317d6515560e21b606482015260840161071a565b5f611052611729565b5f8681526020919091526040902055509198975050505050505050565b5f6110786116b7565b6001600160a01b039092165f90815260209290925250604090205460ff1690565b6110a23361106f565b6110de5760405162461bcd60e51b815260206004820152600d60248201526c27a7262cafa7a822a920aa27a960991b604482015260640161071a565b600a831161112a5760405162461bcd60e51b815260206004820152601960248201527814d5105492d3915517d3d55514155517d513d3d7d4d213d495603a1b604482015260640161071a565b6111378484610da861166e565b8383600881811061114a5761114a613979565b905060200201355f146111985760405162461bcd60e51b8152602060048201526016602482015275554e45585045435445445f4b5a475f44415f464c414760501b604482015260640161071a565b5f610e3385856040518060400160405280878152602001868152506125bd565b5f6111c1611729565b5f92835260205250604090205490565b5f8486336001600160a01b03167f2e00dccd686fd6823ec7dc3e125582aa82881b6ff5f6b5a73856e1ea8338a3be878787604051611211939291906139b8565b60405180910390a45f611228338888888888611474565b90505f611233611729565b5f83815260209190915260409020549050806112885760405162461bcd60e51b81526020600482015260146024820152731393d7d35154d4d051d157d513d7d0d05390d15360621b604482015260640161071a565b4261129161259b565b5f8481526020919091526040902055509695505050505050565b5f6106946040518060600160405280602d8152602001613ce4602d91396115ed565b61084581612632565b5f610694604051806060016040528060238152602001613cc1602391396115ed565b5f610694604051806060016040528060318152602001613d7b603191396115ed565b6113226112f8565b1561133f5760405162461bcd60e51b815260040161071a9061389a565b61134833611620565b6113645760405162461bcd60e51b815260040161071a90613871565b337f07688623ef226ae0c2f88d3fdc7f6bb41427c804bcec3f36699b07148e3f534061138e6115cf565b60408051918252602082018590520160405180910390a26108458161274b565b6108458161276d565b6113bf6128d5565b565b5f6113ca61166e565b54919050565b6113d933611620565b6113f55760405162461bcd60e51b815260040161071a90613871565b6113fe8161106f565b15610845575f61140c6116b7565b6001600160a01b0383165f8181526020928352604090819020805460ff19169415159490941790935591519182527fec5f6c3a91a1efb1f9a308bb33c6e9e66bf9090fad0732f127dfdbf516d0625d910161083c565b5f6111c161259b565b5f6111c161164c565b6040515f9061149c906001600160a01b0389169088908590899088908a9082906020016139db565b6040516020818303038152906040528051906020012090509695505050505050565b6114c66112f8565b156114e35760405162461bcd60e51b815260040161071a9061389a565b6114ec33611620565b6115085760405162461bcd60e51b815260040161071a90613871565b61084581612959565b5f610694604051806060016040528060218152602001613d11602191396115ed565b6113bf61297b565b6115436112f8565b156115605760405162461bcd60e51b815260040161071a9061389a565b61156933611620565b6115855760405162461bcd60e51b815260040161071a90613871565b337f600a61c1b32ac42fb2fe76e8fc7582a98106668fc16dcd85567cd3937363e49b6115af6112d6565b60408051918252602082018590520160405180910390a2610845816129fc565b5f6106946040518060600160405280602e8152602001613c93602e91395b5f5f826040516020016116009190613a29565b60408051601f198184030181529190528051602090910120549392505050565b5f5f61162a612a1e565b6001600160a01b039093165f9081526020939093525050604090205460ff1690565b5f610694604051806060016040528060238152602001613d3260239139612a66565b5f5f604051806060016040528060278152602001613c6c602791396040516020016116999190613a29565b60408051601f19818403018152919052805160209091012092915050565b5f610694604051806060016040528060288152602001613c1460289139612a66565b610845604051806060016040528060218152602001613d1160219139825b5f826040516020016117099190613a29565b604051602081830303815290604052805190602001209050818155505050565b5f610694604051806060016040528060268152602001613d5560269139612a66565b6001600160a01b0383163b6117975760405162461bcd60e51b8152602060048201526012602482015271115250d7d393d517d057d0d3d395149050d560721b604482015260640161071a565b5f5f846001600160a01b031663439fab9160e01b85856040516024016117be929190613a34565b60408051601f198184030181529181526020820180516001600160e01b03166001600160e01b03199094169390931790925290516117fc9190613a29565b5f60405180830381855af49150503d805f8114611834576040519150601f19603f3d011682016040523d82523d5f602084013e611839565b606091505b509150915081819061185e5760405162461bcd60e51b815260040161071a91906137d2565b5080518190156118815760405162461bcd60e51b815260040161071a91906137d2565b505050505050565b5f6118926112d6565b1515919050565b60e081146118e25760405162461bcd60e51b8152602060048201526016602482015275494c4c4547414c5f494e49545f444154415f53495a4560501b604482015260640161071a565b5f6118f06020828486613952565b8101906118fd9190613563565b9050805f036119435760405162461bcd60e51b81526020600482015260126024820152712120a22fa4a724aa24a0a624ad20aa24a7a760711b604482015260640161071a565b505050565b5f8080808061195986880188613a62565b9450945094509450945061196c856129fc565b6119758461274b565b61197e83612a98565b6119a58161198a61166e565b90805182556020810151600183015560400151600290910155565b6119ae826116d9565b6119ba62069780612959565b50505050505050565b5f6119cc612a1e565b6001810154909150600160a01b900460ff1615611a215760405162461bcd60e51b81526020600482015260136024820152721053149150511657d253925512505312569151606a1b604482015260640161071a565b60018101805460ff60a01b1916600160a01b17905561084533612aba565b5f83600101545f1903611a5e575067080000000000001160c01b611a65565b5060018301545b8083836002818110611a7957611a79613979565b9050602002013514611acd5760405162461bcd60e51b815260206004820152601960248201527f494e56414c49445f505245565f424c4f434b5f4e554d42455200000000000000604482015260640161071a565b50505050565b6002831015611b1c5760405162461bcd60e51b815260206004820152601560248201527412d691d7d4d151d351539517d513d3d7d4d213d495605a1b604482015260640161071a565b5f84845f818110611b2f57611b2f613979565b905060200201355f1b90505f85856001818110611b4e57611b4e613979565b9050602002013590505f816002611b65919061393b565b611b70906002613902565b9050838214611bc15760405162461bcd60e51b815260206004820152601c60248201527f494e56414c49445f4e554d4245525f4f465f4b5a475f50524f4f465300000000604482015260640161071a565b611bcc82600261393b565b611bd69082613902565b861015611c1d5760405162461bcd60e51b815260206004820152601560248201527412d691d7d4d151d351539517d513d3d7d4d213d495605a1b604482015260640161071a565b5f5b828110156121335780495f819003611c6e5760405162461bcd60e51b81526020600482015260126024820152710929cac82989288be84989e84be929c888ab60731b604482015260640161071a565b600160f81b815f1a60f81b6001600160f81b03191614611cd05760405162461bcd60e51b815260206004820152601c60248201527f554e45585045435445445f424c4f425f484153485f56455253494f4e00000000604482015260640161071a565b60605f8a8a611ce086600261393b565b611ceb906002613902565b818110611cfa57611cfa613979565b9050602002013590505f8b8b866002611d13919061393b565b611d1e906002613902565b611d29906001613902565b818110611d3857611d38613979565b9050602002013590506001600160c01b038016821115611d935760405162461bcd60e51b81526020600482015260166024820152751253959053125117d2d691d7d0d3d35352551351539560521b604482015260640161071a565b6001600160c01b03811115611de35760405162461bcd60e51b81526020600482015260166024820152751253959053125117d2d691d7d0d3d35352551351539560521b604482015260640161071a565b6040805167ffffffffffffffff1992821b8316602082015292811b9091166038830152805180830360300181526050909201905290505f808b8b611e2887600261393b565b611e329089613902565b818110611e4157611e41613979565b9050602002013590505f8c8c876002611e5a919061393b565b611e64908a613902565b611e6f906001613902565b818110611e7e57611e7e613979565b9050602002013590506001600160801b038016821115611ed25760405162461bcd60e51b815260206004820152600f60248201526e494e56414c49445f595f56414c554560881b604482015260640161071a565b6001600160801b03811115611f1b5760405162461bcd60e51b815260206004820152600f60248201526e494e56414c49445f595f56414c554560881b604482015260640161071a565b611f2982608083901b613902565b5f1b925050506030898986818110611f4357611f43613979565b9050602002810190611f559190613b05565b905014611f9d5760405162461bcd60e51b8152602060048201526016602482015275494e56414c49445f4b5a475f50524f4f465f53495a4560501b604482015260640161071a565b5f80600a858a85878f8f8c818110611fb757611fb7613979565b9050602002810190611fc99190613b05565b604051602001611fde96959493929190613b47565b60408051601f1981840301815290829052611ff891613a29565b5f60405180830381855afa9150503d805f8114612030576040519150601f19603f3d011682016040523d82523d5f602084013e612035565b606091505b5091509150816120975760405162461bcd60e51b815260206004820152602760248201527f504f494e545f4556414c554154494f4e5f505245434f4d50494c455f43414c4c60448201526617d1905253115160ca1b606482015260840161071a565b805160208201207fb2157d3a40131b14c4c675335465dffde802f0ce5218ad012284d7f275d1b37c146121225760405162461bcd60e51b815260206004820152602d60248201527f554e45585045435445445f504f494e545f4556414c554154494f4e5f5052454360448201526c13d35412531157d3d555141555609a1b606482015260840161071a565b505060019093019250611c1f915050565b5050505050505050565b5f8282604051602001612151929190613b7a565b60405160208183030381529060405280519060200120905092915050565b6121798383612b60565b612181611511565b8383600781811061219457612194613979565b90506020020135146121de5760405162461bcd60e51b81526020600482015260136024820152720929cac82989288be869e9c8c928ebe9082a69606b1b604482015260640161071a565b828260098181106121f1576121f1613979565b905060200201355f146122465760405162461bcd60e51b815260206004820152601960248201527f46554c4c5f4f55545055545f4e4f545f535550504f5254454400000000000000604482015260640161071a565b5f8383600681811061225a5761225a613979565b905060200201355f146122f55761226f6112d6565b8484600681811061228257612282613979565b90506020020135146122e65760405162461bcd60e51b815260206004820152602760248201527f41474752454741544f525f4d4f44455f494e56414c49445f4f535f50524f47526044820152660829abe9082a6960cb1b606482015260840161071a565b6122ee6115cf565b9050612300565b6122fd6112d6565b90505b60408051602080820184905281830185905282518083038401815260609092019092528051910120612330612bf3565b6001600160a01b0316636a938567826040518263ffffffff1660e01b815260040161235d91815260200190565b602060405180830381865afa158015612378573d5f5f3e3d5ffd5b505050506040513d601f19601f8201168201806040525081019061239c9190613b86565b6123e85760405162461bcd60e51b815260206004820152601960248201527f4e4f5f53544154455f5452414e534954494f4e5f50524f4f4600000000000000604482015260640161071a565b6040518381527f9866f8ddfe70bb512b2f2b28b49d4017c43f7ba775f1a20c61c13eea8cdac1119060200160405180910390a161242f858561242861166e565b9190612c15565b5f61243a8686612d99565b905061245a600161244d8784818b61398d565b61245561164c565b612e34565b6124649082613902565b905061247e5f6124768784818b61398d565b612455611729565b6124889082613902565b90508481146124d95760405162461bcd60e51b815260206004820152601860248201527f535441524b4e45545f4f55545055545f544f4f5f4c4f4e470000000000000000604482015260640161071a565b5f6124e261166e565b805460018201546002830154604080519384526020840192909252908201529091507fd342ddf7a308dec111745b00315c14b7efb2bdae570a6856e088ed0c65a3576c9060600160405180910390a150505050505050565b8181600381811061254d5761254d613979565b905060200201358360010154146119435760405162461bcd60e51b81526020600482015260126024820152715245454e5452414e43595f4641494c55524560701b604482015260640161071a565b5f610694604051806060016040528060308152602001613c3c60309139612a66565b5f82816125ca868361213d565b90505f8183865f01518760200151866125e39190613902565b6040805160208101959095528401929092526060830152608082015260a00160408051601f1981840301815291905280516020909101209050612627816001613902565b979650505050505050565b61263b33611620565b6126575760405162461bcd60e51b815260040161071a90613871565b6001600160a01b03811633036126a65760405162461bcd60e51b8152602060048201526014602482015273474f5645524e4f525f53454c465f52454d4f564560601b604482015260640161071a565b5f6126af612a1e565b90506126ba82611620565b6126f55760405162461bcd60e51b815260206004820152600c60248201526b2727aa2fa3a7ab22a92727a960a11b604482015260640161071a565b6001600160a01b0382165f8181526020838152604091829020805460ff1916905590519182527fd75f94825e770b8b512be8e74759e252ad00e102e38f50cce2f7c6f868a2959991015b60405180910390a15050565b6108456040518060600160405280602e8152602001613c93602e9139826116f7565b61277633611620565b6127925760405162461bcd60e51b815260040161071a90613871565b5f61279b612a1e565b90506001600160a01b0382166127e15760405162461bcd60e51b815260206004820152600b60248201526a4241445f4144445245535360a81b604482015260640161071a565b6127ea82611620565b1561282a5760405162461bcd60e51b815260206004820152601060248201526f20a62922a0a22cafa3a7ab22a92727a960811b604482015260640161071a565b60018101546001600160a01b0316156128855760405162461bcd60e51b815260206004820152601760248201527f4f544845525f43414e4449444154455f50454e44494e47000000000000000000604482015260640161071a565b6001810180546001600160a01b0319166001600160a01b0384169081179091556040519081527f6166272c8d3f5f579082f2827532732f97195007983bb5b83ac12c56700b01a69060200161273f565b5f6128de612a1e565b60018101549091506001600160a01b0316331461293d5760405162461bcd60e51b815260206004820152601760248201527f4f4e4c595f43414e4449444154455f474f5645524e4f52000000000000000000604482015260640161071a565b61294633612aba565b60010180546001600160a01b0319169055565b6108456040518060600160405280602d8152602001613ce4602d9139826116f7565b61298433611620565b6129a05760405162461bcd60e51b815260040161071a90613871565b5f6129a9612a1e565b60018101549091506001600160a01b031615610845576001810180546001600160a01b03191690556040517f7a8dc7dd7fffb43c4807438fa62729225156941e641fd877938f4edade3429f5905f90a150565b610845604051806060016040528060238152602001613cc160239139826116f7565b5f5f6040518060400160405280601c81526020017f535441524b4e45545f312e305f474f5645524e414e43455f494e464f000000008152506040516020016116999190613a29565b5f5f82604051602001612a799190613a29565b60408051601f1981840301815291905280516020909101209392505050565b610845604051806060016040528060228152602001613bf260229139826133ef565b612ac381611620565b15612b035760405162461bcd60e51b815260206004820152601060248201526f20a62922a0a22cafa3a7ab22a92727a960811b604482015260640161071a565b5f612b0c612a1e565b6001600160a01b0383165f8181526020838152604091829020805460ff1916600117905590519182529192507fcfb473e6c03f9a29ddaf990e736fa3de5188a0bd85d684f5b6e164ebfbfff5d2910161273f565b6001600167080000000000001160c01b01602083028401845b81811015612b995782813510612b91575f9350612b99565b602001612b79565b505050806119435760405162461bcd60e51b815260206004820152602160248201527f50524f4752414d5f4f55545055545f56414c55455f4f55545f4f465f52414e476044820152604560f81b606482015260840161071a565b5f610694604051806060016040528060228152602001613bf2602291396115ed565b612c20838383611a3f565b5f82826003818110612c3457612c34613979565b90506020020135905083600101548113612c905760405162461bcd60e51b815260206004820152601860248201527f494e56414c49445f4e45575f424c4f434b5f4e554d4245520000000000000000604482015260640161071a565b60018401819055600284015483836004818110612caf57612caf613979565b9050602002013514612d035760405162461bcd60e51b815260206004820152601760248201527f494e56414c49445f505245565f424c4f434b5f48415348000000000000000000604482015260640161071a565b82826005818110612d1657612d16613979565b6020029190910135600286015550365f612d308585613447565b91509150612d3e8282613470565b865414612d855760405162461bcd60e51b81526020600482015260156024820152741253959053125117d41491559253d554d7d493d3d5605a1b604482015260640161071a565b612d8f8282613492565b9095555050505050565b5f82826008818110612dad57612dad613979565b905060200201355f03612dc25750600a6106a3565b5f8383612dd16001600a613902565b818110612de057612de0613979565b905060200201359050806002612df6919061393b565b612e0182600261393b565b612e0d600a6001613902565b612e18906001613902565b612e229190613902565b612e2c9190613902565b949350505050565b5f5f84845f818110612e4857612e48613979565b90506020020135905063400000008110612ea45760405162461bcd60e51b815260206004820152601c60248201527f494e56414c49445f4d4553534147455f5345474d454e545f53495a4500000000604482015260640161071a565b60015f612eb18383613902565b90505f88612ec0576004612ec3565b60025b90505f5b828410156132ff575f612eda8386613902565b9050888110612f1f5760405162461bcd60e51b8152602060048201526011602482015270135154d4d051d157d513d3d7d4d213d495607a1b604482015260640161071a565b5f8a8a83818110612f3257612f32613979565b90506020020135905063400000008110612f875760405162461bcd60e51b81526020600482015260166024820152750929cac82989288bea082b2989e8288be988a9c8ea8960531b604482015260640161071a565b5f81612f94846001613902565b612f9e9190613902565b90508a811115612ff05760405162461bcd60e51b815260206004820152601960248201527f5452554e43415445445f4d4553534147455f5041594c4f414400000000000000604482015260640161071a565b8c15613100575f8c8c899084926130099392919061398d565b60405160200161301a929190613b7a565b6040516020818303038152906040528051906020012090508c8c60018a6130419190613902565b81811061305057613050613979565b905060200201356001600160a01b03168d8d5f8b61306e9190613902565b81811061307d5761307d613979565b905060200201357f4264ac208b5fde633ccdd42e0f12c3d6d443a4f3779bbf886925b94665b63a228f8f60038d6130b49190613902565b6130c09288929061398d565b6040516130ce929190613837565b60405180910390a35f81815260208c9052604081208054600192906130f4908490613902565b909155506132f5915050565b5f8c8c899084926131139392919061398d565b604051602001613124929190613b7a565b60408051601f1981840301815291815281516020928301205f818152928e9052912054909150806131975760405162461bcd60e51b815260206004820152601a60248201527f494e56414c49445f4d4553534147455f544f5f434f4e53554d45000000000000604482015260640161071a565b6131a260018261385e565b6131ac9087613902565b5f92835260208d90526040832083905595508d90508c6131cd60028b613902565b8181106131dc576131dc613979565b9050602002013590505f8d8d60058b6131f59190613902565b6132019286929061398d565b808060200260200160405190810160405280939291908181526020018383602002808284375f81840152601f19601f8201169050808301925050505050505090508d8d60038b6132519190613902565b81811061326057613260613979565b905060200201358e8e60018c6132769190613902565b81811061328557613285613979565b905060200201358f8f5f8d61329a9190613902565b8181106132a9576132a9613979565b905060200201356001600160a01b03167f9592d37825c744e33fa80c469683bbd04d336241bb600b574758efd182abe26a84866040516132ea929190613ba5565b60405180910390a450505b9550612ec7915050565b82841461334e5760405162461bcd60e51b815260206004820152601c60248201527f494e56414c49445f4d4553534147455f5345474d454e545f53495a4500000000604482015260640161071a565b80156133e1576040515f90339083908381818185875af1925050503d805f8114613393576040519150601f19603f3d011682016040523d82523d5f602084013e613398565b606091505b50509050806133df5760405162461bcd60e51b815260206004820152601360248201527211551217d514905394d1915497d19052531151606a1b604482015260640161071a565b505b509198975050505050505050565b5f6133f9836115ed565b6001600160a01b03161461343d5760405162461bcd60e51b815260206004820152600b60248201526a1053149150511657d4d15560aa1b604482015260640161071a565b610c6f82826116f7565b365f838184613457826002613902565b926134649392919061398d565b915091505b9250929050565b5f82825f81811061348357613483613979565b90506020020135905092915050565b5f8282600181811061348357613483613979565b6001600160a01b0381168114610845575f5ffd5b5f602082840312156134ca575f5ffd5b81356134d5816134a6565b9392505050565b5f5f83601f8401126134ec575f5ffd5b5081356001600160401b03811115613502575f5ffd5b6020830191508360208260051b8501011115613469575f5ffd5b5f5f5f6040848603121561352e575f5ffd5b8335925060208401356001600160401b0381111561354a575f5ffd5b613556868287016134dc565b9497909650939450505050565b5f60208284031215613573575f5ffd5b5035919050565b5f5f5f5f6060858703121561358d575f5ffd5b84359350602085013561359f816134a6565b925060408501356001600160401b038111156135b9575f5ffd5b6135c5878288016134dc565b95989497509550505050565b5f5f5f5f606085870312156135e4575f5ffd5b843593506020850135925060408501356001600160401b038111156135b9575f5ffd5b5f5f60208385031215613618575f5ffd5b82356001600160401b0381111561362d575f5ffd5b8301601f8101851361363d575f5ffd5b80356001600160401b03811115613652575f5ffd5b856020828401011115613663575f5ffd5b6020919091019590945092505050565b5f5f5f5f60408587031215613686575f5ffd5b84356001600160401b0381111561369b575f5ffd5b6136a7878288016134dc565b90955093505060208501356001600160401b038111156135b9575f5ffd5b5f5f5f5f5f608086880312156136d9575f5ffd5b853594506020860135935060408601356001600160401b038111156136fc575f5ffd5b613708888289016134dc565b96999598509660600135949350505050565b5f5f5f5f6060858703121561372d575f5ffd5b84356001600160401b03811115613742575f5ffd5b61374e878288016134dc565b90989097506020870135966040013595509350505050565b5f5f5f5f5f5f60a0878903121561377b575f5ffd5b8635613786816134a6565b9550602087013594506040870135935060608701356001600160401b038111156137ae575f5ffd5b6137ba89828a016134dc565b979a9699509497949695608090950135949350505050565b602081525f82518060208401528060208501604085015e5f604082850101526040601f19601f83011684010191505092915050565b8183525f6001600160fb1b0383111561381e575f5ffd5b8260051b80836020870137939093016020019392505050565b602081525f612e2c602083018486613807565b634e487b7160e01b5f52601160045260245ffd5b818103818111156106a3576106a361384a565b6020808252600f908201526e4f4e4c595f474f5645524e414e434560881b604082015260600190565b60208082526009908201526811925390531256915160ba1b604082015260600190565b5f6001600160fb1b038311156138d1575f5ffd5b8260051b80838637939093019392505050565b8581528460208201528360408201525f6126276060830184866138bd565b808201808211156106a3576106a361384a565b606081525f613928606083018688613807565b6020830194909452506040015292915050565b80820281158282048414176106a3576106a361384a565b5f5f85851115613960575f5ffd5b8386111561396c575f5ffd5b5050820193919092039150565b634e487b7160e01b5f52603260045260245ffd5b5f5f8585111561399b575f5ffd5b838611156139a7575f5ffd5b5050600583901b0193919092039150565b604081525f6139cb604083018587613807565b9050826020830152949350505050565b8781528660208201528560408201528460608201528360808201525f613a0560a0830184866138bd565b9998505050505050505050565b5f81518060208401855e5f93019283525090919050565b5f6134d58284613a12565b60208152816020820152818360408301375f818301604090810191909152601f909201601f19160101919050565b5f5f5f5f5f85870360e0811215613a77575f5ffd5b86359550602087013594506040870135613a90816134a6565b93506060878101359350607f1982011215613aa9575f5ffd5b50604051606081018181106001600160401b0382111715613ad857634e487b7160e01b5f52604160045260245ffd5b60409081526080880135825260a0880135602083015260c090970135968101969096525092959194509290565b5f5f8335601e19843603018112613b1a575f5ffd5b8301803591506001600160401b03821115613b33575f5ffd5b602001915036819003821315613469575f5ffd5b8681528560208201528460408201525f613b646060830186613a12565b838582375f930192835250909695505050505050565b5f612e2c8284866138bd565b5f60208284031215613b96575f5ffd5b815180151581146134d5575f5ffd5b604080825283519082018190525f9060208501906060840190835b81811015613bde578351835260209384019390920191600101613bc0565b505060209390930193909352509291505056fe535441524b4e45545f312e305f494e49545f56455249464945525f41444452455353535441524b4e45545f312e305f524f4c45535f4f50455241544f52535f4d415050494e475f544147535441524b4e45545f312e305f4d5347494e475f4c31544f4c325f43414e43454c4c4154494f4e5f4d41505050494e47535441524b4e45545f312e305f494e49545f535441524b4e45545f53544154455f535452554354535441524b4e45545f312e305f494e49545f41474752454741544f525f50524f4752414d5f484153485f55494e54535441524b4e45545f312e305f494e49545f50524f4752414d5f484153485f55494e54535441524b4e45545f312e305f4d5347494e475f4c31544f4c325f43414e43454c4c4154494f4e5f44454c4159535441524b4e45545f312e305f535441524b4e45545f434f4e4649475f48415348535441524b4e45545f312e305f4d5347494e475f4c32544f4c315f4d41505050494e47535441524b4e45545f312e305f4d5347494e475f4c31544f4c325f4d41505050494e475f5632535441524b574152455f434f4e5452414354535f474f564552454e45445f46494e414c495a41424c455f312e305f544147a2646970667358221220347cf0eb1cd50c69dcdbb63988645b2c348f6d479f7516abb5d3802dbd858f8764736f6c634300081b0033",
        "linkReferences": {}
    },
    "methodIdentifiers": {
        "aggregatorProgramHash()": "eb27feeb",
        "cancelL1ToL2Message(uint256,uint256,uint256[],uint256)": "6170ff1b",
        "configHash()": "e1f1176d",
        "consumeMessageFromL2(uint256,uint256[])": "2c9dd5c0",
        "finalize()": "4bb278f3",
        "getMaxL1MsgFee()": "54eccba4",
        "identify()": "eeb72866",
        "initialize(bytes)": "439fab91",
        "isFinalized()": "8d4e4083",
        "isFrozen()": "33eeb147",
        "isOperator(address)": "6d70f7ae",
        "l1ToL2MessageCancellations(bytes32)": "9be446bf",
        "l1ToL2MessageNonce()": "018cccdf",
        "l1ToL2Messages(bytes32)": "77c7d7a9",
        "l1ToL2MsgHash(address,uint256,uint256,uint256[],uint256)": "b64b6737",
        "l2ToL1Messages(bytes32)": "a46efaf3",
        "l2ToL1MsgHash(uint256,address,uint256[])": "3d8a5df8",
        "messageCancellationDelay()": "8303bd8a",
        "programHash()": "8a9bf090",
        "registerOperator(address)": "3682a450",
        "sendMessageToL2(uint256,uint256,uint256[])": "3e3aa6c5",
        "setAggregatorProgramHash(uint256)": "9020429c",
        "setConfigHash(uint256)": "3d07b336",
        "setMessageCancellationDelay(uint256)": "c99d397f",
        "setProgramHash(uint256)": "e87e7332",
        "starknetAcceptGovernance()": "946be3ed",
        "starknetCancelNomination()": "e37fec25",
        "starknetIsGovernor(address)": "01a01590",
        "starknetNominateNewGovernor(address)": "91a66a26",
        "starknetRemoveGovernor(address)": "84f921cd",
        "startL1ToL2MessageCancellation(uint256,uint256,uint256[],uint256)": "7a98660b",
        "stateBlockHash()": "382d83e3",
        "stateBlockNumber()": "35befa5d",
        "stateRoot()": "9588eca2",
        "unregisterOperator(address)": "96115bc2",
        "updateState(uint256[],uint256,uint256)": "77552641",
        "updateStateKzgDA(uint256[],bytes[])": "507ee528"
    },
    "id": 16
}