{
  "abi": [
    {
      "type": "function",
      "name": "acceptGovernance",
      "inputs": [],
      "outputs": [],
      "stateMutability": "nonpayable"
    },
    {
      "type": "function",
      "name": "cancelNomination",
      "inputs": [],
      "outputs": [],
      "stateMutability": "nonpayable"
    },
    {
      "type": "function",
      "name": "deposit",
      "inputs": [
        {
          "name": "l2Recipient",
          "type": "uint256",
          "internalType": "uint256"
        }
      ],
      "outputs": [],
      "stateMutability": "payable"
    },
    {
      "type": "function",
      "name": "deposit",
      "inputs": [
        {
          "name": "amount",
          "type": "uint256",
          "internalType": "uint256"
        },
        {
          "name": "l2Recipient",
          "type": "uint256",
          "internalType": "uint256"
        }
      ],
      "outputs": [],
      "stateMutability": "payable"
    },
    {
      "type": "function",
      "name": "depositCancelRequest",
      "inputs": [
        {
          "name": "amount",
          "type": "uint256",
          "internalType": "uint256"
        },
        {
          "name": "l2Recipient",
          "type": "uint256",
          "internalType": "uint256"
        },
        {
          "name": "nonce",
          "type": "uint256",
          "internalType": "uint256"
        }
      ],
      "outputs": [],
      "stateMutability": "nonpayable"
    },
    {
      "type": "function",
      "name": "depositReclaim",
      "inputs": [
        {
          "name": "amount",
          "type": "uint256",
          "internalType": "uint256"
        },
        {
          "name": "l2Recipient",
          "type": "uint256",
          "internalType": "uint256"
        },
        {
          "name": "nonce",
          "type": "uint256",
          "internalType": "uint256"
        }
      ],
      "outputs": [],
      "stateMutability": "nonpayable"
    },
    {
      "type": "function",
      "name": "identify",
      "inputs": [],
      "outputs": [
        {
          "name": "",
          "type": "string",
          "internalType": "string"
        }
      ],
      "stateMutability": "pure"
    },
    {
      "type": "function",
      "name": "initialize",
      "inputs": [
        {
          "name": "data",
          "type": "bytes",
          "internalType": "bytes"
        }
      ],
      "outputs": [],
      "stateMutability": "nonpayable"
    },
    {
      "type": "function",
      "name": "isActive",
      "inputs": [],
      "outputs": [
        {
          "name": "",
          "type": "bool",
          "internalType": "bool"
        }
      ],
      "stateMutability": "view"
    },
    {
      "type": "function",
      "name": "isFrozen",
      "inputs": [],
      "outputs": [
        {
          "name": "",
          "type": "bool",
          "internalType": "bool"
        }
      ],
      "stateMutability": "view"
    },
    {
      "type": "function",
      "name": "isGovernor",
      "inputs": [
        {
          "name": "user",
          "type": "address",
          "internalType": "address"
        }
      ],
      "outputs": [
        {
          "name": "",
          "type": "bool",
          "internalType": "bool"
        }
      ],
      "stateMutability": "view"
    },
    {
      "type": "function",
      "name": "maxDeposit",
      "inputs": [],
      "outputs": [
        {
          "name": "",
          "type": "uint256",
          "internalType": "uint256"
        }
      ],
      "stateMutability": "view"
    },
    {
      "type": "function",
      "name": "maxTotalBalance",
      "inputs": [],
      "outputs": [
        {
          "name": "",
          "type": "uint256",
          "internalType": "uint256"
        }
      ],
      "stateMutability": "view"
    },
    {
      "type": "function",
      "name": "nominateNewGovernor",
      "inputs": [
        {
          "name": "newGovernor",
          "type": "address",
          "internalType": "address"
        }
      ],
      "outputs": [],
      "stateMutability": "nonpayable"
    },
    {
      "type": "function",
      "name": "removeGovernor",
      "inputs": [
        {
          "name": "governorForRemoval",
          "type": "address",
          "internalType": "address"
        }
      ],
      "outputs": [],
      "stateMutability": "nonpayable"
    },
    {
      "type": "function",
      "name": "setL2TokenBridge",
      "inputs": [
        {
          "name": "l2TokenBridge_",
          "type": "uint256",
          "internalType": "uint256"
        }
      ],
      "outputs": [],
      "stateMutability": "nonpayable"
    },
    {
      "type": "function",
      "name": "setMaxDeposit",
      "inputs": [
        {
          "name": "maxDeposit_",
          "type": "uint256",
          "internalType": "uint256"
        }
      ],
      "outputs": [],
      "stateMutability": "nonpayable"
    },
    {
      "type": "function",
      "name": "setMaxTotalBalance",
      "inputs": [
        {
          "name": "maxTotalBalance_",
          "type": "uint256",
          "internalType": "uint256"
        }
      ],
      "outputs": [],
      "stateMutability": "nonpayable"
    },
    {
      "type": "function",
      "name": "withdraw",
      "inputs": [
        {
          "name": "amount",
          "type": "uint256",
          "internalType": "uint256"
        },
        {
          "name": "recipient",
          "type": "address",
          "internalType": "address"
        }
      ],
      "outputs": [],
      "stateMutability": "nonpayable"
    },
    {
      "type": "function",
      "name": "withdraw",
      "inputs": [
        {
          "name": "amount",
          "type": "uint256",
          "internalType": "uint256"
        }
      ],
      "outputs": [],
      "stateMutability": "nonpayable"
    },
    {
      "type": "event",
      "name": "LogBridgeActivated",
      "inputs": [],
      "anonymous": false
    },
    {
      "type": "event",
      "name": "LogDeposit",
      "inputs": [
        {
          "name": "sender",
          "type": "address",
          "indexed": true,
          "internalType": "address"
        },
        {
          "name": "amount",
          "type": "uint256",
          "indexed": false,
          "internalType": "uint256"
        },
        {
          "name": "l2Recipient",
          "type": "uint256",
          "indexed": true,
          "internalType": "uint256"
        },
        {
          "name": "nonce",
          "type": "uint256",
          "indexed": false,
          "internalType": "uint256"
        },
        {
          "name": "fee",
          "type": "uint256",
          "indexed": false,
          "internalType": "uint256"
        }
      ],
      "anonymous": false
    },
    {
      "type": "event",
      "name": "LogDepositCancelRequest",
      "inputs": [
        {
          "name": "sender",
          "type": "address",
          "indexed": true,
          "internalType": "address"
        },
        {
          "name": "amount",
          "type": "uint256",
          "indexed": false,
          "internalType": "uint256"
        },
        {
          "name": "l2Recipient",
          "type": "uint256",
          "indexed": true,
          "internalType": "uint256"
        },
        {
          "name": "nonce",
          "type": "uint256",
          "indexed": false,
          "internalType": "uint256"
        }
      ],
      "anonymous": false
    },
    {
      "type": "event",
      "name": "LogDepositReclaimed",
      "inputs": [
        {
          "name": "sender",
          "type": "address",
          "indexed": true,
          "internalType": "address"
        },
        {
          "name": "amount",
          "type": "uint256",
          "indexed": false,
          "internalType": "uint256"
        },
        {
          "name": "l2Recipient",
          "type": "uint256",
          "indexed": true,
          "internalType": "uint256"
        },
        {
          "name": "nonce",
          "type": "uint256",
          "indexed": false,
          "internalType": "uint256"
        }
      ],
      "anonymous": false
    },
    {
      "type": "event",
      "name": "LogNewGovernorAccepted",
      "inputs": [
        {
          "name": "acceptedGovernor",
          "type": "address",
          "indexed": false,
          "internalType": "address"
        }
      ],
      "anonymous": false
    },
    {
      "type": "event",
      "name": "LogNominatedGovernor",
      "inputs": [
        {
          "name": "nominatedGovernor",
          "type": "address",
          "indexed": false,
          "internalType": "address"
        }
      ],
      "anonymous": false
    },
    {
      "type": "event",
      "name": "LogNominationCancelled",
      "inputs": [],
      "anonymous": false
    },
    {
      "type": "event",
      "name": "LogRemovedGovernor",
      "inputs": [
        {
          "name": "removedGovernor",
          "type": "address",
          "indexed": false,
          "internalType": "address"
        }
      ],
      "anonymous": false
    },
    {
      "type": "event",
      "name": "LogSetL2TokenBridge",
      "inputs": [
        {
          "name": "value",
          "type": "uint256",
          "indexed": false,
          "internalType": "uint256"
        }
      ],
      "anonymous": false
    },
    {
      "type": "event",
      "name": "LogSetMaxDeposit",
      "inputs": [
        {
          "name": "value",
          "type": "uint256",
          "indexed": false,
          "internalType": "uint256"
        }
      ],
      "anonymous": false
    },
    {
      "type": "event",
      "name": "LogSetMaxTotalBalance",
      "inputs": [
        {
          "name": "value",
          "type": "uint256",
          "indexed": false,
          "internalType": "uint256"
        }
      ],
      "anonymous": false
    },
    {
      "type": "event",
      "name": "LogWithdrawal",
      "inputs": [
        {
          "name": "recipient",
          "type": "address",
          "indexed": true,
          "internalType": "address"
        },
        {
          "name": "amount",
          "type": "uint256",
          "indexed": false,
          "internalType": "uint256"
        }
      ],
      "anonymous": false
    }
  ],
  "bytecode": {
    "object": "0x60c06040523480156200001157600080fd5b5060405180606001604052806021815260200162003ac060219139806040516020018082805190602001908083835b6020831062000065578051825260208201915060208101905060208303925062000040565b6001836020036101000a0380198251168184511680821785525050505050509050019150506040516020818303038152906040528051906020012060808181525050503073ffffffffffffffffffffffffffffffffffffffff1660a08173ffffffffffffffffffffffffffffffffffffffff1660601b8152505060805160a05160601c6139ba620001066000398061082052508061325c52506139ba6000f3fe60806040526004361061011e5760003560e01c80637fc2ab3e116100a0578063bb371fdd11610064578063bb371fdd146104b0578063e2bbb158146104eb578063e43581b814610523578063eeb728661461058a578063eecdac881461061a5761011e565b80637fc2ab3e1461036c57806387ebeb18146103a7578063894ecf04146103f8578063ae87381614610433578063b6b55f25146104825761011e565b80632e1a7d4d116100e75780632e1a7d4d1461020457806333eeb1471461023f578063439fab911461026c5780634c567662146102f25780636083e59a146103415761011e565b8062f714ce1461012357806310f2ec451461017e578063195340751461019557806322f3e2d4146101c0578063238efcbc146101ed575b600080fd5b34801561012f57600080fd5b5061017c6004803603604081101561014657600080fd5b8101908080359060200190929190803573ffffffffffffffffffffffffffffffffffffffff16906020019092919050505061066b565b005b34801561018a57600080fd5b50610193610774565b005b3480156101a157600080fd5b506101aa61077e565b6040518082815260200191505060405180910390f35b3480156101cc57600080fd5b506101d56107a6565b60405180821515815260200191505060405180910390f35b3480156101f957600080fd5b506102026107eb565b005b34801561021057600080fd5b5061023d6004803603602081101561022757600080fd5b81019080803590602001909291905050506107f5565b005b34801561024b57600080fd5b50610254610802565b60405180821515815260200191505060405180910390f35b34801561027857600080fd5b506102f06004803603602081101561028f57600080fd5b81019080803590602001906401000000008111156102ac57600080fd5b8201836020820111156102be57600080fd5b803590602001918460018302840111640100000000831117156102e057600080fd5b9091929391929390505050610807565b005b3480156102fe57600080fd5b5061033f6004803603606081101561031557600080fd5b81019080803590602001909291908035906020019092919080359060200190929190505050610ae0565b005b34801561034d57600080fd5b50610356610e5a565b6040518082815260200191505060405180910390f35b34801561037857600080fd5b506103a56004803603602081101561038f57600080fd5b8101908080359060200190929190505050610e82565b005b3480156103b357600080fd5b506103f6600480360360208110156103ca57600080fd5b81019080803573ffffffffffffffffffffffffffffffffffffffff169060200190929190505050611069565b005b34801561040457600080fd5b506104316004803603602081101561041b57600080fd5b8101908080359060200190929190505050611075565b005b34801561043f57600080fd5b506104806004803603606081101561045657600080fd5b81019080803590602001909291908035906020019092919080359060200190929190505050611133565b005b6104ae6004803603602081101561049857600080fd5b81019080803590602001909291905050506114b7565b005b3480156104bc57600080fd5b506104e9600480360360208110156104d357600080fd5b81019080803590602001909291905050506114c4565b005b6105216004803603604081101561050157600080fd5b810190808035906020019092919080359060200190929190505050611582565b005b34801561052f57600080fd5b506105726004803603602081101561054657600080fd5b81019080803573ffffffffffffffffffffffffffffffffffffffff16906020019092919050505061168e565b60405180821515815260200191505060405180910390f35b34801561059657600080fd5b5061059f6116a0565b6040518080602001828103825283818151815260200191508051906020019080838360005b838110156105df5780820151818401526020810190506105c4565b50505050905090810190601f16801561060c5780820380516001836020036101000a031916815260200191505b509250505060405180910390f35b34801561062657600080fd5b506106696004803603602081101561063d57600080fd5b81019080803573ffffffffffffffffffffffffffffffffffffffff1690602001909291905050506116c0565b005b600073ffffffffffffffffffffffffffffffffffffffff168173ffffffffffffffffffffffffffffffffffffffff16141561070e576040517f08c379a00000000000000000000000000000000000000000000000000000000081526004018080602001828103825260118152602001807f494e56414c49445f524543495049454e5400000000000000000000000000000081525060200191505060405180910390fd5b61071882826116cc565b6107228282611909565b8073ffffffffffffffffffffffffffffffffffffffff167fb4214c8c54fc7442f36d3682f59aebaf09358a4431835b30efb29d52cf9e1e91836040518082815260200191505060405180910390a25050565b61077c611936565b565b60006107a16040518060600160405280602781526020016138a760279139611a89565b905090565b60006107e66040518060400160405280601f81526020017f535441524b4e45545f544f4b454e5f4252494447455f49535f41435449564500815250611b0a565b905090565b6107f3611b8b565b565b6107ff813361066b565b50565b600090565b3073ffffffffffffffffffffffffffffffffffffffff167f000000000000000000000000000000000000000000000000000000000000000073ffffffffffffffffffffffffffffffffffffffff1614156108c9576040517f08c379a00000000000000000000000000000000000000000000000000000000081526004018080602001828103825260168152602001807f4449524543545f43414c4c5f444953414c4c4f5745440000000000000000000081525060200191505060405180910390fd5b60006108d3611cd0565b6020029050600060208201905080848490501015610959576040517f08c379a00000000000000000000000000000000000000000000000000000000081526004018080602001828103825260138152602001807f494e49545f444154415f544f4f5f534d414c4c0000000000000000000000000081525060200191505060405180910390fd5b600084848490849261096d93929190613800565b602081101561097b57600080fd5b81019080803573ffffffffffffffffffffffffffffffffffffffff1690602001909291905050509050366000868660009087926109ba93929190613800565b915091506109c88282611cd5565b3660008888879080926109dd93929190613800565b91509150600073ffffffffffffffffffffffffffffffffffffffff168573ffffffffffffffffffffffffffffffffffffffff1614610a2c57610a20858383611cd9565b50505050505050610adc565b610a34612021565b15610ab75760008282905014610ab2576040517f08c379a00000000000000000000000000000000000000000000000000000000081526004018080602001828103825260148152602001807f554e45585045435445445f494e49545f4441544100000000000000000000000081525060200191505060405180910390fd5b610ad4565b610ac182826120ec565b610acb8282612383565b610ad36123f9565b5b505050505050505b5050565b610ae86107a6565b610b5a576040517f08c379a000000000000000000000000000000000000000000000000000000000815260040180806020018281038252600e8152602001807f4e4f545f4143544956455f59455400000000000000000000000000000000000081525060200191505060405180910390fd5b806000610b656124b3565b600083815260200190815260200160002060009054906101000a900473ffffffffffffffffffffffffffffffffffffffff169050600073ffffffffffffffffffffffffffffffffffffffff168173ffffffffffffffffffffffffffffffffffffffff161415610c3c576040517f08c379a00000000000000000000000000000000000000000000000000000000081526004018080602001828103825260148152602001807f4e4f5f4445504f5349545f544f5f43414e43454c00000000000000000000000081525060200191505060405180910390fd5b3373ffffffffffffffffffffffffffffffffffffffff168173ffffffffffffffffffffffffffffffffffffffff1614610cdd576040517f08c379a000000000000000000000000000000000000000000000000000000000815260040180806020018281038252600e8152602001807f4f4e4c595f4445504f5349544f5200000000000000000000000000000000000081525060200191505060405180910390fd5b610ce56124db565b73ffffffffffffffffffffffffffffffffffffffff16637a98660b610d08612503565b7f02d757788a8d8d6f21d1cd40bce38a8222d70654214e96ff95d8086e684fbee5610d33898961252b565b876040518563ffffffff1660e01b81526004018085815260200184815260200180602001838152602001828103825284818151815260200191508051906020019060200280838360005b83811015610d98578082015181840152602081019050610d7d565b5050505090500195505050505050602060405180830381600087803b158015610dc057600080fd5b505af1158015610dd4573d6000803e3d6000fd5b505050506040513d6020811015610dea57600080fd5b810190808051906020019092919050505050833373ffffffffffffffffffffffffffffffffffffffff167fea57f52faafe318751f75acb6756cff3f66afc10201ef8f2d504e788985db3f58786604051808381526020018281526020019250505060405180910390a35050505050565b6000610e7d6040518060600160405280602181526020016138f760219139611a89565b905090565b610e8b336125dd565b610efd576040517f08c379a000000000000000000000000000000000000000000000000000000000815260040180806020018281038252600f8152602001807f4f4e4c595f474f5645524e414e4345000000000000000000000000000000000081525060200191505060405180910390fd5b610f05612021565b610f77576040517f08c379a00000000000000000000000000000000000000000000000000000000081526004018080602001828103825260188152602001807f434f4e54524143545f4e4f545f494e495449414c495a4544000000000000000081525060200191505060405180910390fd5b610f8081612641565b610ff2576040517f08c379a00000000000000000000000000000000000000000000000000000000081526004018080602001828103825260178152602001807f4c325f414444524553535f4f55545f4f465f52414e474500000000000000000081525060200191505060405180910390fd5b610ffb81612678565b61100361269d565b7f7c4f4649950225877ed9efe9dd52350ec7c8be63c1ba43ead5dc74d9fc88deb8816040518082815260200191505060405180910390a17f4ef0aca3da44a9503e18003dde42e77ce3415f7af25714333c7c09e255072fdf60405160405180910390a150565b611072816126df565b50565b61107e336125dd565b6110f0576040517f08c379a000000000000000000000000000000000000000000000000000000000815260040180806020018281038252600f8152602001807f4f4e4c595f474f5645524e414e4345000000000000000000000000000000000081525060200191505060405180910390fd5b7fa9aec19ec61c04ae0a4a1498ab6ce04cbd68b3d54c47888a45eb2bd37caf06bc816040518082815260200191505060405180910390a1611130816129df565b50565b61113b6107a6565b6111ad576040517f08c379a000000000000000000000000000000000000000000000000000000000815260040180806020018281038252600e8152602001807f4e4f545f4143544956455f59455400000000000000000000000000000000000081525060200191505060405180910390fd5b8060006111b86124b3565b600083815260200190815260200160002060009054906101000a900473ffffffffffffffffffffffffffffffffffffffff169050600073ffffffffffffffffffffffffffffffffffffffff168173ffffffffffffffffffffffffffffffffffffffff16141561128f576040517f08c379a00000000000000000000000000000000000000000000000000000000081526004018080602001828103825260148152602001807f4e4f5f4445504f5349545f544f5f43414e43454c00000000000000000000000081525060200191505060405180910390fd5b3373ffffffffffffffffffffffffffffffffffffffff168173ffffffffffffffffffffffffffffffffffffffff1614611330576040517f08c379a000000000000000000000000000000000000000000000000000000000815260040180806020018281038252600e8152602001807f4f4e4c595f4445504f5349544f5200000000000000000000000000000000000081525060200191505060405180910390fd5b6113386124db565b73ffffffffffffffffffffffffffffffffffffffff16636170ff1b61135b612503565b7f02d757788a8d8d6f21d1cd40bce38a8222d70654214e96ff95d8086e684fbee5611386898961252b565b876040518563ffffffff1660e01b81526004018085815260200184815260200180602001838152602001828103825284818151815260200191508051906020019060200280838360005b838110156113eb5780820151818401526020810190506113d0565b5050505090500195505050505050602060405180830381600087803b15801561141357600080fd5b505af1158015611427573d6000803e3d6000fd5b505050506040513d602081101561143d57600080fd5b8101908080519060200190929190505050506114598533611909565b833373ffffffffffffffffffffffffffffffffffffffff167fb0b548d5e12b6a60adac4d6dd7610f55134cea4fd145535edc303a48063e0cb48786604051808381526020018281526020019250505060405180910390a35050505050565b6114c13482611582565b50565b6114cd336125dd565b61153f576040517f08c379a000000000000000000000000000000000000000000000000000000000815260040180806020018281038252600f8152602001807f4f4e4c595f474f5645524e414e4345000000000000000000000000000000000081525060200191505060405180910390fd5b7faf474b5afcf11bd99dc9fc7f499e6ab368d650bf7ef23993f0d61bd9ad762651816040518082815260200191505060405180910390a161157f81612a04565b50565b813410156115f8576040517f08c379a00000000000000000000000000000000000000000000000000000000081526004018080602001828103825260128152602001807f494e53554646494349454e545f56414c5545000000000000000000000000000081525060200191505060405180910390fd5b6000823403905061160761077e565b814703111561167e576040517f08c379a00000000000000000000000000000000000000000000000000000000081526004018080602001828103825260148152602001807f4d41585f42414c414e43455f455843454544454400000000000000000000000081525060200191505060405180910390fd5b611689838383612a29565b505050565b6000611699826125dd565b9050919050565b606060405180606001604052806022815260200161396360229139905090565b6116c981612f27565b50565b6116d46107a6565b611746576040517f08c379a000000000000000000000000000000000000000000000000000000000815260040180806020018281038252600e8152602001807f4e4f545f4143544956455f59455400000000000000000000000000000000000081525060200191505060405180910390fd5b6060600467ffffffffffffffff8111801561176057600080fd5b5060405190808252806020026020018201604052801561178f5781602001602082028036833780820191505090505b5090506000816000815181106117a157fe5b6020026020010181815250508173ffffffffffffffffffffffffffffffffffffffff16816001815181106117d157fe5b6020026020010181815250506001608060020a038316816002815181106117f457fe5b602002602001018181525050608083901c8160038151811061181257fe5b6020026020010181815250506118266124db565b73ffffffffffffffffffffffffffffffffffffffff16632c9dd5c0611849612503565b836040518363ffffffff1660e01b81526004018083815260200180602001828103825283818151815260200191508051906020019060200280838360005b838110156118a2578082015181840152602081019050611887565b505050509050019350505050602060405180830381600087803b1580156118c857600080fd5b505af11580156118dc573d6000803e3d6000fd5b505050506040513d60208110156118f257600080fd5b810190808051906020019092919050505050505050565b611932828273ffffffffffffffffffffffffffffffffffffffff1661317690919063ffffffff16565b5050565b61193f336125dd565b6119b1576040517f08c379a000000000000000000000000000000000000000000000000000000000815260040180806020018281038252600f8152602001807f4f4e4c595f474f5645524e414e4345000000000000000000000000000000000081525060200191505060405180910390fd5b60006119bb613257565b9050600073ffffffffffffffffffffffffffffffffffffffff168160010160009054906101000a900473ffffffffffffffffffffffffffffffffffffffff1673ffffffffffffffffffffffffffffffffffffffff1614611a865760008160010160006101000a81548173ffffffffffffffffffffffffffffffffffffffff021916908373ffffffffffffffffffffffffffffffffffffffff1602179055507f7a8dc7dd7fffb43c4807438fa62729225156941e641fd877938f4edade3429f560405160405180910390a15b50565b600080826040516020018082805190602001908083835b60208310611ac35780518252602082019150602081019050602083039250611aa0565b6001836020036101000a0380198251168184511680821785525050505050509050019150506040516020818303038152906040528051906020012090508054915050919050565b600080826040516020018082805190602001908083835b60208310611b445780518252602082019150602081019050602083039250611b21565b6001836020036101000a0380198251168184511680821785525050505050509050019150506040516020818303038152906040528051906020012090508054915050919050565b6000611b95613257565b90508060010160009054906101000a900473ffffffffffffffffffffffffffffffffffffffff1673ffffffffffffffffffffffffffffffffffffffff163373ffffffffffffffffffffffffffffffffffffffff1614611c5c576040517f08c379a00000000000000000000000000000000000000000000000000000000081526004018080602001828103825260178152602001807f4f4e4c595f43414e4449444154455f474f5645524e4f5200000000000000000081525060200191505060405180910390fd5b611c898160010160009054906101000a900473ffffffffffffffffffffffffffffffffffffffff16613284565b60008160010160006101000a81548173ffffffffffffffffffffffffffffffffffffffff021916908373ffffffffffffffffffffffffffffffffffffffff16021790555050565b600090565b5050565b611cf88373ffffffffffffffffffffffffffffffffffffffff166133b7565b611d6a576040517f08c379a00000000000000000000000000000000000000000000000000000000081526004018080602001828103825260128152602001807f4549435f4e4f545f415f434f4e5452414354000000000000000000000000000081525060200191505060405180910390fd5b600060608473ffffffffffffffffffffffffffffffffffffffff1663439fab9160e01b858560405160240180806020018281038252848482818152602001925080828437600081840152601f19601f8201169050808301925050509350505050604051602081830303815290604052907bffffffffffffffffffffffffffffffffffffffffffffffffffffffff19166020820180517bffffffffffffffffffffffffffffffffffffffffffffffffffffffff83818316178352505050506040518082805190602001908083835b60208310611e5a5780518252602082019150602081019050602083039250611e37565b6001836020036101000a038019825116818451168082178552505050505050905001915050600060405180830381855af49150503d8060008114611eba576040519150601f19603f3d011682016040523d82523d6000602084013e611ebf565b606091505b5091509150818190611f6c576040517f08c379a00000000000000000000000000000000000000000000000000000000081526004018080602001828103825283818151815260200191508051906020019080838360005b83811015611f31578082015181840152602081019050611f16565b50505050905090810190601f168015611f5e5780820380516001836020036101000a031916815260200191505b509250505060405180910390fd5b5060008151148190612019576040517f08c379a00000000000000000000000000000000000000000000000000000000081526004018080602001828103825283818151815260200191508051906020019080838360005b83811015611fde578082015181840152602081019050611fc3565b50505050905090810190601f16801561200b5780820380516001836020036101000a031916815260200191505b509250505060405180910390fd5b505050505050565b600061202b6133ca565b61206e57600073ffffffffffffffffffffffffffffffffffffffff1661204f6124db565b73ffffffffffffffffffffffffffffffffffffffff16141590506120e9565b600073ffffffffffffffffffffffffffffffffffffffff1661208e6124db565b73ffffffffffffffffffffffffffffffffffffffff16141580156120e65750600073ffffffffffffffffffffffffffffffffffffffff166120cd6133cf565b73ffffffffffffffffffffffffffffffffffffffff1614155b90505b90565b60408282905014612165576040517f08c379a00000000000000000000000000000000000000000000000000000000081526004018080602001828103825260118152602001807f494c4c4547414c5f444154415f53495a4500000000000000000000000000000081525060200191505060405180910390fd5b6000808383604081101561217857600080fd5b81019080803573ffffffffffffffffffffffffffffffffffffffff169060200190929190803573ffffffffffffffffffffffffffffffffffffffff169060200190929190505050915091506121cb6133ca565b15612266576121ef8273ffffffffffffffffffffffffffffffffffffffff166133b7565b612261576040517f08c379a000000000000000000000000000000000000000000000000000000000815260040180806020018281038252601c8152602001807f494e56414c49445f4252494447455f544f4b454e5f414444524553530000000081525060200191505060405180910390fd5b612309565b600073ffffffffffffffffffffffffffffffffffffffff168273ffffffffffffffffffffffffffffffffffffffff1614612308576040517f08c379a000000000000000000000000000000000000000000000000000000000815260040180806020018281038252601f8152602001807f4e4f4e5f5a45524f5f544f4b454e5f414444524553535f50524f56494445440081525060200191505060405180910390fd5b5b6123288173ffffffffffffffffffffffffffffffffffffffff166133b7565b61237d576040517f08c379a00000000000000000000000000000000000000000000000000000000081526004018080602001828103825260228152602001806139186022913960400191505060405180910390fd5b50505050565b6000808383604081101561239657600080fd5b81019080803573ffffffffffffffffffffffffffffffffffffffff169060200190929190803573ffffffffffffffffffffffffffffffffffffffff169060200190929190505050915091506123ea826133f7565b6123f38161341c565b50505050565b6000612403613257565b90508060010160149054906101000a900460ff161561248a576040517f08c379a00000000000000000000000000000000000000000000000000000000081526004018080602001828103825260138152602001807f414c52454144595f494e495449414c495a45440000000000000000000000000081525060200191505060405180910390fd5b60018160010160146101000a81548160ff0219169083151502179055506124b033613284565b50565b60006124d66040518060600160405280602981526020016138ce60299139613441565b905090565b60006124fe604051806060016040528060288152602001613834602891396134c1565b905090565b600061252660405180606001604052806027815260200161388060279139611a89565b905090565b606080600367ffffffffffffffff8111801561254657600080fd5b506040519080825280602002602001820160405280156125755781602001602082028036833780820191505090505b509050828160008151811061258657fe5b6020026020010181815250506001608060020a038416816001815181106125a957fe5b602002602001018181525050608084901c816002815181106125c757fe5b6020026020010181815250508091505092915050565b6000806125e8613257565b90508060000160008473ffffffffffffffffffffffffffffffffffffffff1673ffffffffffffffffffffffffffffffffffffffff16815260200190815260200160002060009054906101000a900460ff16915050919050565b6000808211801561267157507f080000000000001100000000000000000000000000000000000000000000000182105b9050919050565b61269a6040518060600160405280602781526020016138806027913982613542565b50565b6126dd6040518060400160405280601f81526020017f535441524b4e45545f544f4b454e5f4252494447455f49535f4143544956450081525060016135ce565b565b6126e8336125dd565b61275a576040517f08c379a000000000000000000000000000000000000000000000000000000000815260040180806020018281038252600f8152602001807f4f4e4c595f474f5645524e414e4345000000000000000000000000000000000081525060200191505060405180910390fd5b6000612764613257565b9050600073ffffffffffffffffffffffffffffffffffffffff168273ffffffffffffffffffffffffffffffffffffffff161415612809576040517f08c379a000000000000000000000000000000000000000000000000000000000815260040180806020018281038252600b8152602001807f4241445f4144445245535300000000000000000000000000000000000000000081525060200191505060405180910390fd5b612812826125dd565b15612885576040517f08c379a00000000000000000000000000000000000000000000000000000000081526004018080602001828103825260108152602001807f414c52454144595f474f5645524e4f520000000000000000000000000000000081525060200191505060405180910390fd5b600073ffffffffffffffffffffffffffffffffffffffff168160010160009054906101000a900473ffffffffffffffffffffffffffffffffffffffff1673ffffffffffffffffffffffffffffffffffffffff161461294b576040517f08c379a00000000000000000000000000000000000000000000000000000000081526004018080602001828103825260178152602001807f4f544845525f43414e4449444154455f50454e44494e4700000000000000000081525060200191505060405180910390fd5b818160010160006101000a81548173ffffffffffffffffffffffffffffffffffffffff021916908373ffffffffffffffffffffffffffffffffffffffff1602179055507f6166272c8d3f5f579082f2827532732f97195007983bb5b83ac12c56700b01a682604051808273ffffffffffffffffffffffffffffffffffffffff16815260200191505060405180910390a15050565b612a016040518060600160405280602781526020016138a7602791398261364c565b50565b612a266040518060600160405280602181526020016138f7602191398261364c565b50565b612a316107a6565b612aa3576040517f08c379a000000000000000000000000000000000000000000000000000000000815260040180806020018281038252600e8152602001807f4e4f545f4143544956455f59455400000000000000000000000000000000000081525060200191505060405180910390fd5b60008311612b19576040517f08c379a000000000000000000000000000000000000000000000000000000000815260040180806020018281038252600c8152602001807f5a45524f5f4445504f534954000000000000000000000000000000000000000081525060200191505060405180910390fd5b80341015612b8f576040517f08c379a00000000000000000000000000000000000000000000000000000000081526004018080602001828103825260168152602001807f494e53554646494349454e545f4d53475f56414c55450000000000000000000081525060200191505060405180910390fd5b612b9882612641565b612c0a576040517f08c379a00000000000000000000000000000000000000000000000000000000081526004018080602001828103825260178152602001807f4c325f414444524553535f4f55545f4f465f52414e474500000000000000000081525060200191505060405180910390fd5b612c12610e5a565b831115612c6a576040517f08c379a000000000000000000000000000000000000000000000000000000000815260040180806020018281038252602481526020018061385c6024913960400191505060405180910390fd5b6000612c746124db565b73ffffffffffffffffffffffffffffffffffffffff16633e3aa6c583612c98612503565b7f02d757788a8d8d6f21d1cd40bce38a8222d70654214e96ff95d8086e684fbee5612cc3898961252b565b6040518563ffffffff1660e01b81526004018084815260200183815260200180602001828103825283818151815260200191508051906020019060200280838360005b83811015612d21578082015181840152602081019050612d06565b5050505090500194505050505060408051808303818588803b158015612d4657600080fd5b505af1158015612d5a573d6000803e3d6000fd5b50505050506040513d6040811015612d7157600080fd5b810190808051906020019092919080519060200190929190505050915050600073ffffffffffffffffffffffffffffffffffffffff16612daf6124b3565b600083815260200190815260200160002060009054906101000a900473ffffffffffffffffffffffffffffffffffffffff1673ffffffffffffffffffffffffffffffffffffffff1614612e6a576040517f08c379a000000000000000000000000000000000000000000000000000000000815260040180806020018281038252601a8152602001807f4445504f5349545f414c52454144595f5245474953544552454400000000000081525060200191505060405180910390fd5b33612e736124b3565b600083815260200190815260200160002060006101000a81548173ffffffffffffffffffffffffffffffffffffffff021916908373ffffffffffffffffffffffffffffffffffffffff160217905550823373ffffffffffffffffffffffffffffffffffffffff167f5b5dbc6c64043a15d3fe6943a6e443a826b78755edc257b2ec890c022225dbcf86848660405180848152602001838152602001828152602001935050505060405180910390a350505050565b612f30336125dd565b612fa2576040517f08c379a000000000000000000000000000000000000000000000000000000000815260040180806020018281038252600f8152602001807f4f4e4c595f474f5645524e414e4345000000000000000000000000000000000081525060200191505060405180910390fd5b8073ffffffffffffffffffffffffffffffffffffffff163373ffffffffffffffffffffffffffffffffffffffff161415613044576040517f08c379a00000000000000000000000000000000000000000000000000000000081526004018080602001828103825260148152602001807f474f5645524e4f525f53454c465f52454d4f564500000000000000000000000081525060200191505060405180910390fd5b600061304e613257565b9050613059826125dd565b6130cb576040517f08c379a000000000000000000000000000000000000000000000000000000000815260040180806020018281038252600c8152602001807f4e4f545f474f5645524e4f52000000000000000000000000000000000000000081525060200191505060405180910390fd5b60008160000160008473ffffffffffffffffffffffffffffffffffffffff1673ffffffffffffffffffffffffffffffffffffffff16815260200190815260200160002060006101000a81548160ff0219169083151502179055507fd75f94825e770b8b512be8e74759e252ad00e102e38f50cce2f7c6f868a2959982604051808273ffffffffffffffffffffffffffffffffffffffff16815260200191505060405180910390a15050565b60008273ffffffffffffffffffffffffffffffffffffffff168260405180600001905060006040518083038185875af1925050503d80600081146131d6576040519150601f19603f3d011682016040523d82523d6000602084013e6131db565b606091505b5050905080613252576040517f08c379a00000000000000000000000000000000000000000000000000000000081526004018080602001828103825260138152602001807f4554485f5452414e534645525f4641494c45440000000000000000000000000081525060200191505060405180910390fd5b505050565b6000807f000000000000000000000000000000000000000000000000000000000000000090508091505090565b61328d816125dd565b15613300576040517f08c379a00000000000000000000000000000000000000000000000000000000081526004018080602001828103825260108152602001807f414c52454144595f474f5645524e4f520000000000000000000000000000000081525060200191505060405180910390fd5b600061330a613257565b905060018160000160008473ffffffffffffffffffffffffffffffffffffffff1673ffffffffffffffffffffffffffffffffffffffff16815260200190815260200160002060006101000a81548160ff0219169083151502179055507fcfb473e6c03f9a29ddaf990e736fa3de5188a0bd85d684f5b6e164ebfbfff5d282604051808273ffffffffffffffffffffffffffffffffffffffff16815260200191505060405180910390a15050565b600080823b905060008111915050919050565b600090565b60006133f260405180606001604052806029815260200161393a602991396134c1565b905090565b61341960405180606001604052806029815260200161393a60299139826136ca565b50565b61343e60405180606001604052806028815260200161383460289139826136ca565b50565b600080826040516020018082805190602001908083835b6020831061347b5780518252602082019150602081019050602083039250613458565b6001836020036101000a03801982511681845116808217855250505050505090500191505060405160208183030381529060405280519060200120905080915050919050565b600080826040516020018082805190602001908083835b602083106134fb57805182526020820191506020810190506020830392506134d8565b6001836020036101000a0380198251168184511680821785525050505050509050019150506040516020818303038152906040528051906020012090508054915050919050565b600061354d83611a89565b146135c0576040517f08c379a000000000000000000000000000000000000000000000000000000000815260040180806020018281038252600b8152602001807f414c52454144595f53455400000000000000000000000000000000000000000081525060200191505060405180910390fd5b6135ca828261364c565b5050565b6000826040516020018082805190602001908083835b6020831061360757805182526020820191506020810190506020830392506135e4565b6001836020036101000a038019825116818451168082178552505050505050905001915050604051602081830303815290604052805190602001209050818155505050565b6000826040516020018082805190602001908083835b602083106136855780518252602082019150602081019050602083039250613662565b6001836020036101000a038019825116818451168082178552505050505050905001915050604051602081830303815290604052805190602001209050818155505050565b600073ffffffffffffffffffffffffffffffffffffffff166136eb836134c1565b73ffffffffffffffffffffffffffffffffffffffff1614613774576040517f08c379a000000000000000000000000000000000000000000000000000000000815260040180806020018281038252600b8152602001807f414c52454144595f53455400000000000000000000000000000000000000000081525060200191505060405180910390fd5b61377e8282613782565b5050565b6000826040516020018082805190602001908083835b602083106137bb5780518252602082019150602081019050602083039250613798565b6001836020036101000a038019825116818451168082178552505050505050905001915050604051602081830303815290604052805190602001209050818155505050565b6000808585111561381057600080fd5b8386111561381d57600080fd5b600185028301915084860390509450949250505056fe535441524b4e45545f544f4b454e5f4252494447455f4d4553534147494e475f434f4e54524143545452414e534645525f544f5f535441524b4e45545f414d4f554e545f4558434545444544535441524b4e45545f544f4b454e5f4252494447455f4c325f544f4b454e5f434f4e5452414354535441524b4e45545f544f4b454e5f4252494447455f4d41585f544f54414c5f42414c414e4345535441524b4e45545f544f4b454e5f4252494447455f4445504f5349544f525f414444524553534553535441524b4e45545f544f4b454e5f4252494447455f4d41585f4445504f534954494e56414c49445f4d4553534147494e475f434f4e54524143545f41444452455353535441524b4e45545f45524332305f544f4b454e5f4252494447455f544f4b454e5f41444452455353537461726b576172655f537461726b6e65744574684272696467655f323032325f31a26469706673582212207aab1d106b9917d297e454122168079663cb91e328193730d9c65607dc442e7064736f6c634300060c0033535441524b574152455f44454641554c545f474f5645524e414e43455f494e464f",
    "linkReferences": {}
  },
  "methodIdentifiers": {
    "acceptGovernance()": "238efcbc",
    "cancelNomination()": "10f2ec45",
    "deposit(uint256)": "b6b55f25",
    "deposit(uint256,uint256)": "e2bbb158",
    "depositCancelRequest(uint256,uint256,uint256)": "4c567662",
    "depositReclaim(uint256,uint256,uint256)": "ae873816",
    "identify()": "eeb72866",
    "initialize(bytes)": "439fab91",
    "isActive()": "22f3e2d4",
    "isFrozen()": "33eeb147",
    "isGovernor(address)": "e43581b8",
    "maxDeposit()": "6083e59a",
    "maxTotalBalance()": "19534075",
    "nominateNewGovernor(address)": "87ebeb18",
    "removeGovernor(address)": "eecdac88",
    "setL2TokenBridge(uint256)": "7fc2ab3e",
    "setMaxDeposit(uint256)": "bb371fdd",
    "setMaxTotalBalance(uint256)": "894ecf04",
    "withdraw(uint256)": "2e1a7d4d",
    "withdraw(uint256,address)": "00f714ce"
  },
  "id": 15
}