{
  "abi": [
    {
      "type": "function",
      "name": "aggregatorProgramHash",
      "inputs": [],
      "outputs": [
        {
          "name": "",
          "type": "uint256",
          "internalType": "uint256"
        }
      ],
      "stateMutability": "view"
    },
    {
      "type": "function",
      "name": "cancelL1ToL2Message",
      "inputs": [
        {
          "name": "toAddress",
          "type": "uint256",
          "internalType": "uint256"
        },
        {
          "name": "selector",
          "type": "uint256",
          "internalType": "uint256"
        },
        {
          "name": "payload",
          "type": "uint256[]",
          "internalType": "uint256[]"
        },
        {
          "name": "nonce",
          "type": "uint256",
          "internalType": "uint256"
        }
      ],
      "outputs": [
        {
          "name": "",
          "type": "bytes32",
          "internalType": "bytes32"
        }
      ],
      "stateMutability": "nonpayable"
    },
    {
      "type": "function",
      "name": "configHash",
      "inputs": [],
      "outputs": [
        {
          "name": "",
          "type": "uint256",
          "internalType": "uint256"
        }
      ],
      "stateMutability": "view"
    },
    {
      "type": "function",
      "name": "consumeMessageFromL2",
      "inputs": [
        {
          "name": "fromAddress",
          "type": "uint256",
          "internalType": "uint256"
        },
        {
          "name": "payload",
          "type": "uint256[]",
          "internalType": "uint256[]"
        }
      ],
      "outputs": [
        {
          "name": "",
          "type": "bytes32",
          "internalType": "bytes32"
        }
      ],
      "stateMutability": "nonpayable"
    },
    {
      "type": "function",
      "name": "finalize",
      "inputs": [],
      "outputs": [],
      "stateMutability": "nonpayable"
    },
    {
      "type": "function",
      "name": "getMaxL1MsgFee",
      "inputs": [],
      "outputs": [
        {
          "name": "",
          "type": "uint256",
          "internalType": "uint256"
        }
      ],
      "stateMutability": "pure"
    },
    {
      "type": "function",
      "name": "identify",
      "inputs": [],
      "outputs": [
        {
          "name": "",
          "type": "string",
          "internalType": "string"
        }
      ],
      "stateMutability": "pure"
    },
    {
      "type": "function",
      "name": "initialize",
      "inputs": [
        {
          "name": "data",
          "type": "bytes",
          "internalType": "bytes"
        }
      ],
      "outputs": [],
      "stateMutability": "nonpayable"
    },
    {
      "type": "function",
      "name": "isFinalized",
      "inputs": [],
      "outputs": [
        {
          "name": "",
          "type": "bool",
          "internalType": "bool"
        }
      ],
      "stateMutability": "view"
    },
    {
      "type": "function",
      "name": "isFrozen",
      "inputs": [],
      "outputs": [
        {
          "name": "",
          "type": "bool",
          "internalType": "bool"
        }
      ],
      "stateMutability": "view"
    },
    {
      "type": "function",
      "name": "isOperator",
      "inputs": [
        {
          "name": "user",
          "type": "address",
          "internalType": "address"
        }
      ],
      "outputs": [
        {
          "name": "",
          "type": "bool",
          "internalType": "bool"
        }
      ],
      "stateMutability": "view"
    },
    {
      "type": "function",
      "name": "l1ToL2MessageCancellations",
      "inputs": [
        {
          "name": "msgHash",
          "type": "bytes32",
          "internalType": "bytes32"
        }
      ],
      "outputs": [
        {
          "name": "",
          "type": "uint256",
          "internalType": "uint256"
        }
      ],
      "stateMutability": "view"
    },
    {
      "type": "function",
      "name": "l1ToL2MessageNonce",
      "inputs": [],
      "outputs": [
        {
          "name": "",
          "type": "uint256",
          "internalType": "uint256"
        }
      ],
      "stateMutability": "view"
    },
    {
      "type": "function",
      "name": "l1ToL2Messages",
      "inputs": [
        {
          "name": "msgHash",
          "type": "bytes32",
          "internalType": "bytes32"
        }
      ],
      "outputs": [
        {
          "name": "",
          "type": "uint256",
          "internalType": "uint256"
        }
      ],
      "stateMutability": "view"
    },
    {
      "type": "function",
      "name": "l1ToL2MsgHash",
      "inputs": [
        {
          "name": "fromAddress",
          "type": "address",
          "internalType": "address"
        },
        {
          "name": "toAddress",
          "type": "uint256",
          "internalType": "uint256"
        },
        {
          "name": "selector",
          "type": "uint256",
          "internalType": "uint256"
        },
        {
          "name": "payload",
          "type": "uint256[]",
          "internalType": "uint256[]"
        },
        {
          "name": "nonce",
          "type": "uint256",
          "internalType": "uint256"
        }
      ],
      "outputs": [
        {
          "name": "",
          "type": "bytes32",
          "internalType": "bytes32"
        }
      ],
      "stateMutability": "pure"
    },
    {
      "type": "function",
      "name": "l2ToL1Messages",
      "inputs": [
        {
          "name": "msgHash",
          "type": "bytes32",
          "internalType": "bytes32"
        }
      ],
      "outputs": [
        {
          "name": "",
          "type": "uint256",
          "internalType": "uint256"
        }
      ],
      "stateMutability": "view"
    },
    {
      "type": "function",
      "name": "l2ToL1MsgHash",
      "inputs": [
        {
          "name": "fromAddress",
          "type": "uint256",
          "internalType": "uint256"
        },
        {
          "name": "toAddress",
          "type": "address",
          "internalType": "address"
        },
        {
          "name": "payload",
          "type": "uint256[]",
          "internalType": "uint256[]"
        }
      ],
      "outputs": [
        {
          "name": "",
          "type": "bytes32",
          "internalType": "bytes32"
        }
      ],
      "stateMutability": "pure"
    },
    {
      "type": "function",
      "name": "messageCancellationDelay",
      "inputs": [],
      "outputs": [
        {
          "name": "",
          "type": "uint256",
          "internalType": "uint256"
        }
      ],
      "stateMutability": "view"
    },
    {
      "type": "function",
      "name": "programHash",
      "inputs": [],
      "outputs": [
        {
          "name": "",
          "type": "uint256",
          "internalType": "uint256"
        }
      ],
      "stateMutability": "view"
    },
    {
      "type": "function",
      "name": "registerOperator",
      "inputs": [
        {
          "name": "newOperator",
          "type": "address",
          "internalType": "address"
        }
      ],
      "outputs": [],
      "stateMutability": "nonpayable"
    },
    {
      "type": "function",
      "name": "sendMessageToL2",
      "inputs": [
        {
          "name": "toAddress",
          "type": "uint256",
          "internalType": "uint256"
        },
        {
          "name": "selector",
          "type": "uint256",
          "internalType": "uint256"
        },
        {
          "name": "payload",
          "type": "uint256[]",
          "internalType": "uint256[]"
        }
      ],
      "outputs": [
        {
          "name": "",
          "type": "bytes32",
          "internalType": "bytes32"
        },
        {
          "name": "",
          "type": "uint256",
          "internalType": "uint256"
        }
      ],
      "stateMutability": "payable"
    },
    {
      "type": "function",
      "name": "setAggregatorProgramHash",
      "inputs": [
        {
          "name": "newAggregatorProgramHash",
          "type": "uint256",
          "internalType": "uint256"
        }
      ],
      "outputs": [],
      "stateMutability": "nonpayable"
    },
    {
      "type": "function",
      "name": "setConfigHash",
      "inputs": [
        {
          "name": "newConfigHash",
          "type": "uint256",
          "internalType": "uint256"
        }
      ],
      "outputs": [],
      "stateMutability": "nonpayable"
    },
    {
      "type": "function",
      "name": "setMessageCancellationDelay",
      "inputs": [
        {
          "name": "delayInSeconds",
          "type": "uint256",
          "internalType": "uint256"
        }
      ],
      "outputs": [],
      "stateMutability": "nonpayable"
    },
    {
      "type": "function",
      "name": "setProgramHash",
      "inputs": [
        {
          "name": "newProgramHash",
          "type": "uint256",
          "internalType": "uint256"
        }
      ],
      "outputs": [],
      "stateMutability": "nonpayable"
    },
    {
      "type": "function",
      "name": "starknetAcceptGovernance",
      "inputs": [],
      "outputs": [],
      "stateMutability": "nonpayable"
    },
    {
      "type": "function",
      "name": "starknetCancelNomination",
      "inputs": [],
      "outputs": [],
      "stateMutability": "nonpayable"
    },
    {
      "type": "function",
      "name": "starknetIsGovernor",
      "inputs": [
        {
          "name": "user",
          "type": "address",
          "internalType": "address"
        }
      ],
      "outputs": [
        {
          "name": "",
          "type": "bool",
          "internalType": "bool"
        }
      ],
      "stateMutability": "view"
    },
    {
      "type": "function",
      "name": "starknetNominateNewGovernor",
      "inputs": [
        {
          "name": "newGovernor",
          "type": "address",
          "internalType": "address"
        }
      ],
      "outputs": [],
      "stateMutability": "nonpayable"
    },
    {
      "type": "function",
      "name": "starknetRemoveGovernor",
      "inputs": [
        {
          "name": "governorForRemoval",
          "type": "address",
          "internalType": "address"
        }
      ],
      "outputs": [],
      "stateMutability": "nonpayable"
    },
    {
      "type": "function",
      "name": "startL1ToL2MessageCancellation",
      "inputs": [
        {
          "name": "toAddress",
          "type": "uint256",
          "internalType": "uint256"
        },
        {
          "name": "selector",
          "type": "uint256",
          "internalType": "uint256"
        },
        {
          "name": "payload",
          "type": "uint256[]",
          "internalType": "uint256[]"
        },
        {
          "name": "nonce",
          "type": "uint256",
          "internalType": "uint256"
        }
      ],
      "outputs": [
        {
          "name": "",
          "type": "bytes32",
          "internalType": "bytes32"
        }
      ],
      "stateMutability": "nonpayable"
    },
    {
      "type": "function",
      "name": "stateBlockHash",
      "inputs": [],
      "outputs": [
        {
          "name": "",
          "type": "uint256",
          "internalType": "uint256"
        }
      ],
      "stateMutability": "view"
    },
    {
      "type": "function",
      "name": "stateBlockNumber",
      "inputs": [],
      "outputs": [
        {
          "name": "",
          "type": "int256",
          "internalType": "int256"
        }
      ],
      "stateMutability": "view"
    },
    {
      "type": "function",
      "name": "stateRoot",
      "inputs": [],
      "outputs": [
        {
          "name": "",
          "type": "uint256",
          "internalType": "uint256"
        }
      ],
      "stateMutability": "view"
    },
    {
      "type": "function",
      "name": "unregisterOperator",
      "inputs": [
        {
          "name": "removedOperator",
          "type": "address",
          "internalType": "address"
        }
      ],
      "outputs": [],
      "stateMutability": "nonpayable"
    },
    {
      "type": "function",
      "name": "updateState",
      "inputs": [
        {
          "name": "programOutput",
          "type": "uint256[]",
          "internalType": "uint256[]"
        },
        {
          "name": "onchainDataHash",
          "type": "uint256",
          "internalType": "uint256"
        },
        {
          "name": "onchainDataSize",
          "type": "uint256",
          "internalType": "uint256"
        }
      ],
      "outputs": [],
      "stateMutability": "nonpayable"
    },
    {
      "type": "function",
      "name": "updateStateKzgDA",
      "inputs": [
        {
          "name": "programOutput",
          "type": "uint256[]",
          "internalType": "uint256[]"
        },
        {
          "name": "kzgProofs",
          "type": "bytes[]",
          "internalType": "bytes[]"
        }
      ],
      "outputs": [],
      "stateMutability": "nonpayable"
    },
    {
      "type": "function",
      "name": "updateStateOverride",
      "inputs": [
        {
          "name": "globalRoot",
          "type": "uint256",
          "internalType": "uint256"
        },
        {
          "name": "blockNumber",
          "type": "int256",
          "internalType": "int256"
        },
        {
          "name": "blockHash",
          "type": "uint256",
          "internalType": "uint256"
        }
      ],
      "outputs": [],
      "stateMutability": "nonpayable"
    },
    {
      "type": "event",
      "name": "AggregatorProgramHashChanged",
      "inputs": [
        {
          "name": "changedBy",
          "type": "address",
          "indexed": true,
          "internalType": "address"
        },
        {
          "name": "oldAggregatorProgramHash",
          "type": "uint256",
          "indexed": false,
          "internalType": "uint256"
        },
        {
          "name": "newAggregatorProgramHash",
          "type": "uint256",
          "indexed": false,
          "internalType": "uint256"
        }
      ],
      "anonymous": false
    },
    {
      "type": "event",
      "name": "ConfigHashChanged",
      "inputs": [
        {
          "name": "changedBy",
          "type": "address",
          "indexed": true,
          "internalType": "address"
        },
        {
          "name": "oldConfigHash",
          "type": "uint256",
          "indexed": false,
          "internalType": "uint256"
        },
        {
          "name": "newConfigHash",
          "type": "uint256",
          "indexed": false,
          "internalType": "uint256"
        }
      ],
      "anonymous": false
    },
    {
      "type": "event",
      "name": "ConsumedMessageToL1",
      "inputs": [
        {
          "name": "fromAddress",
          "type": "uint256",
          "indexed": true,
          "internalType": "uint256"
        },
        {
          "name": "toAddress",
          "type": "address",
          "indexed": true,
          "internalType": "address"
        },
        {
          "name": "payload",
          "type": "uint256[]",
          "indexed": false,
          "internalType": "uint256[]"
        }
      ],
      "anonymous": false
    },
    {
      "type": "event",
      "name": "ConsumedMessageToL2",
      "inputs": [
        {
          "name": "fromAddress",
          "type": "address",
          "indexed": true,
          "internalType": "address"
        },
        {
          "name": "toAddress",
          "type": "uint256",
          "indexed": true,
          "internalType": "uint256"
        },
        {
          "name": "selector",
          "type": "uint256",
          "indexed": true,
          "internalType": "uint256"
        },
        {
          "name": "payload",
          "type": "uint256[]",
          "indexed": false,
          "internalType": "uint256[]"
        },
        {
          "name": "nonce",
          "type": "uint256",
          "indexed": false,
          "internalType": "uint256"
        }
      ],
      "anonymous": false
    },
    {
      "type": "event",
      "name": "Finalized",
      "inputs": [],
      "anonymous": false
    },
    {
      "type": "event",
      "name": "LogMessageToL1",
      "inputs": [
        {
          "name": "fromAddress",
          "type": "uint256",
          "indexed": true,
          "internalType": "uint256"
        },
        {
          "name": "toAddress",
          "type": "address",
          "indexed": true,
          "internalType": "address"
        },
        {
          "name": "payload",
          "type": "uint256[]",
          "indexed": false,
          "internalType": "uint256[]"
        }
      ],
      "anonymous": false
    },
    {
      "type": "event",
      "name": "LogMessageToL2",
      "inputs": [
        {
          "name": "fromAddress",
          "type": "address",
          "indexed": true,
          "internalType": "address"
        },
        {
          "name": "toAddress",
          "type": "uint256",
          "indexed": true,
          "internalType": "uint256"
        },
        {
          "name": "selector",
          "type": "uint256",
          "indexed": true,
          "internalType": "uint256"
        },
        {
          "name": "payload",
          "type": "uint256[]",
          "indexed": false,
          "internalType": "uint256[]"
        },
        {
          "name": "nonce",
          "type": "uint256",
          "indexed": false,
          "internalType": "uint256"
        },
        {
          "name": "fee",
          "type": "uint256",
          "indexed": false,
          "internalType": "uint256"
        }
      ],
      "anonymous": false
    },
    {
      "type": "event",
      "name": "LogNewGovernorAccepted",
      "inputs": [
        {
          "name": "acceptedGovernor",
          "type": "address",
          "indexed": false,
          "internalType": "address"
        }
      ],
      "anonymous": false
    },
    {
      "type": "event",
      "name": "LogNominatedGovernor",
      "inputs": [
        {
          "name": "nominatedGovernor",
          "type": "address",
          "indexed": false,
          "internalType": "address"
        }
      ],
      "anonymous": false
    },
    {
      "type": "event",
      "name": "LogNominationCancelled",
      "inputs": [],
      "anonymous": false
    },
    {
      "type": "event",
      "name": "LogOperatorAdded",
      "inputs": [
        {
          "name": "operator",
          "type": "address",
          "indexed": false,
          "internalType": "address"
        }
      ],
      "anonymous": false
    },
    {
      "type": "event",
      "name": "LogOperatorRemoved",
      "inputs": [
        {
          "name": "operator",
          "type": "address",
          "indexed": false,
          "internalType": "address"
        }
      ],
      "anonymous": false
    },
    {
      "type": "event",
      "name": "LogRemovedGovernor",
      "inputs": [
        {
          "name": "removedGovernor",
          "type": "address",
          "indexed": false,
          "internalType": "address"
        }
      ],
      "anonymous": false
    },
    {
      "type": "event",
      "name": "LogStateTransitionFact",
      "inputs": [
        {
          "name": "stateTransitionFact",
          "type": "bytes32",
          "indexed": false,
          "internalType": "bytes32"
        }
      ],
      "anonymous": false
    },
    {
      "type": "event",
      "name": "LogStateUpdate",
      "inputs": [
        {
          "name": "globalRoot",
          "type": "uint256",
          "indexed": false,
          "internalType": "uint256"
        },
        {
          "name": "blockNumber",
          "type": "int256",
          "indexed": false,
          "internalType": "int256"
        },
        {
          "name": "blockHash",
          "type": "uint256",
          "indexed": false,
          "internalType": "uint256"
        }
      ],
      "anonymous": false
    },
    {
      "type": "event",
      "name": "MessageToL2Canceled",
      "inputs": [
        {
          "name": "fromAddress",
          "type": "address",
          "indexed": true,
          "internalType": "address"
        },
        {
          "name": "toAddress",
          "type": "uint256",
          "indexed": true,
          "internalType": "uint256"
        },
        {
          "name": "selector",
          "type": "uint256",
          "indexed": true,
          "internalType": "uint256"
        },
        {
          "name": "payload",
          "type": "uint256[]",
          "indexed": false,
          "internalType": "uint256[]"
        },
        {
          "name": "nonce",
          "type": "uint256",
          "indexed": false,
          "internalType": "uint256"
        }
      ],
      "anonymous": false
    },
    {
      "type": "event",
      "name": "MessageToL2CancellationStarted",
      "inputs": [
        {
          "name": "fromAddress",
          "type": "address",
          "indexed": true,
          "internalType": "address"
        },
        {
          "name": "toAddress",
          "type": "uint256",
          "indexed": true,
          "internalType": "uint256"
        },
        {
          "name": "selector",
          "type": "uint256",
          "indexed": true,
          "internalType": "uint256"
        },
        {
          "name": "payload",
          "type": "uint256[]",
          "indexed": false,
          "internalType": "uint256[]"
        },
        {
          "name": "nonce",
          "type": "uint256",
          "indexed": false,
          "internalType": "uint256"
        }
      ],
      "anonymous": false
    },
    {
      "type": "event",
      "name": "ProgramHashChanged",
      "inputs": [
        {
          "name": "changedBy",
          "type": "address",
          "indexed": true,
          "internalType": "address"
        },
        {
          "name": "oldProgramHash",
          "type": "uint256",
          "indexed": false,
          "internalType": "uint256"
        },
        {
          "name": "newProgramHash",
          "type": "uint256",
          "indexed": false,
          "internalType": "uint256"
        }
      ],
      "anonymous": false
    }
  ],
  "bytecode": {
    "object": "0x60a0604052348015600e575f5ffd5b503073ffffffffffffffffffffffffffffffffffffffff1660808173ffffffffffffffffffffffffffffffffffffffff1681525050608051616b5261005b5f395f610e0c0152616b525ff3fe608060405260043610610224575f3560e01c80637a98660b1161012257806396115bc2116100aa578063e1f1176d1161006e578063e1f1176d1461080f578063e37fec2514610839578063e87e73321461084f578063eb27feeb14610877578063eeb72866146108a157610224565b806396115bc21461070b5780639be446bf14610733578063a46efaf31461076f578063b64b6737146107ab578063c99d397f146107e757610224565b80638d4e4083116100f15780638d4e4083146106515780639020429c1461067b57806391a66a26146106a3578063946be3ed146106cb5780639588eca2146106e157610224565b80637a98660b146105995780638303bd8a146105d557806384f921cd146105ff5780638a9bf0901461062757610224565b80633e3aa6c5116101b057806361538cad1161017457806361538cad146104955780636170ff1b146104bd5780636d70f7ae146104f9578063775526411461053557806377c7d7a91461055d57610224565b80633e3aa6c5146103d4578063439fab91146104055780634bb278f31461042d578063507ee5281461044357806354eccba41461046b57610224565b806335befa5d116101f757806335befa5d146102f45780633682a4501461031e578063382d83e3146103465780633d07b336146103705780633d8a5df81461039857610224565b8063018cccdf1461022857806301a01590146102525780632c9dd5c01461028e57806333eeb147146102ca575b5f5ffd5b348015610233575f5ffd5b5061023c6108cb565b604051610249919061413c565b60405180910390f35b34801561025d575f5ffd5b50610278600480360381019061027391906141c0565b61090f565b6040516102859190614205565b60405180910390f35b348015610299575f5ffd5b506102b460048036038101906102af91906142a9565b610920565b6040516102c1919061431e565b60405180910390f35b3480156102d5575f5ffd5b506102de610a13565b6040516102eb9190614205565b60405180910390f35b3480156102ff575f5ffd5b50610308610a1a565b604051610315919061434f565b60405180910390f35b348015610329575f5ffd5b50610344600480360381019061033f91906141c0565b610a2c565b005b348015610351575f5ffd5b5061035a610b17565b604051610367919061413c565b60405180910390f35b34801561037b575f5ffd5b5061039660048036038101906103919190614368565b610b29565b005b3480156103a3575f5ffd5b506103be60048036038101906103b99190614393565b610c1c565b6040516103cb919061431e565b60405180910390f35b6103ee60048036038101906103e99190614404565b610c6f565b6040516103fc929190614475565b60405180910390f35b348015610410575f5ffd5b5061042b600480360381019061042691906144f1565b610df3565b005b348015610438575f5ffd5b50610441611014565b005b34801561044e575f5ffd5b5061046960048036038101906104649190614591565b6110f5565b005b348015610476575f5ffd5b5061047f611254565b60405161048c919061413c565b60405180910390f35b3480156104a0575f5ffd5b506104bb60048036038101906104b69190614639565b611263565b005b3480156104c8575f5ffd5b506104e360048036038101906104de9190614689565b6112ce565b6040516104f0919061431e565b60405180910390f35b348015610504575f5ffd5b5061051f600480360381019061051a91906141c0565b6114b6565b60405161052c9190614205565b60405180910390f35b348015610540575f5ffd5b5061055b6004803603810190610556919061470d565b61150e565b005b348015610568575f5ffd5b50610583600480360381019061057e91906147a8565b611664565b604051610590919061413c565b60405180910390f35b3480156105a4575f5ffd5b506105bf60048036038101906105ba9190614689565b611684565b6040516105cc919061431e565b60405180910390f35b3480156105e0575f5ffd5b506105e9611771565b6040516105f6919061413c565b60405180910390f35b34801561060a575f5ffd5b50610625600480360381019061062091906141c0565b611798565b005b348015610632575f5ffd5b5061063b6117a4565b604051610648919061413c565b60405180910390f35b34801561065c575f5ffd5b506106656117cb565b6040516106729190614205565b60405180910390f35b348015610686575f5ffd5b506106a1600480360381019061069c9190614368565b6117f2565b005b3480156106ae575f5ffd5b506106c960048036038101906106c491906141c0565b6118e5565b005b3480156106d6575f5ffd5b506106df6118f1565b005b3480156106ec575f5ffd5b506106f56118fb565b604051610702919061413c565b60405180910390f35b348015610716575f5ffd5b50610731600480360381019061072c91906141c0565b61190c565b005b34801561073e575f5ffd5b50610759600480360381019061075491906147a8565b6119f7565b604051610766919061413c565b60405180910390f35b34801561077a575f5ffd5b50610795600480360381019061079091906147a8565b611a17565b6040516107a2919061413c565b60405180910390f35b3480156107b6575f5ffd5b506107d160048036038101906107cc91906147d3565b611a37565b6040516107de919061431e565b60405180910390f35b3480156107f2575f5ffd5b5061080d60048036038101906108089190614368565b611a90565b005b34801561081a575f5ffd5b50610823611b2c565b604051610830919061413c565b60405180910390f35b348015610844575f5ffd5b5061084d611b53565b005b34801561085a575f5ffd5b5061087560048036038101906108709190614368565b611b5d565b005b348015610882575f5ffd5b5061088b611c50565b604051610898919061413c565b60405180910390f35b3480156108ac575f5ffd5b506108b5611c77565b6040516108c291906148d9565b60405180910390f35b5f61090a6040518060400160405280602081526020017f535441524b4e45545f312e305f4d5347494e475f4c31544f4c325f4e4f4e4345815250611cb4565b905090565b5f61091982611ce9565b9050919050565b5f5f61092e85338686610c1c565b90505f610939611d48565b5f8381526020019081526020015f205411610989576040517f08c379a000000000000000000000000000000000000000000000000000000000815260040161098090614943565b60405180910390fd5b3373ffffffffffffffffffffffffffffffffffffffff16857f7a06c571aa77f34d9706c51e5d8122b5595aebeaa34233bfe866f22befb973b186866040516109d29291906149d9565b60405180910390a360016109e4611d48565b5f8381526020019081526020015f205f828254610a019190614a28565b92505081905550809150509392505050565b5f5f905090565b5f610a23611d6f565b60010154905090565b610a3533611ce9565b610a74576040517f08c379a0000000000000000000000000000000000000000000000000000000008152600401610a6b90614aa5565b60405180910390fd5b610a7d816114b6565b610b14576001610a8b611db9565b5f8373ffffffffffffffffffffffffffffffffffffffff1673ffffffffffffffffffffffffffffffffffffffff1681526020019081526020015f205f6101000a81548160ff0219169083151502179055507f50a18c352ee1c02ffe058e15c2eb6e58be387c81e73cc1e17035286e54c19a5781604051610b0b9190614ad2565b60405180910390a15b50565b5f610b20611d6f565b60020154905090565b610b316117cb565b15610b71576040517f08c379a0000000000000000000000000000000000000000000000000000000008152600401610b6890614b35565b60405180910390fd5b610b7a33611ce9565b610bb9576040517f08c379a0000000000000000000000000000000000000000000000000000000008152600401610bb090614aa5565b60405180910390fd5b3373ffffffffffffffffffffffffffffffffffffffff167f393c6beb5756a944b2967f15f31ff671e312e945d7a84fd3bdcfd6b408b2dc79610bf9611b2c565b83604051610c08929190614b53565b60405180910390a2610c1981611de0565b50565b5f848473ffffffffffffffffffffffffffffffffffffffff16848490508585604051602001610c4f959493929190614bff565b604051602081830303815290604052805190602001209050949350505050565b5f5f5f3411610cb3576040517f08c379a0000000000000000000000000000000000000000000000000000000008152600401610caa90614cba565b60405180910390fd5b610cbb611254565b341115610cfd576040517f08c379a0000000000000000000000000000000000000000000000000000000008152600401610cf490614d22565b60405180910390fd5b5f610d066108cb565b9050610d536040518060400160405280602081526020017f535441524b4e45545f312e305f4d5347494e475f4c31544f4c325f4e4f4e4345815250600183610d4e9190614d40565b611e05565b85873373ffffffffffffffffffffffffffffffffffffffff167fdb80dd488acf86d17c747445b0eabb5d57c541d3bd7b6b87af987858e5066b2b88888634604051610da19493929190614d73565b60405180910390a45f610db8338989898987611a37565b9050600134610dc79190614d40565b610dcf611e37565b5f8381526020019081526020015f2081905550808293509350505094509492505050565b3073ffffffffffffffffffffffffffffffffffffffff167f000000000000000000000000000000000000000000000000000000000000000073ffffffffffffffffffffffffffffffffffffffff1603610e81576040517f08c379a0000000000000000000000000000000000000000000000000000000008152600401610e7890614dfb565b60405180910390fd5b5f610e8a611e5e565b6020610e969190614e19565b90505f602082610ea69190614d40565b905080848490501015610eee576040517f08c379a0000000000000000000000000000000000000000000000000000000008152600401610ee590614ea4565b60405180910390fd5b5f848484908492610f0193929190614eca565b810190610f0e9190614f3f565b9050365f86865f908792610f2493929190614eca565b91509150610f328282611e65565b365f888887908092610f4693929190614eca565b915091505f73ffffffffffffffffffffffffffffffffffffffff168573ffffffffffffffffffffffffffffffffffffffff1614610f9457610f88858383611e69565b50505050505050611010565b610f9c612039565b15610feb575f8282905014610fe6576040517f08c379a0000000000000000000000000000000000000000000000000000000008152600401610fdd90614fb4565b60405180910390fd5b611008565b610ff5828261204a565b610fff82826120fa565b61100761216b565b5b505050505050505b5050565b61101d33611ce9565b61105c576040517f08c379a000000000000000000000000000000000000000000000000000000000815260040161105390614aa5565b60405180910390fd5b6110646117cb565b156110a4576040517f08c379a000000000000000000000000000000000000000000000000000000000815260040161109b90614b35565b60405180910390fd5b6110c7604051806060016040528060318152602001616aec6031913960016121f1565b7f6823b073d48d6e3a7d385eeb601452d680e74bb46afe3255a7d778f3a9b1768160405160405180910390a1565b6110fe336114b6565b61113d576040517f08c379a00000000000000000000000000000000000000000000000000000000081526004016111349061501c565b60405180910390fd5b600a8484905011611183576040517f08c379a000000000000000000000000000000000000000000000000000000000815260040161117a90615084565b60405180910390fd5b61119f8484611190611d6f565b6122239092919063ffffffff16565b6001848460088181106111b5576111b46150a2565b5b90506020020135146111fc576040517f08c379a00000000000000000000000000000000000000000000000000000000081526004016111f390615119565b60405180910390fd5b6112198484600a90809261121293929190615137565b84846122e1565b5f611224858561298c565b90506112318585836129be565b61124d858561123e611d6f565b612d709092919063ffffffff16565b5050505050565b5f670de0b6b3a7640000905090565b61126c336114b6565b6112ab576040517f08c379a00000000000000000000000000000000000000000000000000000000081526004016112a29061501c565b60405180910390fd5b6112c98383836112b9611d6f565b612dd5909392919063ffffffff16565b505050565b5f84863373ffffffffffffffffffffffffffffffffffffffff167f8abd2ec2e0a10c82f5b60ea00455fa96c41fd144f225fcc52b8d83d94f803ed887878760405161131b93929190615171565b60405180910390a45f611332338888888888611a37565b90505f61133d611e37565b5f8381526020019081526020015f205490505f8103611391576040517f08c379a0000000000000000000000000000000000000000000000000000000008152600401611388906151eb565b60405180910390fd5b5f61139a612df5565b5f8481526020019081526020015f205490505f81036113ee576040517f08c379a00000000000000000000000000000000000000000000000000000000081526004016113e590615279565b60405180910390fd5b5f6113f7611771565b826114029190614d40565b905081811015611447576040517f08c379a000000000000000000000000000000000000000000000000000000000815260040161143e906152e1565b60405180910390fd5b8042101561148a576040517f08c379a00000000000000000000000000000000000000000000000000000000081526004016114819061536f565b60405180910390fd5b5f611493611e37565b5f8681526020019081526020015f20819055508394505050505095945050505050565b5f6114bf611db9565b5f8373ffffffffffffffffffffffffffffffffffffffff1673ffffffffffffffffffffffffffffffffffffffff1681526020019081526020015f205f9054906101000a900460ff169050919050565b611517336114b6565b611556576040517f08c379a000000000000000000000000000000000000000000000000000000000815260040161154d9061501c565b60405180910390fd5b600a848490501161159c576040517f08c379a000000000000000000000000000000000000000000000000000000000815260040161159390615084565b60405180910390fd5b6115b884846115a9611d6f565b6122239092919063ffffffff16565b5f848460088181106115cd576115cc6150a2565b5b9050602002013514611614576040517f08c379a000000000000000000000000000000000000000000000000000000000815260040161160b90615119565b60405180910390fd5b5f6116348585604051806040016040528087815260200186815250612e1c565b90506116418585836129be565b61165d858561164e611d6f565b612d709092919063ffffffff16565b5050505050565b5f61166d611e37565b5f8381526020019081526020015f20549050919050565b5f84863373ffffffffffffffffffffffffffffffffffffffff167f2e00dccd686fd6823ec7dc3e125582aa82881b6ff5f6b5a73856e1ea8338a3be8787876040516116d193929190615171565b60405180910390a45f6116e8338888888888611a37565b90505f6116f3611e37565b5f8381526020019081526020015f205490505f8111611747576040517f08c379a000000000000000000000000000000000000000000000000000000000815260040161173e906151eb565b60405180910390fd5b42611750612df5565b5f8481526020019081526020015f2081905550819250505095945050505050565b5f6117936040518060600160405280602d8152602001616a55602d9139611cb4565b905090565b6117a181612e90565b50565b5f6117c6604051806060016040528060238152602001616a3260239139611cb4565b905090565b5f6117ed604051806060016040528060318152602001616aec60319139613029565b905090565b6117fa6117cb565b1561183a576040517f08c379a000000000000000000000000000000000000000000000000000000000815260040161183190614b35565b60405180910390fd5b61184333611ce9565b611882576040517f08c379a000000000000000000000000000000000000000000000000000000000815260040161187990614aa5565b60405180910390fd5b3373ffffffffffffffffffffffffffffffffffffffff167f07688623ef226ae0c2f88d3fdc7f6bb41427c804bcec3f36699b07148e3f53406118c2611c50565b836040516118d1929190614b53565b60405180910390a26118e28161305e565b50565b6118ee81613083565b50565b6118f961329b565b565b5f611904611d6f565b5f0154905090565b61191533611ce9565b611954576040517f08c379a000000000000000000000000000000000000000000000000000000000815260040161194b90614aa5565b60405180910390fd5b61195d816114b6565b156119f4575f61196b611db9565b5f8373ffffffffffffffffffffffffffffffffffffffff1673ffffffffffffffffffffffffffffffffffffffff1681526020019081526020015f205f6101000a81548160ff0219169083151502179055507fec5f6c3a91a1efb1f9a308bb33c6e9e66bf9090fad0732f127dfdbf516d0625d816040516119eb9190614ad2565b60405180910390a15b50565b5f611a00612df5565b5f8381526020019081526020015f20549050919050565b5f611a20611d48565b5f8381526020019081526020015f20549050919050565b5f8673ffffffffffffffffffffffffffffffffffffffff16868387878790508888604051602001611a6e979695949392919061538d565b6040516020818303038152906040528051906020012090509695505050505050565b611a986117cb565b15611ad8576040517f08c379a0000000000000000000000000000000000000000000000000000000008152600401611acf90614b35565b60405180910390fd5b611ae133611ce9565b611b20576040517f08c379a0000000000000000000000000000000000000000000000000000000008152600401611b1790614aa5565b60405180910390fd5b611b2981613385565b50565b5f611b4e604051806060016040528060218152602001616a8260219139611cb4565b905090565b611b5b6133aa565b565b611b656117cb565b15611ba5576040517f08c379a0000000000000000000000000000000000000000000000000000000008152600401611b9c90614b35565b60405180910390fd5b611bae33611ce9565b611bed576040517f08c379a0000000000000000000000000000000000000000000000000000000008152600401611be490614aa5565b60405180910390fd5b3373ffffffffffffffffffffffffffffffffffffffff167f600a61c1b32ac42fb2fe76e8fc7582a98106668fc16dcd85567cd3937363e49b611c2d6117a4565b83604051611c3c929190614b53565b60405180910390a2611c4d816134c5565b50565b5f611c726040518060600160405280602e8152602001616a04602e9139611cb4565b905090565b60606040518060400160405280601981526020017f537461726b576172655f537461726b6e65745f323032345f3900000000000000815250905090565b5f5f82604051602001611cc79190615434565b6040516020818303038152906040528051906020012090508054915050919050565b5f5f611cf36134ea565b9050805f015f8473ffffffffffffffffffffffffffffffffffffffff1673ffffffffffffffffffffffffffffffffffffffff1681526020019081526020015f205f9054906101000a900460ff16915050919050565b5f611d6a604051806060016040528060238152602001616aa360239139613551565b905090565b5f5f6040518060600160405280602781526020016169dd60279139604051602001611d9a9190615434565b6040516020818303038152906040528051906020012090508091505090565b5f611ddb60405180606001604052806028815260200161698560289139613585565b905090565b611e02604051806060016040528060218152602001616a826021913982611e05565b50565b5f82604051602001611e179190615434565b604051602081830303815290604052805190602001209050818155505050565b5f611e59604051806060016040528060268152602001616ac660269139613551565b905090565b5f5f905090565b5050565b611e888373ffffffffffffffffffffffffffffffffffffffff166135b9565b611ec7576040517f08c379a0000000000000000000000000000000000000000000000000000000008152600401611ebe90615494565b60405180910390fd5b5f5f8473ffffffffffffffffffffffffffffffffffffffff1663439fab9160e01b8585604051602401611efb9291906154fc565b604051602081830303815290604052907bffffffffffffffffffffffffffffffffffffffffffffffffffffffff19166020820180517bffffffffffffffffffffffffffffffffffffffffffffffffffffffff8381831617835250505050604051611f659190615562565b5f60405180830381855af49150503d805f8114611f9d576040519150601f19603f3d011682016040523d82523d5f602084013e611fa2565b606091505b5091509150818190611fea576040517f08c379a0000000000000000000000000000000000000000000000000000000008152600401611fe191906148d9565b60405180910390fd5b505f8151148190612031576040517f08c379a000000000000000000000000000000000000000000000000000000000815260040161202891906148d9565b60405180910390fd5b505050505050565b5f5f6120436117a4565b1415905090565b60e08282905014612090576040517f08c379a0000000000000000000000000000000000000000000000000000000008152600401612087906155c2565b60405180910390fd5b5f82825f906020926120a493929190614eca565b8101906120b19190614368565b90505f81036120f5576040517f08c379a00000000000000000000000000000000000000000000000000000000081526004016120ec9061562a565b60405180910390fd5b505050565b5f5f5f5f5f868681019061210e9190615725565b94509450945094509450612121856134c5565b61212a8461305e565b612133836135ca565b61214d8161213f611d6f565b6135ef90919063ffffffff16565b61215682611de0565b61216262069780613385565b50505050505050565b5f6121746134ea565b90508060010160149054906101000a900460ff16156121c8576040517f08c379a00000000000000000000000000000000000000000000000000000000081526004016121bf906157e6565b60405180910390fd5b60018160010160146101000a81548160ff0219169083151502179055506121ee33613618565b50565b5f826040516020016122039190615434565b604051602081830303815290604052805190602001209050818155505050565b5f7fffffffffffffffffffffffffffffffffffffffffffffffffffffffffffffffff846001015403612277577f0800000000000011000000000000000000000000000000000000000000000000905061227f565b836001015490505b8083836002818110612294576122936150a2565b5b90506020020135146122db576040517f08c379a00000000000000000000000000000000000000000000000000000000081526004016122d29061584e565b60405180910390fd5b50505050565b6002848490501015612328576040517f08c379a000000000000000000000000000000000000000000000000000000000815260040161231f906158b6565b60405180910390fd5b5f84845f81811061233c5761233b6150a2565b5b905060200201355f1b90505f8585600181811061235c5761235b6150a2565b5b9050602002013590505f8160026123739190614e19565b600261237f9190614d40565b90508185859050146123c6576040517f08c379a00000000000000000000000000000000000000000000000000000000081526004016123bd9061591e565b60405180910390fd5b8160026123d39190614e19565b816123de9190614d40565b878790501015612423576040517f08c379a000000000000000000000000000000000000000000000000000000000815260040161241a906158b6565b60405180910390fd5b5f5f90505b82811015612982575f814990505f5f1b8103612479576040517f08c379a000000000000000000000000000000000000000000000000000000000815260040161247090615986565b60405180910390fd5b600160f81b7effffffffffffffffffffffffffffffffffffffffffffffffffffffffffffff1916815f602081106124b3576124b26150a2565b5b1a60f81b7effffffffffffffffffffffffffffffffffffffffffffffffffffffffffffff191614612519576040517f08c379a0000000000000000000000000000000000000000000000000000000008152600401612510906159ee565b60405180910390fd5b60605f8a8a85600261252b9190614e19565b60026125379190614d40565b818110612547576125466150a2565b5b9050602002013590505f8b8b60018760026125629190614e19565b600261256e9190614d40565b6125789190614d40565b818110612588576125876150a2565b5b90506020020135905077ffffffffffffffffffffffffffffffffffffffffffffffff80168211156125ee576040517f08c379a00000000000000000000000000000000000000000000000000000000081526004016125e590615a56565b60405180910390fd5b77ffffffffffffffffffffffffffffffffffffffffffffffff801681111561264b576040517f08c379a000000000000000000000000000000000000000000000000000000000815260040161264290615a56565b60405180910390fd5b808260405160200161265e929190615acb565b604051602081830303815290604052925050505f5f8b8b8660026126829190614e19565b8861268d9190614d40565b81811061269d5761269c6150a2565b5b9050602002013590505f8c8c60018860026126b89190614e19565b8a6126c39190614d40565b6126cd9190614d40565b8181106126dd576126dc6150a2565b5b9050602002013590506fffffffffffffffffffffffffffffffff801682111561273b576040517f08c379a000000000000000000000000000000000000000000000000000000000815260040161273290615b40565b60405180910390fd5b6fffffffffffffffffffffffffffffffff8016811115612790576040517f08c379a000000000000000000000000000000000000000000000000000000000815260040161278790615b40565b60405180910390fd5b81608082901b6127a09190614d40565b5f1b9250505060308989868181106127bb576127ba6150a2565b5b90506020028101906127cd9190615b6a565b90501461280f576040517f08c379a000000000000000000000000000000000000000000000000000000000815260040161280690615c16565b60405180910390fd5b5f5f600a73ffffffffffffffffffffffffffffffffffffffff16858a85878f8f8c8181106128405761283f6150a2565b5b90506020028101906128529190615b6a565b60405160200161286796959493929190615c78565b6040516020818303038152906040526040516128839190615562565b5f60405180830381855afa9150503d805f81146128bb576040519150601f19603f3d011682016040523d82523d5f602084013e6128c0565b606091505b509150915081612905576040517f08c379a00000000000000000000000000000000000000000000000000000000081526004016128fc90615d40565b60405180910390fd5b7fb2157d3a40131b14c4c675335465dffde802f0ce5218ad012284d7f275d1b37c5f1b818051906020012014612970576040517f08c379a000000000000000000000000000000000000000000000000000000000815260040161296790615dce565b60405180910390fd5b50505050508080600101915050612428565b5050505050505050565b5f82826040516020016129a0929190615dec565b60405160208183030381529060405280519060200120905092915050565b6129c883836136fd565b6129d0611b2c565b838360078181106129e4576129e36150a2565b5b9050602002013514612a2b576040517f08c379a0000000000000000000000000000000000000000000000000000000008152600401612a2290615e4e565b60405180910390fd5b5f83836009818110612a4057612a3f6150a2565b5b9050602002013514612a87576040517f08c379a0000000000000000000000000000000000000000000000000000000008152600401612a7e90615eb6565b60405180910390fd5b5f5f84846006818110612a9d57612a9c6150a2565b5b9050602002013514612b1b57612ab16117a4565b84846006818110612ac557612ac46150a2565b5b9050602002013514612b0c576040517f08c379a0000000000000000000000000000000000000000000000000000000008152600401612b0390615f44565b60405180910390fd5b612b14611c50565b9050612b26565b612b236117a4565b90505b5f8183604051602001612b3a929190615f62565b604051602081830303815290604052805190602001209050612b5a613796565b73ffffffffffffffffffffffffffffffffffffffff16636a938567826040518263ffffffff1660e01b8152600401612b92919061431e565b602060405180830381865afa158015612bad573d5f5f3e3d5ffd5b505050506040513d601f19601f82011682018060405250810190612bd19190615fb3565b612c10576040517f08c379a0000000000000000000000000000000000000000000000000000000008152600401612c0790616028565b60405180910390fd5b7f9866f8ddfe70bb512b2f2b28b49d4017c43f7ba775f1a20c61c13eea8cdac11183604051612c3f919061431e565b60405180910390a1612c638585612c54611d6f565b6137bd9092919063ffffffff16565b5f612c6e868661392f565b9050612c946001878784908092612c8793929190615137565b612c8f611d48565b6139d5565b81612c9f9190614d40565b9050612cc45f878784908092612cb793929190615137565b612cbf611e37565b6139d5565b81612ccf9190614d40565b9050858590508114612d16576040517f08c379a0000000000000000000000000000000000000000000000000000000008152600401612d0d90616090565b60405180910390fd5b5f612d1f611d6f565b90507fd342ddf7a308dec111745b00315c14b7efb2bdae570a6856e088ed0c65a3576c815f015482600101548360020154604051612d5f939291906160ae565b60405180910390a150505050505050565b81816003818110612d8457612d836150a2565b5b90506020020135836001015414612dd0576040517f08c379a0000000000000000000000000000000000000000000000000000000008152600401612dc79061612d565b60405180910390fd5b505050565b81846001018190555082845f018190555080846002018190555050505050565b5f612e176040518060600160405280603081526020016169ad60309139613551565b905090565b5f5f8484905090505f612e2f868661298c565b90505f8183865f0151876020015186612e489190614d40565b604051602001612e5b949392919061614b565b6040516020818303038152906040528051906020012090506001815f1c612e829190614d40565b5f1b93505050509392505050565b612e9933611ce9565b612ed8576040517f08c379a0000000000000000000000000000000000000000000000000000000008152600401612ecf90614aa5565b60405180910390fd5b8073ffffffffffffffffffffffffffffffffffffffff163373ffffffffffffffffffffffffffffffffffffffff1603612f46576040517f08c379a0000000000000000000000000000000000000000000000000000000008152600401612f3d906161e2565b60405180910390fd5b5f612f4f6134ea565b9050612f5a82611ce9565b612f99576040517f08c379a0000000000000000000000000000000000000000000000000000000008152600401612f909061624a565b60405180910390fd5b5f815f015f8473ffffffffffffffffffffffffffffffffffffffff1673ffffffffffffffffffffffffffffffffffffffff1681526020019081526020015f205f6101000a81548160ff0219169083151502179055507fd75f94825e770b8b512be8e74759e252ad00e102e38f50cce2f7c6f868a295998260405161301d9190614ad2565b60405180910390a15050565b5f5f8260405160200161303c9190615434565b6040516020818303038152906040528051906020012090508054915050919050565b6130806040518060600160405280602e8152602001616a04602e913982611e05565b50565b61308c33611ce9565b6130cb576040517f08c379a00000000000000000000000000000000000000000000000000000000081526004016130c290614aa5565b60405180910390fd5b5f6130d46134ea565b90505f73ffffffffffffffffffffffffffffffffffffffff168273ffffffffffffffffffffffffffffffffffffffff1603613144576040517f08c379a000000000000000000000000000000000000000000000000000000000815260040161313b906162b2565b60405180910390fd5b61314d82611ce9565b1561318d576040517f08c379a00000000000000000000000000000000000000000000000000000000081526004016131849061631a565b60405180910390fd5b5f73ffffffffffffffffffffffffffffffffffffffff16816001015f9054906101000a900473ffffffffffffffffffffffffffffffffffffffff1673ffffffffffffffffffffffffffffffffffffffff161461321e576040517f08c379a000000000000000000000000000000000000000000000000000000000815260040161321590616382565b60405180910390fd5b81816001015f6101000a81548173ffffffffffffffffffffffffffffffffffffffff021916908373ffffffffffffffffffffffffffffffffffffffff1602179055507f6166272c8d3f5f579082f2827532732f97195007983bb5b83ac12c56700b01a68260405161328f9190614ad2565b60405180910390a15050565b5f6132a46134ea565b9050806001015f9054906101000a900473ffffffffffffffffffffffffffffffffffffffff1673ffffffffffffffffffffffffffffffffffffffff163373ffffffffffffffffffffffffffffffffffffffff1614613337576040517f08c379a000000000000000000000000000000000000000000000000000000000815260040161332e906163ea565b60405180910390fd5b61334033613618565b5f816001015f6101000a81548173ffffffffffffffffffffffffffffffffffffffff021916908373ffffffffffffffffffffffffffffffffffffffff16021790555050565b6133a76040518060600160405280602d8152602001616a55602d913982611e05565b50565b6133b333611ce9565b6133f2576040517f08c379a00000000000000000000000000000000000000000000000000000000081526004016133e990614aa5565b60405180910390fd5b5f6133fb6134ea565b90505f73ffffffffffffffffffffffffffffffffffffffff16816001015f9054906101000a900473ffffffffffffffffffffffffffffffffffffffff1673ffffffffffffffffffffffffffffffffffffffff16146134c2575f816001015f6101000a81548173ffffffffffffffffffffffffffffffffffffffff021916908373ffffffffffffffffffffffffffffffffffffffff1602179055507f7a8dc7dd7fffb43c4807438fa62729225156941e641fd877938f4edade3429f560405160405180910390a15b50565b6134e7604051806060016040528060238152602001616a326023913982611e05565b50565b5f5f6040518060400160405280601c81526020017f535441524b4e45545f312e305f474f5645524e414e43455f494e464f000000008152506040516020016135329190615434565b6040516020818303038152906040528051906020012090508091505090565b5f5f826040516020016135649190615434565b60405160208183030381529060405280519060200120905080915050919050565b5f5f826040516020016135989190615434565b60405160208183030381529060405280519060200120905080915050919050565b5f5f823b90505f8111915050919050565b6135ec6040518060600160405280602281526020016169636022913982613fc7565b50565b805f0151825f018190555080602001518260010181905550806040015182600201819055505050565b61362181611ce9565b15613661576040517f08c379a00000000000000000000000000000000000000000000000000000000081526004016136589061631a565b60405180910390fd5b5f61366a6134ea565b90506001815f015f8473ffffffffffffffffffffffffffffffffffffffff1673ffffffffffffffffffffffffffffffffffffffff1681526020019081526020015f205f6101000a81548160ff0219169083151502179055507fcfb473e6c03f9a29ddaf990e736fa3de5188a0bd85d684f5b6e164ebfbfff5d2826040516136f19190614ad2565b60405180910390a15050565b5f600190507f0800000000000011000000000000000000000000000000000000000000000001602083028401845b8181101561374e5782813510613743575f935061374e565b60208101905061372b565b50505080613791576040517f08c379a000000000000000000000000000000000000000000000000000000000815260040161378890616478565b60405180910390fd5b505050565b5f6137b86040518060600160405280602281526020016169636022913961404b565b905090565b6137c8838383612223565b5f828260038181106137dd576137dc6150a2565b5b9050602002013590508360010154811361382c576040517f08c379a0000000000000000000000000000000000000000000000000000000008152600401613823906164e0565b60405180910390fd5b80846001018190555083600201548383600481811061384e5761384d6150a2565b5b9050602002013514613895576040517f08c379a000000000000000000000000000000000000000000000000000000000815260040161388c90616548565b60405180910390fd5b828260058181106138a9576138a86150a2565b5b905060200201358460020181905550365f6138c48585614080565b915091506138d282826140ab565b865f015414613916576040517f08c379a000000000000000000000000000000000000000000000000000000000815260040161390d906165b0565b60405180910390fd5b61392082826140ce565b865f0181905550505050505050565b5f5f83836008818110613945576139446150a2565b5b905060200201350361395a57600a90506139cf565b5f83836001600a61396b9190614d40565b81811061397b5761397a6150a2565b5b9050602002013590508060026139919190614e19565b81600261399e9190614e19565b600180600a6139ad9190614d40565b6139b79190614d40565b6139c19190614d40565b6139cb9190614d40565b9150505b92915050565b5f5f84845f8181106139ea576139e96150a2565b5b90506020020135905063400000008110613a39576040517f08c379a0000000000000000000000000000000000000000000000000000000008152600401613a3090616618565b60405180910390fd5b5f600190505f8282613a4b9190614d40565b90505f88613a5a576004613a5d565b60025b90505f5f90505b82841015613ec3575f8285613a799190614d40565b9050898990508110613ac0576040517f08c379a0000000000000000000000000000000000000000000000000000000008152600401613ab790616680565b60405180910390fd5b5f8a8a83818110613ad457613ad36150a2565b5b90506020020135905063400000008110613b23576040517f08c379a0000000000000000000000000000000000000000000000000000000008152600401613b1a906166e8565b60405180910390fd5b5f81600184613b329190614d40565b613b3c9190614d40565b90508b8b9050811115613b84576040517f08c379a0000000000000000000000000000000000000000000000000000000008152600401613b7b90616750565b60405180910390fd5b8c15613ca9575f8c8c89908492613b9d93929190615137565b604051602001613bae92919061676e565b6040516020818303038152906040528051906020012090508c8c60018a613bd59190614d40565b818110613be557613be46150a2565b5b9050602002013573ffffffffffffffffffffffffffffffffffffffff168d8d5f8b613c109190614d40565b818110613c2057613c1f6150a2565b5b905060200201357f4264ac208b5fde633ccdd42e0f12c3d6d443a4f3779bbf886925b94665b63a228f8f60038d613c579190614d40565b908792613c6693929190615137565b604051613c749291906149d9565b60405180910390a360018b5f8381526020019081526020015f205f828254613c9c9190614d40565b9250508190555050613eb8565b5f8c8c89908492613cbc93929190615137565b604051602001613ccd92919061676e565b6040516020818303038152906040528051906020012090505f8b5f8381526020019081526020015f205490505f8111613d3b576040517f08c379a0000000000000000000000000000000000000000000000000000000008152600401613d3290614943565b60405180910390fd5b600181613d489190614a28565b86613d539190614d40565b95505f8c5f8481526020019081526020015f208190555050505f8c8c60028a613d7c9190614d40565b818110613d8c57613d8b6150a2565b5b9050602002013590505f8d8d60058b613da59190614d40565b908592613db493929190615137565b808060200260200160405190810160405280939291908181526020018383602002808284375f81840152601f19601f8201169050808301925050505050505090508d8d60038b613e049190614d40565b818110613e1457613e136150a2565b5b905060200201358e8e60018c613e2a9190614d40565b818110613e3a57613e396150a2565b5b905060200201358f8f5f8d613e4f9190614d40565b818110613e5f57613e5e6150a2565b5b9050602002013573ffffffffffffffffffffffffffffffffffffffff167f9592d37825c744e33fa80c469683bbd04d336241bb600b574758efd182abe26a8486604051613ead92919061682d565b60405180910390a450505b809650505050613a64565b828414613f05576040517f08c379a0000000000000000000000000000000000000000000000000000000008152600401613efc90616618565b60405180910390fd5b5f811115613fb7575f3373ffffffffffffffffffffffffffffffffffffffff1682604051613f329061687e565b5f6040518083038185875af1925050503d805f8114613f6c576040519150601f19603f3d011682016040523d82523d5f602084013e613f71565b606091505b5050905080613fb5576040517f08c379a0000000000000000000000000000000000000000000000000000000008152600401613fac906168dc565b60405180910390fd5b505b8395505050505050949350505050565b5f73ffffffffffffffffffffffffffffffffffffffff16613fe78361404b565b73ffffffffffffffffffffffffffffffffffffffff161461403d576040517f08c379a000000000000000000000000000000000000000000000000000000000815260040161403490616944565b60405180910390fd5b61404782826140f2565b5050565b5f5f8260405160200161405e9190615434565b6040516020818303038152906040528051906020012090508054915050919050565b365f83835f9060025f6140939190614d40565b926140a093929190615137565b915091509250929050565b5f82825f8181106140bf576140be6150a2565b5b90506020020135905092915050565b5f828260018181106140e3576140e26150a2565b5b90506020020135905092915050565b5f826040516020016141049190615434565b604051602081830303815290604052805190602001209050818155505050565b5f819050919050565b61413681614124565b82525050565b5f60208201905061414f5f83018461412d565b92915050565b5f604051905090565b5f5ffd5b5f5ffd5b5f73ffffffffffffffffffffffffffffffffffffffff82169050919050565b5f61418f82614166565b9050919050565b61419f81614185565b81146141a9575f5ffd5b50565b5f813590506141ba81614196565b92915050565b5f602082840312156141d5576141d461415e565b5b5f6141e2848285016141ac565b91505092915050565b5f8115159050919050565b6141ff816141eb565b82525050565b5f6020820190506142185f8301846141f6565b92915050565b61422781614124565b8114614231575f5ffd5b50565b5f813590506142428161421e565b92915050565b5f5ffd5b5f5ffd5b5f5ffd5b5f5f83601f84011261426957614268614248565b5b8235905067ffffffffffffffff8111156142865761428561424c565b5b6020830191508360208202830111156142a2576142a1614250565b5b9250929050565b5f5f5f604084860312156142c0576142bf61415e565b5b5f6142cd86828701614234565b935050602084013567ffffffffffffffff8111156142ee576142ed614162565b5b6142fa86828701614254565b92509250509250925092565b5f819050919050565b61431881614306565b82525050565b5f6020820190506143315f83018461430f565b92915050565b5f819050919050565b61434981614337565b82525050565b5f6020820190506143625f830184614340565b92915050565b5f6020828403121561437d5761437c61415e565b5b5f61438a84828501614234565b91505092915050565b5f5f5f5f606085870312156143ab576143aa61415e565b5b5f6143b887828801614234565b94505060206143c9878288016141ac565b935050604085013567ffffffffffffffff8111156143ea576143e9614162565b5b6143f687828801614254565b925092505092959194509250565b5f5f5f5f6060858703121561441c5761441b61415e565b5b5f61442987828801614234565b945050602061443a87828801614234565b935050604085013567ffffffffffffffff81111561445b5761445a614162565b5b61446787828801614254565b925092505092959194509250565b5f6040820190506144885f83018561430f565b614495602083018461412d565b9392505050565b5f5f83601f8401126144b1576144b0614248565b5b8235905067ffffffffffffffff8111156144ce576144cd61424c565b5b6020830191508360018202830111156144ea576144e9614250565b5b9250929050565b5f5f602083850312156145075761450661415e565b5b5f83013567ffffffffffffffff81111561452457614523614162565b5b6145308582860161449c565b92509250509250929050565b5f5f83601f84011261455157614550614248565b5b8235905067ffffffffffffffff81111561456e5761456d61424c565b5b60208301915083602082028301111561458a57614589614250565b5b9250929050565b5f5f5f5f604085870312156145a9576145a861415e565b5b5f85013567ffffffffffffffff8111156145c6576145c5614162565b5b6145d287828801614254565b9450945050602085013567ffffffffffffffff8111156145f5576145f4614162565b5b6146018782880161453c565b925092505092959194509250565b61461881614337565b8114614622575f5ffd5b50565b5f813590506146338161460f565b92915050565b5f5f5f606084860312156146505761464f61415e565b5b5f61465d86828701614234565b935050602061466e86828701614625565b925050604061467f86828701614234565b9150509250925092565b5f5f5f5f5f608086880312156146a2576146a161415e565b5b5f6146af88828901614234565b95505060206146c088828901614234565b945050604086013567ffffffffffffffff8111156146e1576146e0614162565b5b6146ed88828901614254565b9350935050606061470088828901614234565b9150509295509295909350565b5f5f5f5f606085870312156147255761472461415e565b5b5f85013567ffffffffffffffff81111561474257614741614162565b5b61474e87828801614254565b9450945050602061476187828801614234565b925050604061477287828801614234565b91505092959194509250565b61478781614306565b8114614791575f5ffd5b50565b5f813590506147a28161477e565b92915050565b5f602082840312156147bd576147bc61415e565b5b5f6147ca84828501614794565b91505092915050565b5f5f5f5f5f5f60a087890312156147ed576147ec61415e565b5b5f6147fa89828a016141ac565b965050602061480b89828a01614234565b955050604061481c89828a01614234565b945050606087013567ffffffffffffffff81111561483d5761483c614162565b5b61484989828a01614254565b9350935050608061485c89828a01614234565b9150509295509295509295565b5f81519050919050565b5f82825260208201905092915050565b8281835e5f83830152505050565b5f601f19601f8301169050919050565b5f6148ab82614869565b6148b58185614873565b93506148c5818560208601614883565b6148ce81614891565b840191505092915050565b5f6020820190508181035f8301526148f181846148a1565b905092915050565b7f494e56414c49445f4d4553534147455f544f5f434f4e53554d450000000000005f82015250565b5f61492d601a83614873565b9150614938826148f9565b602082019050919050565b5f6020820190508181035f83015261495a81614921565b9050919050565b5f82825260208201905092915050565b5f5ffd5b82818337505050565b5f6149898385614961565b93507f07ffffffffffffffffffffffffffffffffffffffffffffffffffffffffffffff8311156149bc576149bb614971565b5b6020830292506149cd838584614975565b82840190509392505050565b5f6020820190508181035f8301526149f281848661497e565b90509392505050565b7f4e487b71000000000000000000000000000000000000000000000000000000005f52601160045260245ffd5b5f614a3282614124565b9150614a3d83614124565b9250828203905081811115614a5557614a546149fb565b5b92915050565b7f4f4e4c595f474f5645524e414e434500000000000000000000000000000000005f82015250565b5f614a8f600f83614873565b9150614a9a82614a5b565b602082019050919050565b5f6020820190508181035f830152614abc81614a83565b9050919050565b614acc81614185565b82525050565b5f602082019050614ae55f830184614ac3565b92915050565b7f46494e414c495a454400000000000000000000000000000000000000000000005f82015250565b5f614b1f600983614873565b9150614b2a82614aeb565b602082019050919050565b5f6020820190508181035f830152614b4c81614b13565b9050919050565b5f604082019050614b665f83018561412d565b614b73602083018461412d565b9392505050565b5f819050919050565b614b94614b8f82614124565b614b7a565b82525050565b5f81905092915050565b5f614baf8385614b9a565b93507f07ffffffffffffffffffffffffffffffffffffffffffffffffffffffffffffff831115614be257614be1614971565b5b602083029250614bf3838584614975565b82840190509392505050565b5f614c0a8288614b83565b602082019150614c1a8287614b83565b602082019150614c2a8286614b83565b602082019150614c3b828486614ba4565b91508190509695505050505050565b7f4c315f4d53475f4645455f4d5553545f42455f475245415445525f5448414e5f5f8201527f3000000000000000000000000000000000000000000000000000000000000000602082015250565b5f614ca4602183614873565b9150614caf82614c4a565b604082019050919050565b5f6020820190508181035f830152614cd181614c98565b9050919050565b7f4d41585f4c315f4d53475f4645455f45584345454445440000000000000000005f82015250565b5f614d0c601783614873565b9150614d1782614cd8565b602082019050919050565b5f6020820190508181035f830152614d3981614d00565b9050919050565b5f614d4a82614124565b9150614d5583614124565b9250828201905080821115614d6d57614d6c6149fb565b5b92915050565b5f6060820190508181035f830152614d8c81868861497e565b9050614d9b602083018561412d565b614da8604083018461412d565b95945050505050565b7f4449524543545f43414c4c5f444953414c4c4f574544000000000000000000005f82015250565b5f614de5601683614873565b9150614df082614db1565b602082019050919050565b5f6020820190508181035f830152614e1281614dd9565b9050919050565b5f614e2382614124565b9150614e2e83614124565b9250828202614e3c81614124565b91508282048414831517614e5357614e526149fb565b5b5092915050565b7f494e49545f444154415f544f4f5f534d414c4c000000000000000000000000005f82015250565b5f614e8e601383614873565b9150614e9982614e5a565b602082019050919050565b5f6020820190508181035f830152614ebb81614e82565b9050919050565b5f5ffd5b5f5ffd5b5f5f85851115614edd57614edc614ec2565b5b83861115614eee57614eed614ec6565b5b6001850283019150848603905094509492505050565b5f614f0e82614166565b9050919050565b614f1e81614f04565b8114614f28575f5ffd5b50565b5f81359050614f3981614f15565b92915050565b5f60208284031215614f5457614f5361415e565b5b5f614f6184828501614f2b565b91505092915050565b7f554e45585045435445445f494e49545f444154410000000000000000000000005f82015250565b5f614f9e601483614873565b9150614fa982614f6a565b602082019050919050565b5f6020820190508181035f830152614fcb81614f92565b9050919050565b7f4f4e4c595f4f50455241544f52000000000000000000000000000000000000005f82015250565b5f615006600d83614873565b915061501182614fd2565b602082019050919050565b5f6020820190508181035f83015261503381614ffa565b9050919050565b7f535441524b4e45545f4f55545055545f544f4f5f53484f5254000000000000005f82015250565b5f61506e601983614873565b91506150798261503a565b602082019050919050565b5f6020820190508181035f83015261509b81615062565b9050919050565b7f4e487b71000000000000000000000000000000000000000000000000000000005f52603260045260245ffd5b7f554e45585045435445445f4b5a475f44415f464c4147000000000000000000005f82015250565b5f615103601683614873565b915061510e826150cf565b602082019050919050565b5f6020820190508181035f830152615130816150f7565b9050919050565b5f5f8585111561514a57615149614ec2565b5b8386111561515b5761515a614ec6565b5b6020850283019150848603905094509492505050565b5f6040820190508181035f83015261518a81858761497e565b9050615199602083018461412d565b949350505050565b7f4e4f5f4d4553534147455f544f5f43414e43454c0000000000000000000000005f82015250565b5f6151d5601483614873565b91506151e0826151a1565b602082019050919050565b5f6020820190508181035f830152615202816151c9565b9050919050565b7f4d4553534147455f43414e43454c4c4154494f4e5f4e4f545f524551554553545f8201527f4544000000000000000000000000000000000000000000000000000000000000602082015250565b5f615263602283614873565b915061526e82615209565b604082019050919050565b5f6020820190508181035f83015261529081615257565b9050919050565b7f43414e43454c5f414c4c4f5745445f54494d455f4f564552464c4f57000000005f82015250565b5f6152cb601c83614873565b91506152d682615297565b602082019050919050565b5f6020820190508181035f8301526152f8816152bf565b9050919050565b7f4d4553534147455f43414e43454c4c4154494f4e5f4e4f545f414c4c4f5745445f8201527f5f59455400000000000000000000000000000000000000000000000000000000602082015250565b5f615359602483614873565b9150615364826152ff565b604082019050919050565b5f6020820190508181035f8301526153868161534d565b9050919050565b5f615398828a614b83565b6020820191506153a88289614b83565b6020820191506153b88288614b83565b6020820191506153c88287614b83565b6020820191506153d88286614b83565b6020820191506153e9828486614ba4565b915081905098975050505050505050565b5f81905092915050565b5f61540e82614869565b61541881856153fa565b9350615428818560208601614883565b80840191505092915050565b5f61543f8284615404565b915081905092915050565b7f4549435f4e4f545f415f434f4e545241435400000000000000000000000000005f82015250565b5f61547e601283614873565b91506154898261544a565b602082019050919050565b5f6020820190508181035f8301526154ab81615472565b9050919050565b5f82825260208201905092915050565b828183375f83830152505050565b5f6154db83856154b2565b93506154e88385846154c2565b6154f183614891565b840190509392505050565b5f6020820190508181035f8301526155158184866154d0565b90509392505050565b5f81519050919050565b5f81905092915050565b5f61553c8261551e565b6155468185615528565b9350615556818560208601614883565b80840191505092915050565b5f61556d8284615532565b915081905092915050565b7f494c4c4547414c5f494e49545f444154415f53495a45000000000000000000005f82015250565b5f6155ac601683614873565b91506155b782615578565b602082019050919050565b5f6020820190508181035f8301526155d9816155a0565b9050919050565b7f4241445f494e495449414c495a4154494f4e00000000000000000000000000005f82015250565b5f615614601283614873565b915061561f826155e0565b602082019050919050565b5f6020820190508181035f83015261564181615608565b9050919050565b5f5ffd5b7f4e487b71000000000000000000000000000000000000000000000000000000005f52604160045260245ffd5b61568282614891565b810181811067ffffffffffffffff821117156156a1576156a061564c565b5b80604052505050565b5f6156b3614155565b90506156bf8282615679565b919050565b5f606082840312156156d9576156d8615648565b5b6156e360606156aa565b90505f6156f284828501614234565b5f83015250602061570584828501614625565b602083015250604061571984828501614234565b60408301525092915050565b5f5f5f5f5f60e0868803121561573e5761573d61415e565b5b5f61574b88828901614234565b955050602061575c88828901614234565b945050604061576d88828901614f2b565b935050606061577e88828901614234565b925050608061578f888289016156c4565b9150509295509295909350565b7f414c52454144595f494e495449414c495a4544000000000000000000000000005f82015250565b5f6157d0601383614873565b91506157db8261579c565b602082019050919050565b5f6020820190508181035f8301526157fd816157c4565b9050919050565b7f494e56414c49445f505245565f424c4f434b5f4e554d424552000000000000005f82015250565b5f615838601983614873565b915061584382615804565b602082019050919050565b5f6020820190508181035f8301526158658161582c565b9050919050565b7f4b5a475f5345474d454e545f544f4f5f53484f525400000000000000000000005f82015250565b5f6158a0601583614873565b91506158ab8261586c565b602082019050919050565b5f6020820190508181035f8301526158cd81615894565b9050919050565b7f494e56414c49445f4e554d4245525f4f465f4b5a475f50524f4f4653000000005f82015250565b5f615908601c83614873565b9150615913826158d4565b602082019050919050565b5f6020820190508181035f830152615935816158fc565b9050919050565b7f494e56414c49445f424c4f425f494e44455800000000000000000000000000005f82015250565b5f615970601283614873565b915061597b8261593c565b602082019050919050565b5f6020820190508181035f83015261599d81615964565b9050919050565b7f554e45585045435445445f424c4f425f484153485f56455253494f4e000000005f82015250565b5f6159d8601c83614873565b91506159e3826159a4565b602082019050919050565b5f6020820190508181035f830152615a05816159cc565b9050919050565b7f494e56414c49445f4b5a475f434f4d4d49544d454e54000000000000000000005f82015250565b5f615a40601683614873565b9150615a4b82615a0c565b602082019050919050565b5f6020820190508181035f830152615a6d81615a34565b9050919050565b5f77ffffffffffffffffffffffffffffffffffffffffffffffff82169050919050565b5f8160401b9050919050565b5f615aad82615a97565b9050919050565b615ac5615ac082615a74565b615aa3565b82525050565b5f615ad68285615ab4565b601882019150615ae68284615ab4565b6018820191508190509392505050565b7f494e56414c49445f595f56414c554500000000000000000000000000000000005f82015250565b5f615b2a600f83614873565b9150615b3582615af6565b602082019050919050565b5f6020820190508181035f830152615b5781615b1e565b9050919050565b5f5ffd5b5f5ffd5b5f5ffd5b5f5f83356001602003843603038112615b8657615b85615b5e565b5b80840192508235915067ffffffffffffffff821115615ba857615ba7615b62565b5b602083019250600182023603831315615bc457615bc3615b66565b5b509250929050565b7f494e56414c49445f4b5a475f50524f4f465f53495a45000000000000000000005f82015250565b5f615c00601683614873565b9150615c0b82615bcc565b602082019050919050565b5f6020820190508181035f830152615c2d81615bf4565b9050919050565b5f819050919050565b615c4e615c4982614306565b615c34565b82525050565b5f615c5f8385615528565b9350615c6c8385846154c2565b82840190509392505050565b5f615c838289615c3d565b602082019150615c938288615c3d565b602082019150615ca38287615c3d565b602082019150615cb38286615532565b9150615cc0828486615c54565b9150819050979650505050505050565b7f504f494e545f4556414c554154494f4e5f505245434f4d50494c455f43414c4c5f8201527f5f4641494c454400000000000000000000000000000000000000000000000000602082015250565b5f615d2a602783614873565b9150615d3582615cd0565b604082019050919050565b5f6020820190508181035f830152615d5781615d1e565b9050919050565b7f554e45585045435445445f504f494e545f4556414c554154494f4e5f505245435f8201527f4f4d50494c455f4f555450555400000000000000000000000000000000000000602082015250565b5f615db8602d83614873565b9150615dc382615d5e565b604082019050919050565b5f6020820190508181035f830152615de581615dac565b9050919050565b5f615df8828486614ba4565b91508190509392505050565b7f494e56414c49445f434f4e4649475f48415348000000000000000000000000005f82015250565b5f615e38601383614873565b9150615e4382615e04565b602082019050919050565b5f6020820190508181035f830152615e6581615e2c565b9050919050565b7f46554c4c5f4f55545055545f4e4f545f535550504f52544544000000000000005f82015250565b5f615ea0601983614873565b9150615eab82615e6c565b602082019050919050565b5f6020820190508181035f830152615ecd81615e94565b9050919050565b7f41474752454741544f525f4d4f44455f494e56414c49445f4f535f50524f47525f8201527f414d5f4841534800000000000000000000000000000000000000000000000000602082015250565b5f615f2e602783614873565b9150615f3982615ed4565b604082019050919050565b5f6020820190508181035f830152615f5b81615f22565b9050919050565b5f604082019050615f755f83018561412d565b615f82602083018461430f565b9392505050565b615f92816141eb565b8114615f9c575f5ffd5b50565b5f81519050615fad81615f89565b92915050565b5f60208284031215615fc857615fc761415e565b5b5f615fd584828501615f9f565b91505092915050565b7f4e4f5f53544154455f5452414e534954494f4e5f50524f4f46000000000000005f82015250565b5f616012601983614873565b915061601d82615fde565b602082019050919050565b5f6020820190508181035f83015261603f81616006565b9050919050565b7f535441524b4e45545f4f55545055545f544f4f5f4c4f4e4700000000000000005f82015250565b5f61607a601883614873565b915061608582616046565b602082019050919050565b5f6020820190508181035f8301526160a78161606e565b9050919050565b5f6060820190506160c15f83018661412d565b6160ce6020830185614340565b6160db604083018461412d565b949350505050565b7f5245454e5452414e43595f4641494c55524500000000000000000000000000005f82015250565b5f616117601283614873565b9150616122826160e3565b602082019050919050565b5f6020820190508181035f8301526161448161610b565b9050919050565b5f6161568287615c3d565b6020820191506161668286614b83565b6020820191506161768285614b83565b6020820191506161868284614b83565b60208201915081905095945050505050565b7f474f5645524e4f525f53454c465f52454d4f56450000000000000000000000005f82015250565b5f6161cc601483614873565b91506161d782616198565b602082019050919050565b5f6020820190508181035f8301526161f9816161c0565b9050919050565b7f4e4f545f474f5645524e4f5200000000000000000000000000000000000000005f82015250565b5f616234600c83614873565b915061623f82616200565b602082019050919050565b5f6020820190508181035f83015261626181616228565b9050919050565b7f4241445f414444524553530000000000000000000000000000000000000000005f82015250565b5f61629c600b83614873565b91506162a782616268565b602082019050919050565b5f6020820190508181035f8301526162c981616290565b9050919050565b7f414c52454144595f474f5645524e4f52000000000000000000000000000000005f82015250565b5f616304601083614873565b915061630f826162d0565b602082019050919050565b5f6020820190508181035f830152616331816162f8565b9050919050565b7f4f544845525f43414e4449444154455f50454e44494e470000000000000000005f82015250565b5f61636c601783614873565b915061637782616338565b602082019050919050565b5f6020820190508181035f83015261639981616360565b9050919050565b7f4f4e4c595f43414e4449444154455f474f5645524e4f520000000000000000005f82015250565b5f6163d4601783614873565b91506163df826163a0565b602082019050919050565b5f6020820190508181035f830152616401816163c8565b9050919050565b7f50524f4752414d5f4f55545055545f56414c55455f4f55545f4f465f52414e475f8201527f4500000000000000000000000000000000000000000000000000000000000000602082015250565b5f616462602183614873565b915061646d82616408565b604082019050919050565b5f6020820190508181035f83015261648f81616456565b9050919050565b7f494e56414c49445f4e45575f424c4f434b5f4e554d42455200000000000000005f82015250565b5f6164ca601883614873565b91506164d582616496565b602082019050919050565b5f6020820190508181035f8301526164f7816164be565b9050919050565b7f494e56414c49445f505245565f424c4f434b5f484153480000000000000000005f82015250565b5f616532601783614873565b915061653d826164fe565b602082019050919050565b5f6020820190508181035f83015261655f81616526565b9050919050565b7f494e56414c49445f50524556494f55535f524f4f5400000000000000000000005f82015250565b5f61659a601583614873565b91506165a582616566565b602082019050919050565b5f6020820190508181035f8301526165c78161658e565b9050919050565b7f494e56414c49445f4d4553534147455f5345474d454e545f53495a45000000005f82015250565b5f616602601c83614873565b915061660d826165ce565b602082019050919050565b5f6020820190508181035f83015261662f816165f6565b9050919050565b7f4d4553534147455f544f4f5f53484f52540000000000000000000000000000005f82015250565b5f61666a601183614873565b915061667582616636565b602082019050919050565b5f6020820190508181035f8301526166978161665e565b9050919050565b7f494e56414c49445f5041594c4f41445f4c454e475448000000000000000000005f82015250565b5f6166d2601683614873565b91506166dd8261669e565b602082019050919050565b5f6020820190508181035f8301526166ff816166c6565b9050919050565b7f5452554e43415445445f4d4553534147455f5041594c4f4144000000000000005f82015250565b5f61673a601983614873565b915061674582616706565b602082019050919050565b5f6020820190508181035f8301526167678161672e565b9050919050565b5f61677a828486614ba4565b91508190509392505050565b5f81519050919050565b5f819050602082019050919050565b6167a881614124565b82525050565b5f6167b9838361679f565b60208301905092915050565b5f602082019050919050565b5f6167db82616786565b6167e58185614961565b93506167f083616790565b805f5b8381101561682057815161680788826167ae565b9750616812836167c5565b9250506001810190506167f3565b5085935050505092915050565b5f6040820190508181035f83015261684581856167d1565b9050616854602083018461412d565b9392505050565b50565b5f6168695f83615528565b91506168748261685b565b5f82019050919050565b5f6168888261685e565b9150819050919050565b7f4554485f5452414e534645525f4641494c4544000000000000000000000000005f82015250565b5f6168c6601383614873565b91506168d182616892565b602082019050919050565b5f6020820190508181035f8301526168f3816168ba565b9050919050565b7f414c52454144595f5345540000000000000000000000000000000000000000005f82015250565b5f61692e600b83614873565b9150616939826168fa565b602082019050919050565b5f6020820190508181035f83015261695b81616922565b905091905056fe535441524b4e45545f312e305f494e49545f56455249464945525f41444452455353535441524b4e45545f312e305f524f4c45535f4f50455241544f52535f4d415050494e475f544147535441524b4e45545f312e305f4d5347494e475f4c31544f4c325f43414e43454c4c4154494f4e5f4d41505050494e47535441524b4e45545f312e305f494e49545f535441524b4e45545f53544154455f535452554354535441524b4e45545f312e305f494e49545f41474752454741544f525f50524f4752414d5f484153485f55494e54535441524b4e45545f312e305f494e49545f50524f4752414d5f484153485f55494e54535441524b4e45545f312e305f4d5347494e475f4c31544f4c325f43414e43454c4c4154494f4e5f44454c4159535441524b4e45545f312e305f535441524b4e45545f434f4e4649475f48415348535441524b4e45545f312e305f4d5347494e475f4c32544f4c315f4d41505050494e47535441524b4e45545f312e305f4d5347494e475f4c31544f4c325f4d41505050494e475f5632535441524b574152455f434f4e5452414354535f474f564552454e45445f46494e414c495a41424c455f312e305f544147a264697066735822122050930b33beb3e126ba01bc5cc95f69779f0a2f48254421242dcc7647cc22a84064736f6c634300081b0033",
    "linkReferences": {}
  },
  "methodIdentifiers": {
    "aggregatorProgramHash()": "eb27feeb",
    "cancelL1ToL2Message(uint256,uint256,uint256[],uint256)": "6170ff1b",
    "configHash()": "e1f1176d",
    "consumeMessageFromL2(uint256,uint256[])": "2c9dd5c0",
    "finalize()": "4bb278f3",
    "getMaxL1MsgFee()": "54eccba4",
    "identify()": "eeb72866",
    "initialize(bytes)": "439fab91",
    "isFinalized()": "8d4e4083",
    "isFrozen()": "33eeb147",
    "isOperator(address)": "6d70f7ae",
    "l1ToL2MessageCancellations(bytes32)": "9be446bf",
    "l1ToL2MessageNonce()": "018cccdf",
    "l1ToL2Messages(bytes32)": "77c7d7a9",
    "l1ToL2MsgHash(address,uint256,uint256,uint256[],uint256)": "b64b6737",
    "l2ToL1Messages(bytes32)": "a46efaf3",
    "l2ToL1MsgHash(uint256,address,uint256[])": "3d8a5df8",
    "messageCancellationDelay()": "8303bd8a",
    "programHash()": "8a9bf090",
    "registerOperator(address)": "3682a450",
    "sendMessageToL2(uint256,uint256,uint256[])": "3e3aa6c5",
    "setAggregatorProgramHash(uint256)": "9020429c",
    "setConfigHash(uint256)": "3d07b336",
    "setMessageCancellationDelay(uint256)": "c99d397f",
    "setProgramHash(uint256)": "e87e7332",
    "starknetAcceptGovernance()": "946be3ed",
    "starknetCancelNomination()": "e37fec25",
    "starknetIsGovernor(address)": "01a01590",
    "starknetNominateNewGovernor(address)": "91a66a26",
    "starknetRemoveGovernor(address)": "84f921cd",
    "startL1ToL2MessageCancellation(uint256,uint256,uint256[],uint256)": "7a98660b",
    "stateBlockHash()": "382d83e3",
    "stateBlockNumber()": "35befa5d",
    "stateRoot()": "9588eca2",
    "unregisterOperator(address)": "96115bc2",
    "updateState(uint256[],uint256,uint256)": "77552641",
    "updateStateKzgDA(uint256[],bytes[])": "507ee528",
    "updateStateOverride(uint256,int256,uint256)": "61538cad"
  },
  "id": 19
}