{
    "abi": [
        {
            "type": "function",
            "name": "aggregatorProgramHash",
            "inputs": [],
            "outputs": [
                {
                    "name": "",
                    "type": "uint256",
                    "internalType": "uint256"
                }
            ],
            "stateMutability": "view"
        },
        {
            "type": "function",
            "name": "cancelL1ToL2Message",
            "inputs": [
                {
                    "name": "toAddress",
                    "type": "uint256",
                    "internalType": "uint256"
                },
                {
                    "name": "selector",
                    "type": "uint256",
                    "internalType": "uint256"
                },
                {
                    "name": "payload",
                    "type": "uint256[]",
                    "internalType": "uint256[]"
                },
                {
                    "name": "nonce",
                    "type": "uint256",
                    "internalType": "uint256"
                }
            ],
            "outputs": [
                {
                    "name": "",
                    "type": "bytes32",
                    "internalType": "bytes32"
                }
            ],
            "stateMutability": "nonpayable"
        },
        {
            "type": "function",
            "name": "configHash",
            "inputs": [],
            "outputs": [
                {
                    "name": "",
                    "type": "uint256",
                    "internalType": "uint256"
                }
            ],
            "stateMutability": "view"
        },
        {
            "type": "function",
            "name": "consumeMessageFromL2",
            "inputs": [
                {
                    "name": "fromAddress",
                    "type": "uint256",
                    "internalType": "uint256"
                },
                {
                    "name": "payload",
                    "type": "uint256[]",
                    "internalType": "uint256[]"
                }
            ],
            "outputs": [
                {
                    "name": "",
                    "type": "bytes32",
                    "internalType": "bytes32"
                }
            ],
            "stateMutability": "nonpayable"
        },
        {
            "type": "function",
            "name": "finalize",
            "inputs": [],
            "outputs": [],
            "stateMutability": "nonpayable"
        },
        {
            "type": "function",
            "name": "getMaxL1MsgFee",
            "inputs": [],
            "outputs": [
                {
                    "name": "",
                    "type": "uint256",
                    "internalType": "uint256"
                }
            ],
            "stateMutability": "pure"
        },
        {
            "type": "function",
            "name": "identify",
            "inputs": [],
            "outputs": [
                {
                    "name": "",
                    "type": "string",
                    "internalType": "string"
                }
            ],
            "stateMutability": "pure"
        },
        {
            "type": "function",
            "name": "initialize",
            "inputs": [
                {
                    "name": "data",
                    "type": "bytes",
                    "internalType": "bytes"
                }
            ],
            "outputs": [],
            "stateMutability": "nonpayable"
        },
        {
            "type": "function",
            "name": "isFinalized",
            "inputs": [],
            "outputs": [
                {
                    "name": "",
                    "type": "bool",
                    "internalType": "bool"
                }
            ],
            "stateMutability": "view"
        },
        {
            "type": "function",
            "name": "isFrozen",
            "inputs": [],
            "outputs": [
                {
                    "name": "",
                    "type": "bool",
                    "internalType": "bool"
                }
            ],
            "stateMutability": "view"
        },
        {
            "type": "function",
            "name": "isOperator",
            "inputs": [
                {
                    "name": "user",
                    "type": "address",
                    "internalType": "address"
                }
            ],
            "outputs": [
                {
                    "name": "",
                    "type": "bool",
                    "internalType": "bool"
                }
            ],
            "stateMutability": "view"
        },
        {
            "type": "function",
            "name": "l1ToL2MessageCancellations",
            "inputs": [
                {
                    "name": "msgHash",
                    "type": "bytes32",
                    "internalType": "bytes32"
                }
            ],
            "outputs": [
                {
                    "name": "",
                    "type": "uint256",
                    "internalType": "uint256"
                }
            ],
            "stateMutability": "view"
        },
        {
            "type": "function",
            "name": "l1ToL2MessageNonce",
            "inputs": [],
            "outputs": [
                {
                    "name": "",
                    "type": "uint256",
                    "internalType": "uint256"
                }
            ],
            "stateMutability": "view"
        },
        {
            "type": "function",
            "name": "l1ToL2Messages",
            "inputs": [
                {
                    "name": "msgHash",
                    "type": "bytes32",
                    "internalType": "bytes32"
                }
            ],
            "outputs": [
                {
                    "name": "",
                    "type": "uint256",
                    "internalType": "uint256"
                }
            ],
            "stateMutability": "view"
        },
        {
            "type": "function",
            "name": "l1ToL2MsgHash",
            "inputs": [
                {
                    "name": "fromAddress",
                    "type": "address",
                    "internalType": "address"
                },
                {
                    "name": "toAddress",
                    "type": "uint256",
                    "internalType": "uint256"
                },
                {
                    "name": "selector",
                    "type": "uint256",
                    "internalType": "uint256"
                },
                {
                    "name": "payload",
                    "type": "uint256[]",
                    "internalType": "uint256[]"
                },
                {
                    "name": "nonce",
                    "type": "uint256",
                    "internalType": "uint256"
                }
            ],
            "outputs": [
                {
                    "name": "",
                    "type": "bytes32",
                    "internalType": "bytes32"
                }
            ],
            "stateMutability": "pure"
        },
        {
            "type": "function",
            "name": "l2ToL1Messages",
            "inputs": [
                {
                    "name": "msgHash",
                    "type": "bytes32",
                    "internalType": "bytes32"
                }
            ],
            "outputs": [
                {
                    "name": "",
                    "type": "uint256",
                    "internalType": "uint256"
                }
            ],
            "stateMutability": "view"
        },
        {
            "type": "function",
            "name": "l2ToL1MsgHash",
            "inputs": [
                {
                    "name": "fromAddress",
                    "type": "uint256",
                    "internalType": "uint256"
                },
                {
                    "name": "toAddress",
                    "type": "address",
                    "internalType": "address"
                },
                {
                    "name": "payload",
                    "type": "uint256[]",
                    "internalType": "uint256[]"
                }
            ],
            "outputs": [
                {
                    "name": "",
                    "type": "bytes32",
                    "internalType": "bytes32"
                }
            ],
            "stateMutability": "pure"
        },
        {
            "type": "function",
            "name": "messageCancellationDelay",
            "inputs": [],
            "outputs": [
                {
                    "name": "",
                    "type": "uint256",
                    "internalType": "uint256"
                }
            ],
            "stateMutability": "view"
        },
        {
            "type": "function",
            "name": "programHash",
            "inputs": [],
            "outputs": [
                {
                    "name": "",
                    "type": "uint256",
                    "internalType": "uint256"
                }
            ],
            "stateMutability": "view"
        },
        {
            "type": "function",
            "name": "registerOperator",
            "inputs": [
                {
                    "name": "newOperator",
                    "type": "address",
                    "internalType": "address"
                }
            ],
            "outputs": [],
            "stateMutability": "nonpayable"
        },
        {
            "type": "function",
            "name": "sendMessageToL2",
            "inputs": [
                {
                    "name": "toAddress",
                    "type": "uint256",
                    "internalType": "uint256"
                },
                {
                    "name": "selector",
                    "type": "uint256",
                    "internalType": "uint256"
                },
                {
                    "name": "payload",
                    "type": "uint256[]",
                    "internalType": "uint256[]"
                }
            ],
            "outputs": [
                {
                    "name": "",
                    "type": "bytes32",
                    "internalType": "bytes32"
                },
                {
                    "name": "",
                    "type": "uint256",
                    "internalType": "uint256"
                }
            ],
            "stateMutability": "payable"
        },
        {
            "type": "function",
            "name": "setAggregatorProgramHash",
            "inputs": [
                {
                    "name": "newAggregatorProgramHash",
                    "type": "uint256",
                    "internalType": "uint256"
                }
            ],
            "outputs": [],
            "stateMutability": "nonpayable"
        },
        {
            "type": "function",
            "name": "setConfigHash",
            "inputs": [
                {
                    "name": "newConfigHash",
                    "type": "uint256",
                    "internalType": "uint256"
                }
            ],
            "outputs": [],
            "stateMutability": "nonpayable"
        },
        {
            "type": "function",
            "name": "setMessageCancellationDelay",
            "inputs": [
                {
                    "name": "delayInSeconds",
                    "type": "uint256",
                    "internalType": "uint256"
                }
            ],
            "outputs": [],
            "stateMutability": "nonpayable"
        },
        {
            "type": "function",
            "name": "setProgramHash",
            "inputs": [
                {
                    "name": "newProgramHash",
                    "type": "uint256",
                    "internalType": "uint256"
                }
            ],
            "outputs": [],
            "stateMutability": "nonpayable"
        },
        {
            "type": "function",
            "name": "starknetAcceptGovernance",
            "inputs": [],
            "outputs": [],
            "stateMutability": "nonpayable"
        },
        {
            "type": "function",
            "name": "starknetCancelNomination",
            "inputs": [],
            "outputs": [],
            "stateMutability": "nonpayable"
        },
        {
            "type": "function",
            "name": "starknetIsGovernor",
            "inputs": [
                {
                    "name": "user",
                    "type": "address",
                    "internalType": "address"
                }
            ],
            "outputs": [
                {
                    "name": "",
                    "type": "bool",
                    "internalType": "bool"
                }
            ],
            "stateMutability": "view"
        },
        {
            "type": "function",
            "name": "starknetNominateNewGovernor",
            "inputs": [
                {
                    "name": "newGovernor",
                    "type": "address",
                    "internalType": "address"
                }
            ],
            "outputs": [],
            "stateMutability": "nonpayable"
        },
        {
            "type": "function",
            "name": "starknetRemoveGovernor",
            "inputs": [
                {
                    "name": "governorForRemoval",
                    "type": "address",
                    "internalType": "address"
                }
            ],
            "outputs": [],
            "stateMutability": "nonpayable"
        },
        {
            "type": "function",
            "name": "startL1ToL2MessageCancellation",
            "inputs": [
                {
                    "name": "toAddress",
                    "type": "uint256",
                    "internalType": "uint256"
                },
                {
                    "name": "selector",
                    "type": "uint256",
                    "internalType": "uint256"
                },
                {
                    "name": "payload",
                    "type": "uint256[]",
                    "internalType": "uint256[]"
                },
                {
                    "name": "nonce",
                    "type": "uint256",
                    "internalType": "uint256"
                }
            ],
            "outputs": [
                {
                    "name": "",
                    "type": "bytes32",
                    "internalType": "bytes32"
                }
            ],
            "stateMutability": "nonpayable"
        },
        {
            "type": "function",
            "name": "stateBlockHash",
            "inputs": [],
            "outputs": [
                {
                    "name": "",
                    "type": "uint256",
                    "internalType": "uint256"
                }
            ],
            "stateMutability": "view"
        },
        {
            "type": "function",
            "name": "stateBlockNumber",
            "inputs": [],
            "outputs": [
                {
                    "name": "",
                    "type": "int256",
                    "internalType": "int256"
                }
            ],
            "stateMutability": "view"
        },
        {
            "type": "function",
            "name": "stateRoot",
            "inputs": [],
            "outputs": [
                {
                    "name": "",
                    "type": "uint256",
                    "internalType": "uint256"
                }
            ],
            "stateMutability": "view"
        },
        {
            "type": "function",
            "name": "unregisterOperator",
            "inputs": [
                {
                    "name": "removedOperator",
                    "type": "address",
                    "internalType": "address"
                }
            ],
            "outputs": [],
            "stateMutability": "nonpayable"
        },
        {
            "type": "function",
            "name": "updateState",
            "inputs": [
                {
                    "name": "programOutput",
                    "type": "uint256[]",
                    "internalType": "uint256[]"
                },
                {
                    "name": "onchainDataHash",
                    "type": "uint256",
                    "internalType": "uint256"
                },
                {
                    "name": "onchainDataSize",
                    "type": "uint256",
                    "internalType": "uint256"
                }
            ],
            "outputs": [],
            "stateMutability": "nonpayable"
        },
        {
            "type": "function",
            "name": "updateStateKzgDA",
            "inputs": [
                {
                    "name": "programOutput",
                    "type": "uint256[]",
                    "internalType": "uint256[]"
                },
                {
                    "name": "kzgProofs",
                    "type": "bytes[]",
                    "internalType": "bytes[]"
                }
            ],
            "outputs": [],
            "stateMutability": "nonpayable"
        },
        {
            "type": "function",
            "name": "updateStateOverride",
            "inputs": [
                {
                    "name": "globalRoot",
                    "type": "uint256",
                    "internalType": "uint256"
                },
                {
                    "name": "blockNumber",
                    "type": "int256",
                    "internalType": "int256"
                },
                {
                    "name": "blockHash",
                    "type": "uint256",
                    "internalType": "uint256"
                }
            ],
            "outputs": [],
            "stateMutability": "nonpayable"
        },
        {
            "type": "event",
            "name": "AggregatorProgramHashChanged",
            "inputs": [
                {
                    "name": "changedBy",
                    "type": "address",
                    "indexed": true,
                    "internalType": "address"
                },
                {
                    "name": "oldAggregatorProgramHash",
                    "type": "uint256",
                    "indexed": false,
                    "internalType": "uint256"
                },
                {
                    "name": "newAggregatorProgramHash",
                    "type": "uint256",
                    "indexed": false,
                    "internalType": "uint256"
                }
            ],
            "anonymous": false
        },
        {
            "type": "event",
            "name": "ConfigHashChanged",
            "inputs": [
                {
                    "name": "changedBy",
                    "type": "address",
                    "indexed": true,
                    "internalType": "address"
                },
                {
                    "name": "oldConfigHash",
                    "type": "uint256",
                    "indexed": false,
                    "internalType": "uint256"
                },
                {
                    "name": "newConfigHash",
                    "type": "uint256",
                    "indexed": false,
                    "internalType": "uint256"
                }
            ],
            "anonymous": false
        },
        {
            "type": "event",
            "name": "ConsumedMessageToL1",
            "inputs": [
                {
                    "name": "fromAddress",
                    "type": "uint256",
                    "indexed": true,
                    "internalType": "uint256"
                },
                {
                    "name": "toAddress",
                    "type": "address",
                    "indexed": true,
                    "internalType": "address"
                },
                {
                    "name": "payload",
                    "type": "uint256[]",
                    "indexed": false,
                    "internalType": "uint256[]"
                }
            ],
            "anonymous": false
        },
        {
            "type": "event",
            "name": "ConsumedMessageToL2",
            "inputs": [
                {
                    "name": "fromAddress",
                    "type": "address",
                    "indexed": true,
                    "internalType": "address"
                },
                {
                    "name": "toAddress",
                    "type": "uint256",
                    "indexed": true,
                    "internalType": "uint256"
                },
                {
                    "name": "selector",
                    "type": "uint256",
                    "indexed": true,
                    "internalType": "uint256"
                },
                {
                    "name": "payload",
                    "type": "uint256[]",
                    "indexed": false,
                    "internalType": "uint256[]"
                },
                {
                    "name": "nonce",
                    "type": "uint256",
                    "indexed": false,
                    "internalType": "uint256"
                }
            ],
            "anonymous": false
        },
        {
            "type": "event",
            "name": "Finalized",
            "inputs": [],
            "anonymous": false
        },
        {
            "type": "event",
            "name": "LogMessageToL1",
            "inputs": [
                {
                    "name": "fromAddress",
                    "type": "uint256",
                    "indexed": true,
                    "internalType": "uint256"
                },
                {
                    "name": "toAddress",
                    "type": "address",
                    "indexed": true,
                    "internalType": "address"
                },
                {
                    "name": "payload",
                    "type": "uint256[]",
                    "indexed": false,
                    "internalType": "uint256[]"
                }
            ],
            "anonymous": false
        },
        {
            "type": "event",
            "name": "LogMessageToL2",
            "inputs": [
                {
                    "name": "fromAddress",
                    "type": "address",
                    "indexed": true,
                    "internalType": "address"
                },
                {
                    "name": "toAddress",
                    "type": "uint256",
                    "indexed": true,
                    "internalType": "uint256"
                },
                {
                    "name": "selector",
                    "type": "uint256",
                    "indexed": true,
                    "internalType": "uint256"
                },
                {
                    "name": "payload",
                    "type": "uint256[]",
                    "indexed": false,
                    "internalType": "uint256[]"
                },
                {
                    "name": "nonce",
                    "type": "uint256",
                    "indexed": false,
                    "internalType": "uint256"
                },
                {
                    "name": "fee",
                    "type": "uint256",
                    "indexed": false,
                    "internalType": "uint256"
                }
            ],
            "anonymous": false
        },
        {
            "type": "event",
            "name": "LogNewGovernorAccepted",
            "inputs": [
                {
                    "name": "acceptedGovernor",
                    "type": "address",
                    "indexed": false,
                    "internalType": "address"
                }
            ],
            "anonymous": false
        },
        {
            "type": "event",
            "name": "LogNominatedGovernor",
            "inputs": [
                {
                    "name": "nominatedGovernor",
                    "type": "address",
                    "indexed": false,
                    "internalType": "address"
                }
            ],
            "anonymous": false
        },
        {
            "type": "event",
            "name": "LogNominationCancelled",
            "inputs": [],
            "anonymous": false
        },
        {
            "type": "event",
            "name": "LogOperatorAdded",
            "inputs": [
                {
                    "name": "operator",
                    "type": "address",
                    "indexed": false,
                    "internalType": "address"
                }
            ],
            "anonymous": false
        },
        {
            "type": "event",
            "name": "LogOperatorRemoved",
            "inputs": [
                {
                    "name": "operator",
                    "type": "address",
                    "indexed": false,
                    "internalType": "address"
                }
            ],
            "anonymous": false
        },
        {
            "type": "event",
            "name": "LogRemovedGovernor",
            "inputs": [
                {
                    "name": "removedGovernor",
                    "type": "address",
                    "indexed": false,
                    "internalType": "address"
                }
            ],
            "anonymous": false
        },
        {
            "type": "event",
            "name": "LogStateTransitionFact",
            "inputs": [
                {
                    "name": "stateTransitionFact",
                    "type": "bytes32",
                    "indexed": false,
                    "internalType": "bytes32"
                }
            ],
            "anonymous": false
        },
        {
            "type": "event",
            "name": "LogStateUpdate",
            "inputs": [
                {
                    "name": "globalRoot",
                    "type": "uint256",
                    "indexed": false,
                    "internalType": "uint256"
                },
                {
                    "name": "blockNumber",
                    "type": "int256",
                    "indexed": false,
                    "internalType": "int256"
                },
                {
                    "name": "blockHash",
                    "type": "uint256",
                    "indexed": false,
                    "internalType": "uint256"
                }
            ],
            "anonymous": false
        },
        {
            "type": "event",
            "name": "MessageToL2Canceled",
            "inputs": [
                {
                    "name": "fromAddress",
                    "type": "address",
                    "indexed": true,
                    "internalType": "address"
                },
                {
                    "name": "toAddress",
                    "type": "uint256",
                    "indexed": true,
                    "internalType": "uint256"
                },
                {
                    "name": "selector",
                    "type": "uint256",
                    "indexed": true,
                    "internalType": "uint256"
                },
                {
                    "name": "payload",
                    "type": "uint256[]",
                    "indexed": false,
                    "internalType": "uint256[]"
                },
                {
                    "name": "nonce",
                    "type": "uint256",
                    "indexed": false,
                    "internalType": "uint256"
                }
            ],
            "anonymous": false
        },
        {
            "type": "event",
            "name": "MessageToL2CancellationStarted",
            "inputs": [
                {
                    "name": "fromAddress",
                    "type": "address",
                    "indexed": true,
                    "internalType": "address"
                },
                {
                    "name": "toAddress",
                    "type": "uint256",
                    "indexed": true,
                    "internalType": "uint256"
                },
                {
                    "name": "selector",
                    "type": "uint256",
                    "indexed": true,
                    "internalType": "uint256"
                },
                {
                    "name": "payload",
                    "type": "uint256[]",
                    "indexed": false,
                    "internalType": "uint256[]"
                },
                {
                    "name": "nonce",
                    "type": "uint256",
                    "indexed": false,
                    "internalType": "uint256"
                }
            ],
            "anonymous": false
        },
        {
            "type": "event",
            "name": "ProgramHashChanged",
            "inputs": [
                {
                    "name": "changedBy",
                    "type": "address",
                    "indexed": true,
                    "internalType": "address"
                },
                {
                    "name": "oldProgramHash",
                    "type": "uint256",
                    "indexed": false,
                    "internalType": "uint256"
                },
                {
                    "name": "newProgramHash",
                    "type": "uint256",
                    "indexed": false,
                    "internalType": "uint256"
                }
            ],
            "anonymous": false
        }
    ],
    "bytecode": {
        "object": "0x60a0604052348015600e575f5ffd5b5030608052608051613e5f61002b5f395f610af00152613e5f5ff3fe60806040526004361061021d575f3560e01c80637a98660b1161011e57806396115bc2116100a8578063e1f1176d1161006d578063e1f1176d146105d9578063e37fec25146105ed578063e87e733214610601578063eb27feeb14610620578063eeb7286614610634575f5ffd5b806396115bc21461053e5780639be446bf1461055d578063a46efaf31461057c578063b64b67371461059b578063c99d397f146105ba575f5ffd5b80638d4e4083116100ee5780638d4e4083146104c45780639020429c146104d857806391a66a26146104f7578063946be3ed146105165780639588eca21461052a575f5ffd5b80637a98660b1461045e5780638303bd8a1461047d57806384f921cd146104915780638a9bf090146104b0575f5ffd5b80633e3aa6c5116101aa57806361538cad1161016f57806361538cad146103c35780636170ff1b146103e25780636d70f7ae14610401578063775526411461042057806377c7d7a91461043f575f5ffd5b80633e3aa6c51461032f578063439fab91146103575780634bb278f314610376578063507ee5281461038a57806354eccba4146103a9575f5ffd5b806335befa5d116101f057806335befa5d146102a85780633682a450146102bc578063382d83e3146102dd5780633d07b336146102f15780633d8a5df814610310575f5ffd5b8063018cccdf1461022157806301a01590146102485780632c9dd5c01461027757806333eeb14714610296575b5f5ffd5b34801561022c575f5ffd5b5061023561067f565b6040519081526020015b60405180910390f35b348015610253575f5ffd5b506102676102623660046134e8565b6106c3565b604051901515815260200161023f565b348015610282575f5ffd5b5061023561029136600461354a565b6106d3565b3480156102a1575f5ffd5b505f610267565b3480156102b3575f5ffd5b506102356107c6565b3480156102c7575f5ffd5b506102db6102d63660046134e8565b6107d8565b005b3480156102e8575f5ffd5b50610235610872565b3480156102fc575f5ffd5b506102db61030b366004613591565b610884565b34801561031b575f5ffd5b5061023561032a3660046135a8565b610918565b61034261033d3660046135ff565b61095c565b6040805192835260208301919091520161023f565b348015610362575f5ffd5b506102db610371366004613635565b610aed565b348015610381575f5ffd5b506102db610c9d565b348015610395575f5ffd5b506102db6103a43660046136a1565b610d34565b3480156103b4575f5ffd5b50670de0b6b3a7640000610235565b3480156103ce575f5ffd5b506102db6103dd3660046136f3565b610e65565b3480156103ed575f5ffd5b506102356103fc36600461371c565b610eae565b34801561040c575f5ffd5b5061026761041b3660046134e8565b6110c2565b34801561042b575f5ffd5b506102db61043a366004613771565b6110ec565b34801561044a575f5ffd5b50610235610459366004613591565b6111eb565b348015610469575f5ffd5b5061023561047836600461371c565b611204565b348015610488575f5ffd5b506102356112de565b34801561049c575f5ffd5b506102db6104ab3660046134e8565b611300565b3480156104bb575f5ffd5b50610235611309565b3480156104cf575f5ffd5b5061026761132b565b3480156104e3575f5ffd5b506102db6104f2366004613591565b61134d565b348015610502575f5ffd5b506102db6105113660046134e8565b6113e1565b348015610521575f5ffd5b506102db6113ea565b348015610535575f5ffd5b506102356113f4565b348015610549575f5ffd5b506102db6105583660046134e8565b611403565b348015610568575f5ffd5b50610235610577366004613591565b611495565b348015610587575f5ffd5b50610235610596366004613591565b61149e565b3480156105a6575f5ffd5b506102356105b53660046137bd565b6114a7565b3480156105c5575f5ffd5b506102db6105d4366004613591565b6114f1565b3480156105e4575f5ffd5b50610235611544565b3480156105f8575f5ffd5b506102db611566565b34801561060c575f5ffd5b506102db61061b366004613591565b61156e565b34801561062b575f5ffd5b50610235611602565b34801561063f575f5ffd5b50604080518082018252601981527f537461726b576172655f537461726b6e65745f323032345f39000000000000006020820152905161023f9190613829565b5f6106be6040518060400160405280602081526020017f535441524b4e45545f312e305f4d5347494e475f4c31544f4c325f4e4f4e4345815250611620565b905090565b5f6106cd82611653565b92915050565b5f5f6106e185338686610918565b90505f6106ec61167f565b5f83815260209190915260409020541161074d5760405162461bcd60e51b815260206004820152601a60248201527f494e56414c49445f4d4553534147455f544f5f434f4e53554d4500000000000060448201526064015b60405180910390fd5b336001600160a01b0316857f7a06c571aa77f34d9706c51e5d8122b5595aebeaa34233bfe866f22befb973b1868660405161078992919061388e565b60405180910390a3600161079b61167f565b5f8381526020019081526020015f205f8282546107b891906138b5565b909155509095945050505050565b5f6107cf6116a1565b60010154905090565b6107e133611653565b6107fd5760405162461bcd60e51b8152600401610744906138c8565b610806816110c2565b61086f5760016108146116ea565b6001600160a01b0383165f8181526020928352604090819020805460ff19169415159490941790935591519182527f50a18c352ee1c02ffe058e15c2eb6e58be387c81e73cc1e17035286e54c19a5791015b60405180910390a15b50565b5f61087b6116a1565b60020154905090565b61088c61132b565b156108a95760405162461bcd60e51b8152600401610744906138f1565b6108b233611653565b6108ce5760405162461bcd60e51b8152600401610744906138c8565b337f393c6beb5756a944b2967f15f31ff671e312e945d7a84fd3bdcfd6b408b2dc796108f8611544565b60408051918252602082018590520160405180910390a261086f8161170c565b6040515f9061093c9086906001600160a01b0387169085908790829060200161393b565b604051602081830303815290604052805190602001209050949350505050565b5f5f5f34116109b75760405162461bcd60e51b815260206004820152602160248201527f4c315f4d53475f4645455f4d5553545f42455f475245415445525f5448414e5f6044820152600360fc1b6064820152608401610744565b670de0b6b3a7640000341115610a0f5760405162461bcd60e51b815260206004820152601760248201527f4d41585f4c315f4d53475f4645455f45584345454445440000000000000000006044820152606401610744565b5f610a1861067f565b9050610a656040518060400160405280602081526020017f535441524b4e45545f312e305f4d5347494e475f4c31544f4c325f4e4f4e4345815250826001610a609190613959565b61172a565b8587336001600160a01b03167fdb80dd488acf86d17c747445b0eabb5d57c541d3bd7b6b87af987858e5066b2b88888634604051610aa6949392919061396c565b60405180910390a45f610abd3389898989876114a7565b9050610aca346001613959565b610ad261175c565b5f838152602091909152604090205597909650945050505050565b307f00000000000000000000000000000000000000000000000000000000000000006001600160a01b031603610b5e5760405162461bcd60e51b81526020600482015260166024820152751112549150d517d0d0531317d11254d0531313d5d15160521b6044820152606401610744565b5f610b6a816020613992565b90505f610b78826020613959565b905080831015610bc05760405162461bcd60e51b81526020600482015260136024820152721253925517d110551057d513d3d7d4d3505313606a1b6044820152606401610744565b5f610bcd828486886139a9565b810190610bda91906134e8565b9050365f610bea8582888a6139a9565b91509150365f610bfc8887818c6139a9565b90925090506001600160a01b03851615610c2657610c1b85838361177e565b505050505050505050565b610c2e6118bc565b15610c7d578015610c785760405162461bcd60e51b8152602060048201526014602482015273554e45585045435445445f494e49545f4441544160601b6044820152606401610744565b610c1b565b610c8782826118cc565b610c918282611976565b610c1b6119f1565b5050565b610ca633611653565b610cc25760405162461bcd60e51b8152600401610744906138c8565b610cca61132b565b15610ce75760405162461bcd60e51b8152600401610744906138f1565b610d0a604051806060016040528060318152602001613df960319139600161172a565b6040517f6823b073d48d6e3a7d385eeb601452d680e74bb46afe3255a7d778f3a9b17681905f90a1565b610d3d336110c2565b610d595760405162461bcd60e51b8152600401610744906139d0565b600a8311610da55760405162461bcd60e51b815260206004820152601960248201527814d5105492d3915517d3d55514155517d513d3d7d4d213d495603a1b6044820152606401610744565b610db98484610db26116a1565b9190611a6d565b83836008818110610dcc57610dcc6139f7565b90506020020135600114610e1b5760405162461bcd60e51b8152602060048201526016602482015275554e45585045435445445f4b5a475f44415f464c414760501b6044820152606401610744565b610e32610e2b84600a8188613a0b565b8484611b01565b5f610e3d858561216b565b9050610e4a85858361219d565b610e5e8585610e576116a1565b9190612568565b5050505050565b610e6e336110c2565b610e8a5760405162461bcd60e51b8152600401610744906139d0565b610ea9838383610e986116a1565b600181019290925591815560020155565b505050565b5f8486336001600160a01b03167f8abd2ec2e0a10c82f5b60ea00455fa96c41fd144f225fcc52b8d83d94f803ed8878787604051610eee93929190613a36565b60405180910390a45f610f053388888888886114a7565b90505f610f1061175c565b5f83815260209190915260408120549150819003610f675760405162461bcd60e51b81526020600482015260146024820152731393d7d35154d4d051d157d513d7d0d05390d15360621b6044820152606401610744565b5f610f706125c9565b5f84815260209190915260408120549150819003610fdb5760405162461bcd60e51b815260206004820152602260248201527f4d4553534147455f43414e43454c4c4154494f4e5f4e4f545f52455155455354604482015261115160f21b6064820152608401610744565b5f610fe46112de565b610fee9083613959565b9050818110156110405760405162461bcd60e51b815260206004820152601c60248201527f43414e43454c5f414c4c4f5745445f54494d455f4f564552464c4f57000000006044820152606401610744565b8042101561109c5760405162461bcd60e51b8152602060048201526024808201527f4d4553534147455f43414e43454c4c4154494f4e5f4e4f545f414c4c4f57454460448201526317d6515560e21b6064820152608401610744565b5f6110a561175c565b5f8681526020919091526040902055509198975050505050505050565b5f6110cb6116ea565b6001600160a01b039092165f90815260209290925250604090205460ff1690565b6110f5336110c2565b6111115760405162461bcd60e51b8152600401610744906139d0565b600a831161115d5760405162461bcd60e51b815260206004820152601960248201527814d5105492d3915517d3d55514155517d513d3d7d4d213d495603a1b6044820152606401610744565b61116a8484610db26116a1565b8383600881811061117d5761117d6139f7565b905060200201355f146111cb5760405162461bcd60e51b8152602060048201526016602482015275554e45585045435445445f4b5a475f44415f464c414760501b6044820152606401610744565b5f610e3d85856040518060400160405280878152602001868152506125eb565b5f6111f461175c565b5f92835260205250604090205490565b5f8486336001600160a01b03167f2e00dccd686fd6823ec7dc3e125582aa82881b6ff5f6b5a73856e1ea8338a3be87878760405161124493929190613a36565b60405180910390a45f61125b3388888888886114a7565b90505f61126661175c565b5f83815260209190915260409020549050806112bb5760405162461bcd60e51b81526020600482015260146024820152731393d7d35154d4d051d157d513d7d0d05390d15360621b6044820152606401610744565b426112c46125c9565b5f8481526020919091526040902055509695505050505050565b5f6106be6040518060600160405280602d8152602001613d62602d9139611620565b61086f81612660565b5f6106be604051806060016040528060238152602001613d3f60239139611620565b5f6106be604051806060016040528060318152602001613df960319139611620565b61135561132b565b156113725760405162461bcd60e51b8152600401610744906138f1565b61137b33611653565b6113975760405162461bcd60e51b8152600401610744906138c8565b337f07688623ef226ae0c2f88d3fdc7f6bb41427c804bcec3f36699b07148e3f53406113c1611602565b60408051918252602082018590520160405180910390a261086f81612779565b61086f8161279b565b6113f2612903565b565b5f6113fd6116a1565b54919050565b61140c33611653565b6114285760405162461bcd60e51b8152600401610744906138c8565b611431816110c2565b1561086f575f61143f6116ea565b6001600160a01b0383165f8181526020928352604090819020805460ff19169415159490941790935591519182527fec5f6c3a91a1efb1f9a308bb33c6e9e66bf9090fad0732f127dfdbf516d0625d9101610866565b5f6111f46125c9565b5f6111f461167f565b6040515f906114cf906001600160a01b0389169088908590899088908a908290602001613a59565b6040516020818303038152906040528051906020012090509695505050505050565b6114f961132b565b156115165760405162461bcd60e51b8152600401610744906138f1565b61151f33611653565b61153b5760405162461bcd60e51b8152600401610744906138c8565b61086f81612987565b5f6106be604051806060016040528060218152602001613d8f60219139611620565b6113f26129a9565b61157661132b565b156115935760405162461bcd60e51b8152600401610744906138f1565b61159c33611653565b6115b85760405162461bcd60e51b8152600401610744906138c8565b337f600a61c1b32ac42fb2fe76e8fc7582a98106668fc16dcd85567cd3937363e49b6115e2611309565b60408051918252602082018590520160405180910390a261086f81612a2a565b5f6106be6040518060600160405280602e8152602001613d11602e91395b5f5f826040516020016116339190613aa7565b60408051601f198184030181529190528051602090910120549392505050565b5f5f61165d612a4c565b6001600160a01b039093165f9081526020939093525050604090205460ff1690565b5f6106be604051806060016040528060238152602001613db060239139612a94565b5f5f604051806060016040528060278152602001613cea602791396040516020016116cc9190613aa7565b60408051601f19818403018152919052805160209091012092915050565b5f6106be604051806060016040528060288152602001613c9260289139612a94565b61086f604051806060016040528060218152602001613d8f60219139825b5f8260405160200161173c9190613aa7565b604051602081830303815290604052805190602001209050818155505050565b5f6106be604051806060016040528060268152602001613dd360269139612a94565b6001600160a01b0383163b6117ca5760405162461bcd60e51b8152602060048201526012602482015271115250d7d393d517d057d0d3d395149050d560721b6044820152606401610744565b5f5f846001600160a01b031663439fab9160e01b85856040516024016117f1929190613ab2565b60408051601f198184030181529181526020820180516001600160e01b03166001600160e01b031990941693909317909252905161182f9190613aa7565b5f60405180830381855af49150503d805f8114611867576040519150601f19603f3d011682016040523d82523d5f602084013e61186c565b606091505b50915091508181906118915760405162461bcd60e51b81526004016107449190613829565b5080518190156118b45760405162461bcd60e51b81526004016107449190613829565b505050505050565b5f6118c5611309565b1515919050565b60e081146119155760405162461bcd60e51b8152602060048201526016602482015275494c4c4547414c5f494e49545f444154415f53495a4560501b6044820152606401610744565b5f61192360208284866139a9565b8101906119309190613591565b9050805f03610ea95760405162461bcd60e51b81526020600482015260126024820152712120a22fa4a724aa24a0a624ad20aa24a7a760711b6044820152606401610744565b5f8080808061198786880188613ae0565b9450945094509450945061199a85612a2a565b6119a384612779565b6119ac83612ac6565b6119d3816119b86116a1565b90805182556020810151600183015560400151600290910155565b6119dc8261170c565b6119e862069780612987565b50505050505050565b5f6119fa612a4c565b6001810154909150600160a01b900460ff1615611a4f5760405162461bcd60e51b81526020600482015260136024820152721053149150511657d253925512505312569151606a1b6044820152606401610744565b60018101805460ff60a01b1916600160a01b17905561086f33612ae8565b5f83600101545f1903611a8c575067080000000000001160c01b611a93565b5060018301545b8083836002818110611aa757611aa76139f7565b9050602002013514611afb5760405162461bcd60e51b815260206004820152601960248201527f494e56414c49445f505245565f424c4f434b5f4e554d424552000000000000006044820152606401610744565b50505050565b6002831015611b4a5760405162461bcd60e51b815260206004820152601560248201527412d691d7d4d151d351539517d513d3d7d4d213d495605a1b6044820152606401610744565b5f84845f818110611b5d57611b5d6139f7565b905060200201355f1b90505f85856001818110611b7c57611b7c6139f7565b9050602002013590505f816002611b939190613992565b611b9e906002613959565b9050838214611bef5760405162461bcd60e51b815260206004820152601c60248201527f494e56414c49445f4e554d4245525f4f465f4b5a475f50524f4f4653000000006044820152606401610744565b611bfa826002613992565b611c049082613959565b861015611c4b5760405162461bcd60e51b815260206004820152601560248201527412d691d7d4d151d351539517d513d3d7d4d213d495605a1b6044820152606401610744565b5f5b828110156121615780495f819003611c9c5760405162461bcd60e51b81526020600482015260126024820152710929cac82989288be84989e84be929c888ab60731b6044820152606401610744565b600160f81b815f1a60f81b6001600160f81b03191614611cfe5760405162461bcd60e51b815260206004820152601c60248201527f554e45585045435445445f424c4f425f484153485f56455253494f4e000000006044820152606401610744565b60605f8a8a611d0e866002613992565b611d19906002613959565b818110611d2857611d286139f7565b9050602002013590505f8b8b866002611d419190613992565b611d4c906002613959565b611d57906001613959565b818110611d6657611d666139f7565b9050602002013590506001600160c01b038016821115611dc15760405162461bcd60e51b81526020600482015260166024820152751253959053125117d2d691d7d0d3d35352551351539560521b6044820152606401610744565b6001600160c01b03811115611e115760405162461bcd60e51b81526020600482015260166024820152751253959053125117d2d691d7d0d3d35352551351539560521b6044820152606401610744565b6040805167ffffffffffffffff1992821b8316602082015292811b9091166038830152805180830360300181526050909201905290505f808b8b611e56876002613992565b611e609089613959565b818110611e6f57611e6f6139f7565b9050602002013590505f8c8c876002611e889190613992565b611e92908a613959565b611e9d906001613959565b818110611eac57611eac6139f7565b9050602002013590506001600160801b038016821115611f005760405162461bcd60e51b815260206004820152600f60248201526e494e56414c49445f595f56414c554560881b6044820152606401610744565b6001600160801b03811115611f495760405162461bcd60e51b815260206004820152600f60248201526e494e56414c49445f595f56414c554560881b6044820152606401610744565b611f5782608083901b613959565b5f1b925050506030898986818110611f7157611f716139f7565b9050602002810190611f839190613b83565b905014611fcb5760405162461bcd60e51b8152602060048201526016602482015275494e56414c49445f4b5a475f50524f4f465f53495a4560501b6044820152606401610744565b5f80600a858a85878f8f8c818110611fe557611fe56139f7565b9050602002810190611ff79190613b83565b60405160200161200c96959493929190613bc5565b60408051601f198184030181529082905261202691613aa7565b5f60405180830381855afa9150503d805f811461205e576040519150601f19603f3d011682016040523d82523d5f602084013e612063565b606091505b5091509150816120c55760405162461bcd60e51b815260206004820152602760248201527f504f494e545f4556414c554154494f4e5f505245434f4d50494c455f43414c4c60448201526617d1905253115160ca1b6064820152608401610744565b805160208201207fb2157d3a40131b14c4c675335465dffde802f0ce5218ad012284d7f275d1b37c146121505760405162461bcd60e51b815260206004820152602d60248201527f554e45585045435445445f504f494e545f4556414c554154494f4e5f5052454360448201526c13d35412531157d3d555141555609a1b6064820152608401610744565b505060019093019250611c4d915050565b5050505050505050565b5f828260405160200161217f929190613bf8565b60405160208183030381529060405280519060200120905092915050565b6121a78383612b8e565b6121af611544565b838360078181106121c2576121c26139f7565b905060200201351461220c5760405162461bcd60e51b81526020600482015260136024820152720929cac82989288be869e9c8c928ebe9082a69606b1b6044820152606401610744565b8282600981811061221f5761221f6139f7565b905060200201355f146122745760405162461bcd60e51b815260206004820152601960248201527f46554c4c5f4f55545055545f4e4f545f535550504f52544544000000000000006044820152606401610744565b5f83836006818110612288576122886139f7565b905060200201355f146123235761229d611309565b848460068181106122b0576122b06139f7565b90506020020135146123145760405162461bcd60e51b815260206004820152602760248201527f41474752454741544f525f4d4f44455f494e56414c49445f4f535f50524f47526044820152660829abe9082a6960cb1b6064820152608401610744565b61231c611602565b905061232e565b61232b611309565b90505b6040805160208082018490528183018590528251808303840181526060909201909252805191012061235e612c21565b6001600160a01b0316636a938567826040518263ffffffff1660e01b815260040161238b91815260200190565b602060405180830381865afa1580156123a6573d5f5f3e3d5ffd5b505050506040513d601f19601f820116820180604052508101906123ca9190613c04565b6124165760405162461bcd60e51b815260206004820152601960248201527f4e4f5f53544154455f5452414e534954494f4e5f50524f4f46000000000000006044820152606401610744565b6040518381527f9866f8ddfe70bb512b2f2b28b49d4017c43f7ba775f1a20c61c13eea8cdac1119060200160405180910390a161245d85856124566116a1565b9190612c43565b5f6124688686612dc7565b9050612488600161247b8784818b613a0b565b61248361167f565b612e62565b6124929082613959565b90506124ac5f6124a48784818b613a0b565b61248361175c565b6124b69082613959565b90508481146125075760405162461bcd60e51b815260206004820152601860248201527f535441524b4e45545f4f55545055545f544f4f5f4c4f4e4700000000000000006044820152606401610744565b5f6125106116a1565b805460018201546002830154604080519384526020840192909252908201529091507fd342ddf7a308dec111745b00315c14b7efb2bdae570a6856e088ed0c65a3576c9060600160405180910390a150505050505050565b8181600381811061257b5761257b6139f7565b90506020020135836001015414610ea95760405162461bcd60e51b81526020600482015260126024820152715245454e5452414e43595f4641494c55524560701b6044820152606401610744565b5f6106be604051806060016040528060308152602001613cba60309139612a94565b5f82816125f8868361216b565b90505f8183865f01518760200151866126119190613959565b6040805160208101959095528401929092526060830152608082015260a00160408051601f1981840301815291905280516020909101209050612655816001613959565b979650505050505050565b61266933611653565b6126855760405162461bcd60e51b8152600401610744906138c8565b6001600160a01b03811633036126d45760405162461bcd60e51b8152602060048201526014602482015273474f5645524e4f525f53454c465f52454d4f564560601b6044820152606401610744565b5f6126dd612a4c565b90506126e882611653565b6127235760405162461bcd60e51b815260206004820152600c60248201526b2727aa2fa3a7ab22a92727a960a11b6044820152606401610744565b6001600160a01b0382165f8181526020838152604091829020805460ff1916905590519182527fd75f94825e770b8b512be8e74759e252ad00e102e38f50cce2f7c6f868a2959991015b60405180910390a15050565b61086f6040518060600160405280602e8152602001613d11602e91398261172a565b6127a433611653565b6127c05760405162461bcd60e51b8152600401610744906138c8565b5f6127c9612a4c565b90506001600160a01b03821661280f5760405162461bcd60e51b815260206004820152600b60248201526a4241445f4144445245535360a81b6044820152606401610744565b61281882611653565b156128585760405162461bcd60e51b815260206004820152601060248201526f20a62922a0a22cafa3a7ab22a92727a960811b6044820152606401610744565b60018101546001600160a01b0316156128b35760405162461bcd60e51b815260206004820152601760248201527f4f544845525f43414e4449444154455f50454e44494e470000000000000000006044820152606401610744565b6001810180546001600160a01b0319166001600160a01b0384169081179091556040519081527f6166272c8d3f5f579082f2827532732f97195007983bb5b83ac12c56700b01a69060200161276d565b5f61290c612a4c565b60018101549091506001600160a01b0316331461296b5760405162461bcd60e51b815260206004820152601760248201527f4f4e4c595f43414e4449444154455f474f5645524e4f520000000000000000006044820152606401610744565b61297433612ae8565b60010180546001600160a01b0319169055565b61086f6040518060600160405280602d8152602001613d62602d91398261172a565b6129b233611653565b6129ce5760405162461bcd60e51b8152600401610744906138c8565b5f6129d7612a4c565b60018101549091506001600160a01b03161561086f576001810180546001600160a01b03191690556040517f7a8dc7dd7fffb43c4807438fa62729225156941e641fd877938f4edade3429f5905f90a150565b61086f604051806060016040528060238152602001613d3f602391398261172a565b5f5f6040518060400160405280601c81526020017f535441524b4e45545f312e305f474f5645524e414e43455f494e464f000000008152506040516020016116cc9190613aa7565b5f5f82604051602001612aa79190613aa7565b60408051601f1981840301815291905280516020909101209392505050565b61086f604051806060016040528060228152602001613c70602291398261341d565b612af181611653565b15612b315760405162461bcd60e51b815260206004820152601060248201526f20a62922a0a22cafa3a7ab22a92727a960811b6044820152606401610744565b5f612b3a612a4c565b6001600160a01b0383165f8181526020838152604091829020805460ff1916600117905590519182529192507fcfb473e6c03f9a29ddaf990e736fa3de5188a0bd85d684f5b6e164ebfbfff5d2910161276d565b6001600167080000000000001160c01b01602083028401845b81811015612bc75782813510612bbf575f9350612bc7565b602001612ba7565b50505080610ea95760405162461bcd60e51b815260206004820152602160248201527f50524f4752414d5f4f55545055545f56414c55455f4f55545f4f465f52414e476044820152604560f81b6064820152608401610744565b5f6106be604051806060016040528060228152602001613c7060229139611620565b612c4e838383611a6d565b5f82826003818110612c6257612c626139f7565b90506020020135905083600101548113612cbe5760405162461bcd60e51b815260206004820152601860248201527f494e56414c49445f4e45575f424c4f434b5f4e554d42455200000000000000006044820152606401610744565b60018401819055600284015483836004818110612cdd57612cdd6139f7565b9050602002013514612d315760405162461bcd60e51b815260206004820152601760248201527f494e56414c49445f505245565f424c4f434b5f484153480000000000000000006044820152606401610744565b82826005818110612d4457612d446139f7565b6020029190910135600286015550365f612d5e8585613475565b91509150612d6c828261349e565b865414612db35760405162461bcd60e51b81526020600482015260156024820152741253959053125117d41491559253d554d7d493d3d5605a1b6044820152606401610744565b612dbd82826134c0565b9095555050505050565b5f82826008818110612ddb57612ddb6139f7565b905060200201355f03612df05750600a6106cd565b5f8383612dff6001600a613959565b818110612e0e57612e0e6139f7565b905060200201359050806002612e249190613992565b612e2f826002613992565b612e3b600a6001613959565b612e46906001613959565b612e509190613959565b612e5a9190613959565b949350505050565b5f5f84845f818110612e7657612e766139f7565b90506020020135905063400000008110612ed25760405162461bcd60e51b815260206004820152601c60248201527f494e56414c49445f4d4553534147455f5345474d454e545f53495a45000000006044820152606401610744565b60015f612edf8383613959565b90505f88612eee576004612ef1565b60025b90505f5b8284101561332d575f612f088386613959565b9050888110612f4d5760405162461bcd60e51b8152602060048201526011602482015270135154d4d051d157d513d3d7d4d213d495607a1b6044820152606401610744565b5f8a8a83818110612f6057612f606139f7565b90506020020135905063400000008110612fb55760405162461bcd60e51b81526020600482015260166024820152750929cac82989288bea082b2989e8288be988a9c8ea8960531b6044820152606401610744565b5f81612fc2846001613959565b612fcc9190613959565b90508a81111561301e5760405162461bcd60e51b815260206004820152601960248201527f5452554e43415445445f4d4553534147455f5041594c4f4144000000000000006044820152606401610744565b8c1561312e575f8c8c8990849261303793929190613a0b565b604051602001613048929190613bf8565b6040516020818303038152906040528051906020012090508c8c60018a61306f9190613959565b81811061307e5761307e6139f7565b905060200201356001600160a01b03168d8d5f8b61309c9190613959565b8181106130ab576130ab6139f7565b905060200201357f4264ac208b5fde633ccdd42e0f12c3d6d443a4f3779bbf886925b94665b63a228f8f60038d6130e29190613959565b6130ee92889290613a0b565b6040516130fc92919061388e565b60405180910390a35f81815260208c905260408120805460019290613122908490613959565b90915550613323915050565b5f8c8c8990849261314193929190613a0b565b604051602001613152929190613bf8565b60408051601f1981840301815291815281516020928301205f818152928e9052912054909150806131c55760405162461bcd60e51b815260206004820152601a60248201527f494e56414c49445f4d4553534147455f544f5f434f4e53554d450000000000006044820152606401610744565b6131d06001826138b5565b6131da9087613959565b5f92835260208d90526040832083905595508d90508c6131fb60028b613959565b81811061320a5761320a6139f7565b9050602002013590505f8d8d60058b6132239190613959565b61322f92869290613a0b565b808060200260200160405190810160405280939291908181526020018383602002808284375f81840152601f19601f8201169050808301925050505050505090508d8d60038b61327f9190613959565b81811061328e5761328e6139f7565b905060200201358e8e60018c6132a49190613959565b8181106132b3576132b36139f7565b905060200201358f8f5f8d6132c89190613959565b8181106132d7576132d76139f7565b905060200201356001600160a01b03167f9592d37825c744e33fa80c469683bbd04d336241bb600b574758efd182abe26a8486604051613318929190613c23565b60405180910390a450505b9550612ef5915050565b82841461337c5760405162461bcd60e51b815260206004820152601c60248201527f494e56414c49445f4d4553534147455f5345474d454e545f53495a45000000006044820152606401610744565b801561340f576040515f90339083908381818185875af1925050503d805f81146133c1576040519150601f19603f3d011682016040523d82523d5f602084013e6133c6565b606091505b505090508061340d5760405162461bcd60e51b815260206004820152601360248201527211551217d514905394d1915497d19052531151606a1b6044820152606401610744565b505b509198975050505050505050565b5f61342783611620565b6001600160a01b03161461346b5760405162461bcd60e51b815260206004820152600b60248201526a1053149150511657d4d15560aa1b6044820152606401610744565b610c99828261172a565b365f838184613485826002613959565b9261349293929190613a0b565b915091505b9250929050565b5f82825f8181106134b1576134b16139f7565b90506020020135905092915050565b5f828260018181106134b1576134b16139f7565b6001600160a01b038116811461086f575f5ffd5b5f602082840312156134f8575f5ffd5b8135613503816134d4565b9392505050565b5f5f83601f84011261351a575f5ffd5b5081356001600160401b03811115613530575f5ffd5b6020830191508360208260051b8501011115613497575f5ffd5b5f5f5f6040848603121561355c575f5ffd5b8335925060208401356001600160401b03811115613578575f5ffd5b6135848682870161350a565b9497909650939450505050565b5f602082840312156135a1575f5ffd5b5035919050565b5f5f5f5f606085870312156135bb575f5ffd5b8435935060208501356135cd816134d4565b925060408501356001600160401b038111156135e7575f5ffd5b6135f38782880161350a565b95989497509550505050565b5f5f5f5f60608587031215613612575f5ffd5b843593506020850135925060408501356001600160401b038111156135e7575f5ffd5b5f5f60208385031215613646575f5ffd5b82356001600160401b0381111561365b575f5ffd5b8301601f8101851361366b575f5ffd5b80356001600160401b03811115613680575f5ffd5b856020828401011115613691575f5ffd5b6020919091019590945092505050565b5f5f5f5f604085870312156136b4575f5ffd5b84356001600160401b038111156136c9575f5ffd5b6136d58782880161350a565b90955093505060208501356001600160401b038111156135e7575f5ffd5b5f5f5f60608486031215613705575f5ffd5b505081359360208301359350604090920135919050565b5f5f5f5f5f60808688031215613730575f5ffd5b853594506020860135935060408601356001600160401b03811115613753575f5ffd5b61375f8882890161350a565b96999598509660600135949350505050565b5f5f5f5f60608587031215613784575f5ffd5b84356001600160401b03811115613799575f5ffd5b6137a58782880161350a565b90989097506020870135966040013595509350505050565b5f5f5f5f5f5f60a087890312156137d2575f5ffd5b86356137dd816134d4565b9550602087013594506040870135935060608701356001600160401b03811115613805575f5ffd5b61381189828a0161350a565b979a9699509497949695608090950135949350505050565b602081525f82518060208401528060208501604085015e5f604082850101526040601f19601f83011684010191505092915050565b8183525f6001600160fb1b03831115613875575f5ffd5b8260051b80836020870137939093016020019392505050565b602081525f612e5a60208301848661385e565b634e487b7160e01b5f52601160045260245ffd5b818103818111156106cd576106cd6138a1565b6020808252600f908201526e4f4e4c595f474f5645524e414e434560881b604082015260600190565b60208082526009908201526811925390531256915160ba1b604082015260600190565b5f6001600160fb1b03831115613928575f5ffd5b8260051b80838637939093019392505050565b8581528460208201528360408201525f612655606083018486613914565b808201808211156106cd576106cd6138a1565b606081525f61397f60608301868861385e565b6020830194909452506040015292915050565b80820281158282048414176106cd576106cd6138a1565b5f5f858511156139b7575f5ffd5b838611156139c3575f5ffd5b5050820193919092039150565b6020808252600d908201526c27a7262cafa7a822a920aa27a960991b604082015260600190565b634e487b7160e01b5f52603260045260245ffd5b5f5f85851115613a19575f5ffd5b83861115613a25575f5ffd5b5050600583901b0193919092039150565b604081525f613a4960408301858761385e565b9050826020830152949350505050565b8781528660208201528560408201528460608201528360808201525f613a8360a083018486613914565b9998505050505050505050565b5f81518060208401855e5f93019283525090919050565b5f6135038284613a90565b60208152816020820152818360408301375f818301604090810191909152601f909201601f19160101919050565b5f5f5f5f5f85870360e0811215613af5575f5ffd5b86359550602087013594506040870135613b0e816134d4565b93506060878101359350607f1982011215613b27575f5ffd5b50604051606081018181106001600160401b0382111715613b5657634e487b7160e01b5f52604160045260245ffd5b60409081526080880135825260a0880135602083015260c090970135968101969096525092959194509290565b5f5f8335601e19843603018112613b98575f5ffd5b8301803591506001600160401b03821115613bb1575f5ffd5b602001915036819003821315613497575f5ffd5b8681528560208201528460408201525f613be26060830186613a90565b838582375f930192835250909695505050505050565b5f612e5a828486613914565b5f60208284031215613c14575f5ffd5b81518015158114613503575f5ffd5b604080825283519082018190525f9060208501906060840190835b81811015613c5c578351835260209384019390920191600101613c3e565b505060209390930193909352509291505056fe535441524b4e45545f312e305f494e49545f56455249464945525f41444452455353535441524b4e45545f312e305f524f4c45535f4f50455241544f52535f4d415050494e475f544147535441524b4e45545f312e305f4d5347494e475f4c31544f4c325f43414e43454c4c4154494f4e5f4d41505050494e47535441524b4e45545f312e305f494e49545f535441524b4e45545f53544154455f535452554354535441524b4e45545f312e305f494e49545f41474752454741544f525f50524f4752414d5f484153485f55494e54535441524b4e45545f312e305f494e49545f50524f4752414d5f484153485f55494e54535441524b4e45545f312e305f4d5347494e475f4c31544f4c325f43414e43454c4c4154494f4e5f44454c4159535441524b4e45545f312e305f535441524b4e45545f434f4e4649475f48415348535441524b4e45545f312e305f4d5347494e475f4c32544f4c315f4d41505050494e47535441524b4e45545f312e305f4d5347494e475f4c31544f4c325f4d41505050494e475f5632535441524b574152455f434f4e5452414354535f474f564552454e45445f46494e414c495a41424c455f312e305f544147a26469706673582212205a01520c04cc85ab35fb3073d339d7d53f574f4cc9bf8ed0c1011c2a5ba743cb64736f6c634300081b0033",
        "linkReferences": {}
    },
    "methodIdentifiers": {
        "aggregatorProgramHash()": "eb27feeb",
        "cancelL1ToL2Message(uint256,uint256,uint256[],uint256)": "6170ff1b",
        "configHash()": "e1f1176d",
        "consumeMessageFromL2(uint256,uint256[])": "2c9dd5c0",
        "finalize()": "4bb278f3",
        "getMaxL1MsgFee()": "54eccba4",
        "identify()": "eeb72866",
        "initialize(bytes)": "439fab91",
        "isFinalized()": "8d4e4083",
        "isFrozen()": "33eeb147",
        "isOperator(address)": "6d70f7ae",
        "l1ToL2MessageCancellations(bytes32)": "9be446bf",
        "l1ToL2MessageNonce()": "018cccdf",
        "l1ToL2Messages(bytes32)": "77c7d7a9",
        "l1ToL2MsgHash(address,uint256,uint256,uint256[],uint256)": "b64b6737",
        "l2ToL1Messages(bytes32)": "a46efaf3",
        "l2ToL1MsgHash(uint256,address,uint256[])": "3d8a5df8",
        "messageCancellationDelay()": "8303bd8a",
        "programHash()": "8a9bf090",
        "registerOperator(address)": "3682a450",
        "sendMessageToL2(uint256,uint256,uint256[])": "3e3aa6c5",
        "setAggregatorProgramHash(uint256)": "9020429c",
        "setConfigHash(uint256)": "3d07b336",
        "setMessageCancellationDelay(uint256)": "c99d397f",
        "setProgramHash(uint256)": "e87e7332",
        "starknetAcceptGovernance()": "946be3ed",
        "starknetCancelNomination()": "e37fec25",
        "starknetIsGovernor(address)": "01a01590",
        "starknetNominateNewGovernor(address)": "91a66a26",
        "starknetRemoveGovernor(address)": "84f921cd",
        "startL1ToL2MessageCancellation(uint256,uint256,uint256[],uint256)": "7a98660b",
        "stateBlockHash()": "382d83e3",
        "stateBlockNumber()": "35befa5d",
        "stateRoot()": "9588eca2",
        "unregisterOperator(address)": "96115bc2",
        "updateState(uint256[],uint256,uint256)": "77552641",
        "updateStateKzgDA(uint256[],bytes[])": "507ee528",
        "updateStateOverride(uint256,int256,uint256)": "61538cad"
    },
    "id": 19
}